:020000040800F2
:10000000087A0020450100083D1800083F18000844
:1000100043180008471800084B18000800000000AB
:100020000000000000000000000000004F18000861
:100030005118000800000000531800085518000867
:100040005F0100085F0100085F0100085F01000810
:100050005F0100085F0100085F0100085F01000800
:100060005F0100085F0100085F0100085F010008F0
:100070005F0100085F0100085F0100085F010008E0
:100080005F0100085F0100085F0100085F010008D0
:100090005F0100085F0100085F0100085F010008C0
:1000A0005F0100085F0100085F0100085F010008B0
:1000B0005F0100085F0100085F0100085F010008A0
:1000C0005F0100085F0100085F0100085F01000890
:1000D0005F0100085F0100085F0100085F01000880
:1000E0005F0100085F0100085F0100085F01000870
:1000F0005F0100085F0100085F0100085F01000860
:100100005F010008571800085F0100085F01000840
:100110005F0100085F0100085F0100085F0100083F
:100120005F0100085F0100085F0100085F0100082F
:10013000DFF80CD007F000FC00480047611600080B
:10014000087A00200648804706480047FEE7FEE799
:10015000FEE7FEE7FEE7FEE7FEE7FEE7FEE7FEE777
:1001600047020008310100080CB500200190009002
:100170006C48006840F480306A49086000BF6948F4
:10018000006800F4003000900198401C0190009835
:1001900018B90198B0F5A06FF1D16248006800F479
:1001A000003010B10120009001E000200090009884
:1001B000012843D15C48006840F010005A490860AB
:1001C0000846006820F0030008600846006840F018
:1001D0000200086053484068524948600846406839
:1001E00048600846406840F48060486008464068BF
:1001F00020F47C1048600846406840F4E8104860ED
:100200000846006840F08070086000BF45480068FC
:1002100000F000700028F9D04248406820F0030048
:10022000404948600846406840F00200486000BF0E
:100230003C48406800F00C000828F9D10CBD10B50E
:10024000FFF792FF10BD10B53648006840F001007E
:1002500034490860084640683449084031494860DC
:1002600008460068324908402E4908600846006880
:1002700020F4802008600846406820F4FE004860B2
:100280004FF41F008860FFF7DAFF4FF00060294944
:10029000086010BD10B5002100200022214B5B68D2
:1002A00003F00C0121B1042906D0082928D107E068
:1002B000214B224C236027E01F4B204C236023E07E
:1002C000184B5B6803F47010164B5B6803F48032C4
:1002D000022303EB904022B9194B4343174C236090
:1002E0000DE0104B5B6803F4003323B1144B434320
:1002F000124C236003E0104B4343104C236003E097
:100300000D4B0E4C236000BF00BF064B5B68C3F370
:1003100003130C4CE15C094B1B68CB40074C23607A
:1003200010BD000000100240002002400000FFF855
:10033000FFFFF6FE08ED00E000127A00000000204A
:1003400000093D000400002031490143314A116099
:10035000704770B5002100230F22C47804B32D4CE0
:10036000246804F4E064C4F5E064210AC1F10403E4
:10037000CA40447804FA03F1847814402143090107
:10038000254C0678A155047804F01F050124AC40E3
:1003900005786D11AD0005F1E025C5F8004109E0D3
:1003A000047804F01F050124AC401C4D067876113A
:1003B00045F8264070BD1A4A0A400243154B1B1FE0
:1003C0001A60704739B1134A121D12680243114B6B
:1003D0001B1D1A6006E00F4A121D126882430D4B66
:1003E0001B1D1A607047042808D14FF0E0210969ED
:1003F00041F004014FF0E022116107E04FF0E021ED
:10040000096921F004014FF0E022116170470000FA
:100410000000FA050CED00E000E400E080E100E0FF
:1004200080FFFF1F01684FF6FE721140016000213E
:10043000016041608160C1608D49884208D18C496A
:100440000839496841F00F01894A083A51608AE049
:1004500087491431884208D185490839496841F0F3
:10046000F001834A083A51607DE081492831884291
:1004700008D17F490839496841F470617C4A083ADB
:10048000516070E07A493C31884208D17849083996
:10049000496841F47041764A083A516063E0744912
:1004A0005031884208D172490839496841F47021B5
:1004B0006F4A083A516056E06D496431884208D16C
:1004C0006B490839496841F47001694A083A51603A
:1004D00049E067497831884208D165490839496857
:1004E00041F07061624A083A51603CE061498842DB
:1004F00006D1011F096841F00F01021F116032E0AF
:100500005C491431884208D15A49091F096841F0F1
:10051000F001584A121F116025E0564928318842DF
:1005200008D15449091F096841F47061514A121FEA
:10053000116018E04F493C31884208D14D49091FEC
:10054000096841F470414B4A121F11600BE04949A0
:100550005031884207D14749091F096841F4702189
:10056000444A121F1160704710B50022026847F616
:10057000F0739A430C6A8B6823430C6923434C69DC
:1005800023438C692343CC6923434C6A23438C6AFD
:1005900023431A430260CB6843600B6883604B6857
:1005A000C36010BD0021016041608160C1600161D4
:1005B00041618161C161016241628162704721B123
:1005C000026842F00102026004E002684FF6FE7326
:1005D0001A40026070471AB103680B43036002E0DF
:1005E00003688B4303607047416070470146486869
:1005F00080B2704701460020002201F080531BB1F9
:100600001C4B083B1A6802E0194B083B1A6802EAC7
:1006100001030BB1012000E00020704700F0805181
:1006200019B11449091F086002E0114908394860EE
:10063000704701460020002201F080531BB10D4B92
:10064000083B1A6802E00A4B083B1A6802EA0103F9
:100650000BB1012000E00020704700F0805119B17B
:100660000449091F086002E00149083948607047E1
:10067000080002400804024010B50446CC488442F9
:1006800008D10121042000F02DFB0021042000F0FE
:1006900029FB46E0C748844208D10121082000F028
:1006A00021FB0021082000F01DFB3AE0C2488442F3
:1006B00008D10121102000F015FB0021102000F0CE
:1006C00011FB2EE0BD48844208D10121202000F01A
:1006D00009FB0021202000F005FB22E0B8488442FD
:1006E00008D10121402000F0FDFA0021402000F057
:1006F000F9FA16E0B348844208D10121802000F0C5
:10070000F1FA0021802000F0EDFA0AE0AE488442C0
:1007100007D10121801500F0E5FA0021A01500F0B5
:10072000E1FA10BD10B50121084600F0DBFA002106
:10073000012000F0D7FA10BD2DE9F0410246002556
:100740000026002000230024002791F803C00CF0AD
:100750000F0591F803C00CF0100CBCF1000F03D092
:1007600091F802C04CEA050591F800C0BCF1000FF9
:1007700031D0146800202BE04FF0010C0CFA00F38C
:10078000B1F800C00CEA03069E4220D183004FF06E
:100790000F0C0CFA03F7BC4305FA03FC4CEA040403
:1007A00091F803C0BCF1280F06D14FF0010C0CFAF0
:1007B00000FCC2F814C00AE091F803C0BCF1480F75
:1007C00005D14FF0010C0CFA00FCC2F810C0401C1F
:1007D0000828D1D31460B1F800C0BCF1FF0F34DD9C
:1007E000546800202EE000F1080C4FF0010808FAD0
:1007F0000CF3B1F800C00CEA03069E4221D183003D
:100800004FF00F0C0CFA03F7BC4305FA03FC4CEA5B
:10081000040491F803C0BCF1280F05D100F1080CC5
:1008200008FA0CF8C2F8148091F803C0BCF1480F24
:1008300007D100F1080C4FF0010808FA0CF8C2F8D3
:100840001080401C0828CED35460BDE8F0814FF6DC
:10085000FF710180022181700421C170704702463E
:10086000002093680B400BB1012000E0002070478E
:100870000146886880B2704702460020D3680B406A
:100880000BB1012000E0002070470146C86880B22B
:10089000704701617047416170470AB1016100E032
:1008A00041617047C16070474FF480320A438261F2
:1008B0008161826182698269704702460020434BF0
:1008C00018684FF68073184040EA021008433F4B07
:1008D000186070473E49C8617047F0B50A4600236A
:1008E00000240021002500F00046B6F1004F02D19F
:1008F000364EF16901E0354E7168C0F3034583B2AD
:1009000000F44016B6F5401F08D121F070612F4E5B
:10091000766826F070662D4F7E6012E000F4801637
:10092000B6F5801F06D1032606FA05F4A14341F06F
:10093000706106E0460D360103FA06F6B14341F058
:10094000706122B1460D360103FA06F6314300F01C
:100950000046B6F1004F02D11C4EF16101E01B4E82
:100960007160F0BD30B500228B071C0F0F2303FA16
:1009700004F2164B08338C1053F824309343134C75
:1009800008348D1044F8253023468C1053F8243059
:100990008C07240F00FA04F423430C4C08348D1008
:1009A00044F8253030BD0A49DC310860704700004A
:1009B00000080140000C01400010014000140140FB
:1009C00000180140001C01400020014000000140CF
:1009D00000002042DF48006840F00100DD49086067
:1009E00008464068DC490840DA4948600846006823
:1009F000DA490840D74908600846006820F480209A
:100A000008600846406820F4FE0048604FF41F006C
:100A100088607047CF49096821F48031CD4A116060
:100A20001146096821F480211160B0F5803F03D0A0
:100A3000B0F5802F0ED106E0C649096841F4803137
:100A4000C44A116007E0C349096841F4A021C14AC2
:100A5000116000E000BF00BF704710B501460022E2
:100A6000002300204A11012A02D1BA4C236806E073
:100A7000022A02D1B74C236A01E0B64C636A01F046
:100A80001F02012494401C400CB1012000E0002012
:100A900010BD38B5002000900024002500BF312093
:100AA000FFF7DBFF05460098401C00900098B0F56A
:100AB000A06F01D0002DF2D03120FFF7CEFF08B19A
:100AC000012400E00024204638BD01460020A14A50
:100AD000106820F0F80040EAC10010607047A0499B
:100AE00008607047024600209A4B586820F47C103A
:100AF00042EA01031843974B5860704798490866CB
:100B0000704701460020934A506820F003000843D4
:100B1000506070478F48406800F00C0070470146F5
:100B200000208C4A506820F0F00008435060704765
:100B300001460020874A506820F4E0600843506076
:100B4000704701460020834A506820F4605040EA14
:100B5000C1005060704729B17E4A527A02437D4BF2
:100B60005A7204E07B4A527A82437A4B5A72704737
:100B70007B49D8310860704701460020754A5068AB
:100B800020F440400843506070470021714A2032F1
:100B90001170704A82F82010012802D004280AD16E
:100BA00004E001216B4A2032117005E00521694AF9
:100BB0002032117000E000BF00BF70476949086033
:100BC00070476449096A0143624A11627047654986
:100BD00044390860704730B500210022002400230A
:100BE0005C4D6D6805F00C0121B1042905D0082980
:100BF00023D105E05C4D056022E05B4D05601FE000
:100C0000544D6D6805F47012524D6D6805F48034D2
:100C1000022505EB92421CB9544D554305600BE08B
:100C20004C4D6D6805F400351DB1504D55430560C0
:100C300002E04D4D5543056002E04B4D056000BF9D
:100C400000BF444D6D6805F0F0010909484D6B5C2B
:100C50000568DD4045603F4D6D6805F4E061090AB7
:100C6000434D6B5C4568DD4085603A4D6D6805F429
:100C70006051C90A3E4D6B5C4568DD40C560354D2D
:100C80006D6805F44041890B3A4D6B5CC568B5FB56
:100C9000F3F5056130BD29B12E4A526902432D4B4F
:100CA0005A6104E02B4A526982432A4B5A617047C9
:100CB00029B1284A92690243264B9A6104E0254AE9
:100CC00092698243234B9A61704729B1214AD269C4
:100CD0000243204BDA6104E01E4AD26982431D4B75
:100CE000DA61704729B11B4AD2680243194BDA60B6
:100CF00004E0184AD2688243164BDA60704729B183
:100D0000144A12690243134B1A6104E0114A126932
:100D10008243104B1A61704712494039086070478E
:100D20000F49C86470470B49C87170470948406A49
:100D300040F0807007494862704701460020054A2C
:100D400092680A400AB1012000E000207047014982
:100D500088727047001002400000FFF8FFFFF6FEA7
:100D6000000042428004424200127A0000093D0025
:100D7000140000202400002000206F490860486013
:100D80008860C86048628862C8626C4888630020D6
:100D9000C86370470021684A516847F6FF62914373
:100DA000027D83681A4343681A43C3681A43036881
:100DB0001A4303691A4311435F4A51607047002187
:100DC0000175016041608160C160016170475C49EB
:100DD000086070475849096821F00301564A1160BC
:100DE000114609680143116070475348006800F0DC
:100DF0000300704729B1504AD26B02434E4BDA636D
:100E000004E04D4AD26B82434B4BDA6370474D4945
:100E1000086070470021484B02689A601A46D16802
:100E20006FF30A01D0E901231A43C3681A43036927
:100E30001A431143404AD16070470021016041606C
:100E40008160C160016170473B480069C0B2704772
:100E500008B501460020009037481430084400903F
:100E60000098006808BD0021334B02685A6242684E
:100E70009A621A46D16A21F0F701D0E902231A4397
:100E800003691A4343691A4311432B4AD1627047DD
:100E90004FF0FF310160002141608160C16001615C
:100EA000416170472448006B7047234880300068D8
:100EB000704721498031086070471F48806C704737
:100EC00020491431086070471E4918310860704786
:100ED0001C491C31086070471A492031086070476E
:100EE0001949086070471849091D086070470121B9
:100EF0008143154A08321160704713490C3108606C
:100F00007047014600200C4A526B0A400AB101208A
:100F100000E00020704708498863704701460020C0
:100F2000054A526B0A400AB1012000E000207047D8
:100F3000014988637047000000800140FF07C0003E
:100F4000A00030428C053042AC01304210B504465E
:100F5000BE48844208D101218014FFF7C3FE00215E
:100F6000A014FFF7BFFE16E0B948844208D1012162
:100F70000014FFF7C4FE00212014FFF7C0FE0AE0B2
:100F8000B448844207D10121C013FFF7B8FE002105
:100F9000E013FFF7B4FE10BD10B50022028802F482
:100FA00041520B884C8823438C882343CC882343AD
:100FB0000C8923434C8923438C892343CC892343C5
:100FC0001A430280838B4FF2FF74234083830B8A82
:100FD000038210BD2DE9F04F85B005460C464FF059
:100FE000000902274FF000084FF0010B0026B2461F
:100FF000A88B4FF240010840A88302202884B5F84E
:101000001C90A068022801D100BF38E0A08810B968
:101010004FF0010B01E04FF0020B8D48854200D1EB
:1010200000E000BF6846FFF7D6FDDDF800A0E088CD
:10103000B0F5007F0AD14FEA1A2000EB8000400093
:10104000A168B0FBF1F0401D86B20BE04FEA4B10F7
:10105000BAFBF0F000EB80004000A168B0FBF1F0BB
:10106000401D86B20A20B6FBF0F606F00108A6EB9A
:101070000800C0F34F074FF6FF7000EA0828022F60
:1010800001DBFF2F02DD02274FF00008E08840EA75
:10109000080038432884A088A18908436188084350
:1010A0002188084340F4006040EA0909A5F81C9033
:1010B00005B0BDE8F08F0021018041808180C180B2
:1010C000018141818181C181072101827047002115
:1010D000018041808180C180022181600021818165
:1010E000704721B1028842F04002028004E0028889
:1010F0004FF6BF731A400280704721B1828B42F4D1
:101100008062828304E0828B4FF6FF331A40828331
:10111000704730B5002400230C110125A540ABB267
:101120001AB185881D43858002E085889D438580AE
:1011300030BD1AB183880B43838002E083888B43E0
:1011400083807047818170470146888970474FF6D8
:10115000FF62914204D0028842F48072028004E06F
:1011600002884FF6FF631A400280704721B18288DF
:1011700042F00402828004E082884FF6FB731A403A
:101180008280704702884FF2FF731A400280028803
:101190000A4302807047018841F480510180704702
:1011A00021B1028842F40052028004E002884DF628
:1011B000FF731A400280704702460020012901D0C7
:1011C000108B00E0908A70470146088A7047B1F59D
:1011D000804F04D1028842F48042028004E00288F9
:1011E0004BF6FF731A4002807047024600201389B5
:1011F0000B400BB1012000E000207047CA43028180
:101200007047F0B50246002000240023002501F0BD
:101210000F070126BE40B4B20B1101269E40B3B2A7
:10122000968806EA03051689264016B10DB10120FD
:1012300000E00020F0BD10B5002201F00F040123F2
:10124000A3409AB2D343038110BD00000030014097
:1012500000380040003C004010B50446FB48844282
:1012600009D101218803FFF73DFD00214FF48040A3
:10127000FFF738FD32E0F648844209D101214804E5
:10128000FFF73DFD00214FF40030FFF738FD25E06A
:10129000F048844209D101218804FFF730FD002184
:1012A0004FF48020FFF72BFD18E0EB48844209D172
:1012B0000121C804FFF723FD00214FF40020FFF7B0
:1012C0001EFD0BE0E548844208D101210805FFF727
:1012D00016FD00214FF48010FFF711FD10BD2DE920
:1012E000F04786B005460E460024A24600BFA14640
:1012F0000027B08900B100BF2F462C8A4CF6FF7042
:101300000440F08804432C82AC894EF6F31004406C
:10131000B08831890843718908430443AC81AC8AA1
:101320004FF6FF400440B0890443AC8201A8FFF7A8
:1013300052FCC648874202D1DDF810A001E0DDF87A
:101340000CA0A88900F4004040B10AEBCA0000EBF1
:101350000A1031684900B0FBF1F807E00AEBCA0057
:1013600000EB0A1031688900B0FBF1F86420B8FB8B
:10137000F0F004012009642101FB1089A88900F420
:10138000004040B1322000EBC900B0FBF1F000F0AA
:101390000700044308E0322000EB09106421B0FB91
:1013A000F1F000F00F0004432C8106B0BDE8F08797
:1013B0004FF41651016000218180C18001810C2110
:1013C000418100218181704710B502460020108ABA
:1013D0004FF2FF0318400B884C8823438C8823432B
:1013E000CC8823431843108210BD00210180418026
:1013F0008180C180704721B1828942F4005282818C
:1014000004E082894DF6FF731A4082817047F0B57F
:101410000346002400260025002040F66A17B94242
:1014200000D100BF1846C1F3421401F01F06012786
:1014300007FA06F5012C01D10C3004E0022C01D191
:10144000103000E014301AB107682F43076002E043
:101450000768AF430760F0BD1AB1838A0B438382EC
:1014600002E0838A8B4383827047028A4FF6F073CF
:101470001A400282028A0A430282704782894FF22E
:10148000FF731A40828182890A438281704721B1A9
:10149000828942F00202828104E082894FF6FD7364
:1014A0001A4082817047028A4FF6DF731A40028227
:1014B000028A0A430282704721B1028A42F48042C2
:1014C000028204E0028A4BF6FF731A4002827047E0
:1014D000C1F308028280704701468888C0F3080083
:1014E0007047818941F0010181817047028BD2B23E
:1014F0000283028B42EA012202837047028B02F4CC
:101500007F420283028B0A430283704721B1828AA1
:1015100042F02002828204E0828A4FF6DF731A4092
:101520008282704721B1828A42F01002828204E0F6
:10153000828A4FF6EF731A408282704721B1828A05
:1015400042F00802828204E0828A4FF6F7731A4062
:101550008282704721B1828942F40042828103E095
:101560008289C2F30E028281704721B1828A42F4DD
:101570000062828204E0828A4FF2FF731A40828204
:101580007047828A4FF6FB731A408282828A0A432E
:101590008282704721B1828A42F00202828204E094
:1015A000828A4FF6FD731A408282704702460020FD
:1015B000B1F5007F00D100BF13880B400BB10120B3
:1015C00000E00020704701F40072B2F5007F00D106
:1015D00000BFCA430280704770B502460024002352
:1015E0000025002040F66A16B14200D100BFC1F3C9
:1015F000421501F01F03012606FA03F3012D02D163
:101600009689334006E0022D02D1168A334001E06C
:10161000968A33400C12012606FA04F416883440E8
:1016200013B10CB1012000E0002070BD10B5002204
:10163000002340F66A14A14200D100BF0A1201241F
:101640009440A3B2DC43048010BD00000038014088
:101650000044004000480040004C00400050004062
:1016600000F0FEF820202B490860012008600220CD
:10167000091D086000F024F901F0FEFC02F078FC7E
:10168000012225A1254804F06BFB25490870084676
:10169000007868B123A006F0EDF920201D49091D4E
:1016A00008600120091F08600220086000BFFEE7F3
:1016B00029A006F0DFF934A006F0DCF900BF012113
:1016C0003D4801F0F4FC0028F9D03CA006F0D2F926
:1016D00002F00DFD45A005F0CFF81149087008464D
:1016E000007828B90846017847A006F0C3F904E05D
:1016F0000B4801784AA006F0BDF900214E4801F0E0
:1017000085FD01F0E1FE02F08BF802F008F900BF60
:10171000FEE70000100C0140303A0000B413002036
:1017200074000020665F6D6F756E74204552524FD5
:101730005221C7EBB8F8BFAAB7A2B0E5B2E5C8EB33
:101740005344BFA8C8BBBAF3D6D8D0C2B8B4CEBB36
:10175000BFAAB7A2B0E521000D0A20B0B4D2BBB435
:10176000CE4B455931BFAACABCC9D5D0B4D7D6BF14
:10177000E2B2A2B8B4D6C6CEC4BCFEB5BD464C419A
:101780005348A1A3200D0A000D0A20D7A2D2E2B827
:10179000C3B2D9D7F7BBE1B0D1464C415348B5C429
:1017A000D4ADC4DAC8DDBBE1B1BBC9BEB3FDA3A1F2
:1017B000A3A1200D0A000000000801400D0A20D559
:1017C000FDD4DABDF8D0D0D5FBC6ACB2C1B3FDA311
:1017D000ACCAB1BCE4BADCB3A4A3ACC7EBC4CDD0F3
:1017E000C4B5C8BAF22E2E2E0D0A0000303A2F735F
:1017F0007263646174612F6275726E5F696E666F89
:101800002E74787400000000A3A1A3A1C9BEB3FD8B
:10181000CEC4BCFEB3C9B9A6A3BA282564290A0060
:10182000A3A1A3A1C9BEB3FDCEC4BCFECAA7B0DCB0
:10183000A3BA282564290A008C000020704700BF45
:10184000FEE700BFFEE700BFFEE700BFFEE7704710
:1018500070477047704710B501F0D1FB10BD000014
:1018600008B501210820FFF723FA2020ADF8000079
:1018700010208DF8030003208DF8020069460F4800
:10188000FEF75AFF0120ADF8000069460B48FEF74D
:1018900053FF0220ADF8000069460848FEF74CFFF0
:1018A00020210648FEF7F5FF01210448FEF7F1FF6D
:1018B00002210248FEF7EDFF08BD0000000C0140C8
:1018C00000B585B001210420FFF7F2F9012188035A
:1018D000FFF7EEF94FF40070ADF8100018208DF806
:1018E000130003208DF8120004A92248FEF724FFFC
:1018F0004FF48060ADF8100004208DF8130004A9A7
:101900001C48FEF719FF4FF4E13000900020ADF8BD
:101910000400ADF80600ADF80800ADF80C000C208E
:10192000ADF80A0069461448FFF7D9FC01211248B6
:10193000FFF761FD05B000BD70B504460D46E1B28C
:101940000D48FFF7C5FD00BF80210B48FFF72EFEB5
:101950000028F9D0204670BD10B5044600BF2021F4
:101960000548FFF723FE0028F9D00348FFF7B4FD30
:1019700010BD0000000801400038014008B50020FB
:10198000FFF725FA0020FFF725FAFFF7F5F9002108
:101990004FF48060FFF77FF94FF4F850ADF8000086
:1019A00004208DF803006946FC48FEF7C5FE0420BC
:1019B000ADF800006946FA48FEF7BEFE08BD08B55E
:1019C0004FF4C060FEF7C0FC31208DF8000000200D
:1019D0008DF801008DF8020001208DF803006846A3
:1019E000FEF7B7FC08BD10B5EE48FEF703FE10BDCC
:1019F00030B58BB005460C46EB48FEF70FFE0021D4
:101A0000EA48FEF7DCFDEA480090019500200290CC
:101A1000A00803900020049080200590800006908C
:101A200080000790002008904FF40050099000209B
:101A30000A906946DD48FEF797FD0121DB48FEF775
:101A4000BEFD0BB030BD30B58BB005460C46D64858
:101A5000FEF7E4FD0021D548FEF7B1FDD448009023
:101A6000019510200290A00803900020049080208F
:101A700005908000069080000790002008904FF4A9
:101A80000050099000200A906946C848FEF76CFD96
:101A90000121C648FEF793FD0BB030BD08B501210A
:101AA0003020FFF705F94FF4F850ADF8000003209F
:101AB0008DF8020018208DF803006946B748FEF73C
:101AC0003BFE0420ADF800006946B548FEF734FE41
:101AD00001218802FFF7DFF801210220FFF7DBF880
:101AE00008BD014600BFB2488038406B00F0450099
:101AF0000028F8D040F2FF50AD4A803A906310467B
:101B0000406908221040C0B270472DE9FC410746E9
:101B10000D46002600240020009001900820A549D1
:101B2000086010204860402088600020C8604FF4A2
:101B3000806008610846FFF76DF91020FFF7D1FFBC
:101B4000044614B12046BDE8FC819B48008800048F
:101B50009849086037204860402088600020C860AD
:101B60004FF4806008610846FFF754F93720FFF70B
:101B7000B8FF04460CB12046E5E74FF0FF308F492F
:101B8000086008204860302088600220C86000207B
:101B90000861012048610846FFF765F90020854982
:101BA000086033204860402088600020C8604FF4FF
:101BB000806008610846FFF72DF93320FFF791FF99
:101BC00004460CB12046BEE70CE04FF40010FFF7CE
:101BD00098F938B1FFF769F94DF82600761C012E07
:101BE00000D907E072488038406B40F22A61084013
:101BF0000028EAD000BF0820FFF783F928B10820A9
:101C0000FFF789F9042420469DE70220FFF779F9C0
:101C100028B10220FFF77FF90224204693E7202015
:101C2000FFF76FF928B12020FFF775F90624204649
:101C300089E74FF40070FFF764F930B14FF400709A
:101C4000FFF769F9072420467DE740F2FF50FFF7D0
:101C500062F900980006009901F47F4140EA0120F2
:101C6000009901F47F0140EA1120009940EA1160D7
:101C7000686001980006019901F47F4140EA012063
:101C8000019901F47F0140EA1120019940EA1160B5
:101C90002860204657E77CB50546002400200090C8
:101CA0000190FFF7D5F800F0007010B10E24204627
:101CB0007CBD4149098888B26946FFF726FF044682
:101CC0000CB12046F4E7012D36D1019800F48020B4
:101CD00000282ED038480088000436490860372094
:101CE0004860402088600020C860A802086108465B
:101CF000FFF790F83720FFF7F4FE04460CB12046BA
:101D0000D6E702202B490860062048604020886002
:101D10000020C8604FF4806008610846FFF77AF839
:101D20000620FFF7DEFE04460CB12046C0E7204641
:101D3000BEE725242046BBE7019800F48030F8B3C5
:101D40001D48008800041B49086037204860402077
:101D500088600020C8604FF4806008610846FFF783
:101D600059F83720FFF7BDFE04460CB120469FE727
:101D7000002010490860062048604020886000204C
:101D8000C8604FF4806008610846FFF743F80620FA
:101D9000FFF7A7FE0446A4B1204689E700100140E2
:101DA000001401400020001000F000104404024024
:101DB00080800140580300207C0000206C0300203C
:101DC00001E0204674E72524204671E770B50446FB
:101DD0000025FA480068032802D12725284670BD4F
:101DE000F648006838B1F5480068012803D0F34888
:101DF000006802282ED1B4F5805F02D1272528463D
:101E0000EDE7B4F5006F14D10120FFF744FF05465C
:101E100005BB0120EA490875002008604860886019
:101E20004FF40060C860002008610846FEF7B2FF6A
:101E300010E00020FFF72FFF05465DB90120E049C3
:101E400008750020086048608860C860086108461E
:101E5000FEF7A0FF2846C2E770B504460025D94822
:101E600004600720D7494860402088600020C8608F
:101E70004FF4806008610846FEF7CCFF0720FFF7AB
:101E800030FE0546284670BDF0B501460020002210
:101E9000CA4B1B7881F85630CB4B1B88A1F85430C5
:101EA000CA4B1B681A0E93090B70C2F383034B7065
:101EB00002F003038B70C54B1B68C3F30742CA7063
:101EC000C24B1B88C3F307220A71C04B1A784A71B0
:101ED0005B681A0E1301CB80BC4B5B68C3F30742EF
:101EE000CB8843EA1213CB8002F00F030B72B74B7F
:101EF0009B88C3F30722D3094B72C2F380138B7202
:101F0000C2F34013CB72C2F300130B7300234B7365
:101F1000AA4B1B681BB1A94B1B68012B4FD1930720
:101F20001B0D0B61A94B1A790B6943EA82030B6104
:101F3000A64B9B681A0E0B6943EA92130B61C2F31E
:101F4000C2030B7502F007034B75A04B9B68C3F3EC
:101F5000074253098B75C2F38203CB7593075B0F5E
:101F60000B769A4B1B89C3F307220B7E43EAD213ED
:101F70000B760B695B1C0024C1E912340B7ED1E99E
:101F800012649B1C012505FA03F3DF17A6FB035C13
:101F900004FB03C306FB0733C1E912530C7A012388
:101FA000A3400B650027D1E912560B6DA5FB034C2E
:101FB00006FB03C305FB0733C1E912432DE07F4B4A
:101FC0001B68022B29D1814B1A7993069B0A0B615E
:101FD0007E4B9B681A0E0B6943EA02230B617B4B15
:101FE0009B68C3F307420B6913430B61774B1B8953
:101FF000C3F307220B695B1C4FF40074A3FB04348A
:102000004FF480660025A3FB067C04FB06C403FB9B
:102010000543C1E9127373100B65C2F3801301F815
:10202000193F93065B0E4B70684B1A7A4B7843EA64
:10203000D2134B7002F07F038B70644BDB681A0E77
:10204000D309CB70C2F341130B71C2F382034B71FE
:1020500093071B0F8B715D4BDB68C3F307428B79D2
:1020600043EA92138B71C2F34013CB7100230B72BE
:1020700002F001034B72554B9B89C3F30722D3092E
:102080008B72C2F38013CB72C2F340130B73C2F393
:1020900000134B73C2F381038B7302F00303CB7302
:1020A0004A4B1A7B53080B7401234B74484B1B6833
:1020B0001A0ECA741939464B1B68C3F3074214023F
:1020C000CC85434B1B88C3F30722CB8D1343CB85B1
:1020D0003F4B1A7814060C635B681A0E0B6B43EACD
:1020E00002440C633A4B5B68C3F307420B6B43EA51
:1020F00002240C63364B9B88C3F307220B6B1343FC
:102100000B63334B1A7934235A54314B9B681A0EA4
:1021100035235A542E4B9B68C3F3074214068C6335
:102120002B4B1B89C3F307228B6B43EA02448C635E
:10213000274B1A7A8B6B43EA02248C63244BDB68AF
:102140001A0E8B6B13438B63214BDB68C3F307427F
:102150003C235B5C43EA12143C235C5413071C0DC4
:10216000CC871B4B9B89C3F30722CB8F1343CB87B1
:10217000174B1A7B540840235C54012441235C54C0
:10218000F0BD70B500251348446B01E01148446B65
:1021900004F045000028F9D004F0040028B103251C
:1021A0000420FEF7B8FE284670BD04F0010098B187
:1021B00001250120FEF7AFFE2846F5E77800002054
:1021C00040030020580300207C000020B8020020BB
:1021D000C80200200080014040F2FF50FEF79BFE45
:1021E0002846E1E72DE9F04106460F464FF000088A
:1021F000FA48456B01E0F948456B05F045000028B9
:10220000F9D005F0040038B14FF003080420FEF7C0
:1022100082FE4046BDE8F08105F0010030B14FF08C
:1022200001080120FEF777FE4046F3E7FEF70CFEBB
:10223000B04203D04FF010084046EBE740F2FF50A9
:10224000FEF769FE0020FEF703FE044604F460403A
:1022500018B9200C38804046DCE704F4005008B17F
:102260001320D7E704F4804008B11020D2E704F42B
:10227000004008B10F20CDE74046CBE738B5002439
:1022800001200090FEF7B1FD10B92524204638BD8D
:10229000D3480068042828D00020D24908600220D2
:1022A0004860C02088600020C8604FF480600861EA
:1022B0000846FEF7AFFDFFF764FF04460CB1204669
:1022C000E5E70020FEF7C4FDC74908600420FEF7DB
:1022D000BFFDC54948600820FEF7BAFDC2498860C5
:1022E0000C20FEF7B5FDC049C860BD48006858B174
:1022F000BB480068012807D0B9480068062803D009
:10230000B7480068022816D10020B64908600320AB
:102310004860402088600020C8604FF480600861F9
:102320000846FEF777FD69460320FFF75BFF04468A
:102330000CB12046ABE7AA48006804282ED0BDF8AF
:102340000000AA490860BDF800000004A549086023
:1023500009204860C02088600020C8604FF4806079
:1023600008610846FEF756FDFFF70BFF04460CB167
:1023700020468CE70020FEF76BFD9D490860042095
:10238000FEF766FD9A4948600820FEF761FD98490E
:1023900088600C20FEF75CFD9549C860002420464B
:1023A00075E770B500258D48446B01E08B48446BA0
:1023B00004F045000028F9D004F0040028B10325FA
:1023C0000420FEF7A8FD284670BD40F2FF50FEF73E
:1023D000A2FD2846F8E770B500264FF480357F4807
:1023E000446B02E06D1E7D48446B04F0450008B963
:1023F000002DF7D115B104F0040028B10326042004
:10240000FEF789FD304670BD04F0400028B100267B
:102410004020FEF780FD3046F5E73046F3E770B523
:1024200000254FF4803400E0641E24B18020FEF7C4
:1024300068FD0028F8D014B90325284670BD40F285
:10244000FF50FEF768FD2846F8E72DE9F04100242B
:10245000002600250027A046B22066490875002006
:10246000086048608860C86008610846FEF792FC12
:102470000320FEF7AFFC0120FEF7A9FC002059491C
:10248000086048608860C8604FF480600861084652
:10249000FEF7C0FCFFF7C3FF044614B12046BDE8B9
:1024A000F0814FF4D5704F49086008204860402003
:1024B00088600020C8604FF4806008610846FEF71D
:1024C000A9FCFFF788FF04462CB9012044490860A5
:1024D0004FF0804812E000204249086037204860F1
:1024E000402088600020C8604FF480600861084682
:1024F000FEF790FC3720FFF7F4FA04460020394934
:10250000086037204860402088600020C8604FF491
:10251000806008610846FEF77DFC3720FFF7E1FA8E
:102520000446002C4AD136E000202E4908603720AE
:102530004860402088600020C8604FF480600861D7
:102540000846FEF767FC3720FFF7CBFA04460CB1CC
:102550002046A4E7284848EA0000224908602920CC
:102560004860402088600020C8604FF480600861A7
:102570000846FEF74FFCFFF714FF04460CB1204657
:102580008DE70020FEF764FC0646012080EAD67045
:1025900080F001076D1C1FB94FF6FF708542C3D351
:1025A0004FF6FF70854202D31B24204677E706F0E2
:1025B0008040061E02D002200949086020466EE7CE
:1025C00010B50024FFF7FBF9FFF768FAFEF7D4FB1C
:1025D000FFF73BFF04468CB1204610BD0080014050
:1025E0007800002058030020C80200207C00002052
:1025F000B80200204003002000001080FFF73EFEDC
:1026000004460CB12046E8E70120FD49087500208A
:10261000086048608860C86008610846FEF7BAFB39
:102620001CB9F848FFF730FC044634B9F549B1F855
:1026300054100804FFF710FC044624B94FF400605E
:10264000FFF7C4FB04462046C7E770B504460025E3
:10265000ED4800880004ED49886040F24D40C860B4
:102660000D20FFF73EFA05460DB1284670BDE7483C
:10267000406920602846F9E708B5002000906846C8
:10268000FFF7E3FF08B1FF2008BD0098C0F3432027
:10269000FAE710B50424FFF7EFFF0446042C01D13C
:1026A000002010BDFF2C01D10220FAE70120F8E73D
:1026B00010B500240020FEF78DFB204610BD70B53C
:1026C0000446002500260020FEF7C2FB00F0007043
:1026D00010B10E25284670BD4020CD49086010205D
:1026E0004860402088600020C8604FF48060086126
:1026F0000846FEF78FFB1020FFF7F3F905460DB1F2
:102700002846E8E7C04800880004C149086037202F
:102710004860402088600020C8604FF480600861F5
:102720000846FEF777FB3720FFF7DBF905460DB1CA
:102730002846D0E74FF0FF30B64908604020486097
:10274000602088600220C860002008610120486184
:102750000846FEF788FB0020AD4908600D20486060
:10276000402088600020C8604FF4806008610846FF
:10277000FEF750FB0D20FFF7B4F905460DB12846D2
:10278000A9E70EE04FF40040FEF7BBFB48B100267E
:1027900004E0FEF78AFB44F82600761C082EF8D3E6
:1027A00020349A48406B40F22A6108400028E9D062
:1027B0000820FEF7A6FB28B10820FEF7ACFB042595
:1027C000284688E70220FEF79CFB28B10220FEF78E
:1027D000A2FB022528467EE72020FEF792FB28B1C7
:1027E0002020FEF798FB0625284674E74FF400707A
:1027F000FEF787FB30B14FF40070FEF78CFB072526
:10280000284668E703E0FEF750FB2060241D4FF4E4
:102810000010FEF776FB0028F5D140F2FF50FEF7DE
:102820007AFB284657E770B50446002600257A480B
:10283000FFF745FF06460EB1304670BD764800787A
:102840008509257074480078C0F34015657072489A
:102850008578280260807048C57860882843608049
:102860006D480579280660606B484579606840EAE4
:102870000540606068488579606840EA05206060CE
:102880006548C5796068284360606348057A2572A9
:10289000457A6572807A0509A5725F48C57A280273
:1028A000A0815D48057BA0892843A0815A48407BD0
:1028B0008508A5735848407B00F00305E573304652
:1028C000BBE72DE9F041804614461D46069E0027D1
:1028D00000205249087052490860524908604B492B
:1028E000C86251480068022808D10602020200238B
:1028F0002046294604F024FF04460D46444806605D
:10290000102043494860402088600020C8604FF490
:10291000806008610846FEF77DFA1020FFF7E1F8B5
:10292000074617B13846BDE8F0814FF0FF3039490E
:10293000086008464660902088600220C860002039
:102940000861012048610846FEF78DFA30480460AE
:1029500011202F494860402088600020C8604FF453
:10296000806008610846FEF755FA1120FFF7B9F8B4
:1029700007460FB13846D6E701210802FEF73AFABA
:102980000120FEF744FA31464046FFF731F8384659
:10299000C9E72DE9F047814614461D46DDE9086880
:1029A000002700201D4908701D49086001201D49AD
:1029B000086000201549C8621B480068022808D139
:1029C0000602020200232046294604F0B9FE04460E
:1029D0000D460F48066010200D4948604020886071
:1029E0000020C8604FF4806008610846FEF712FAC4
:1029F0001020FFF776F80746C7B13846BDE8F087E4
:102A000040030020E80200207C00002000800140FC
:102A1000580300206C030020D8020020840000200E
:102A20008800002080000020780000204FF0FF3058
:102A3000F949086008FB06F0486090208860022091
:102A4000C86000200861012048610846FEF70BFAC3
:102A5000F24804601220F14948604020886000205C
:102A6000C8604FF4806008610846FEF7D3F9122071
:102A7000FFF737F8074617B13846BDE8F087012160
:102A80000802FEF7B7F90120FEF7C1F908FB06F1CD
:102A90004846FEF7ADFF3846EFE710B5002400BF0B
:102AA000FEF7A1FF30B9DE48006818B9DD480078AC
:102AB0000028F5D0DB48007810B1DA48007810BD66
:102AC0002046FCE72DE9F041804614461D46069E4F
:102AD00000270020D3490870D1490860D249086016
:102AE000D249C862D2480068022808D10602020210
:102AF00000232046294604F023FE04460D46C7481D
:102B000006601020C5494860402088600020C860E9
:102B10004FF4806008610846FEF77CF91020FEF74C
:102B2000E0FF074617B13846BDE8F081BB480460B6
:102B30001820BA494860402088600020C8604FF4DF
:102B4000806008610846FEF765F91820FEF7C9FFA6
:102B500007460FB13846E7E74FF0FF30AE4908604F
:102B600008464660902088600020C8600861012007
:102B700048610846FEF777F901210802FEF73AF9A5
:102B800031464046FEF75FFF0120FEF740F9384628
:102B9000CAE72DE9F843814615461E46DDE9087867
:102BA0000024002000909F4908709D490860012082
:102BB0009D49086000209D49C8629D480068022820
:102BC00008D10702020200232846314604F0B8FD6E
:102BD00005460E4691480760102090494860402005
:102BE00088600020C8604FF4806008610846FEF7E6
:102BF00011F91020FEF775FF044614B12046BDE818
:102C0000F8838C48008800048449086037204860B5
:102C1000402088600020C8604FF48060086108464A
:102C2000FEF7F8F83720FEF75CFF04460CB12046AB
:102C3000E5E77A48C0F800801720784948604020CE
:102C400088600020C8604FF4806008610846FEF785
:102C5000E1F81720FEF745FF04460CB12046CEE709
:102C60006E48056019206D4948604020886000204A
:102C7000C8604FF4806008610846FEF7CBF8192061
:102C8000FEF72FFF04460CB12046B8E74FF0FF30A7
:102C90006149086008FB07F04860902088600020C8
:102CA000C8600861012048610846FEF7DCF8012190
:102CB0000802FEF79FF80120FEF7A9F808FB07F1CC
:102CC0004846FEF7C0FE204699E710B5002400BF35
:102CD000FEF789FE30B95248006818B951480078AB
:102CE0000028F5D04F48007810B14E48007810BD4C
:102CF00040F2FF50FEF70FF92046F8E74B48406BD3
:102D000000F4405008B1012070470020FCE710B5E6
:102D1000002400204549886040F24C40C8600C20E7
:102D2000FEF7DFFE0446204610BD7CB504460025B4
:102D30000020019000903F48008800043749086057
:102D40000D204860402088600020C8604FF48060FB
:102D500008610846FEF75EF83448406B009002E0D8
:102D60003248406B0090009800F045000028F7D0F2
:102D7000009800F0040028B103250420FEF7CBF8EA
:102D800028467CBD009800F0010028B101250120F3
:102D9000FEF7C1F82846F4E7FEF756F800900098D1
:102DA0000D2802D010252846EBE740F2FF50FEF731
:102DB000B2F80020FEF74CF801900198C0F34320D0
:102DC00020701D490198084008B92846D9E70198A4
:102DD00000F0004008B11C20D3E7019800F08040CB
:102DE00008B10920CDE7019800F0005008B10A2091
:102DF000C7E7019800F0805008B10B20C1E70198A7
:102E000000F0006008B10C20BBE7019800F0806082
:102E1000A0B10D20B5E700006C030020580300208E
:102E200088000020840000208000002000800140F5
:102E3000780000207C00002008E0FFFD019800F0F1
:102E4000807008B10E209CE7019800F4000008B1E2
:102E50000F2096E7019800F4800008B1102090E759
:102E6000019800F4001008B111208AE7019800F4DD
:102E7000801008B1122084E7019800F4002008B106
:102E800013207EE7019800F4802008B1142078E731
:102E9000019800F4003008B1152072E7019800F4A1
:102EA000803008B116206CE7019800F4004008B1AA
:102EB000172066E7019800F4804008B1182060E709
:102EC000019800F4005008B119205AE7019800F069
:102ED000080008B11A2054E7284652E72DE9FC41C2
:102EE00005460E46002400270020019000905A4815
:102EF0004068202101EA105018B925242046BDE879
:102F0000FC8156484068C0B2801C5549B1FBF0F0C6
:102F100001900020FDF79CFF00F0007010B10E241E
:102F20002046ECE74F480068022801D16D0A760A76
:102F30004C48006838B14B480068012803D0494824
:102F4000006802282BD14848056020204649486087
:102F5000402088600020C8604FF480600861084607
:102F6000FDF758FF2020FEF7BCFD04460CB12046BB
:102F7000C5E73D48066021203B4948604020886005
:102F80000020C8604FF4806008610846FDF742FFEA
:102F90002120FEF7A6FD04460CB12046AFE7002035
:102FA0003149086026204860402088600020C860C1
:102FB0004FF4806008610846FDF72CFF2620FEF7DD
:102FC00090FD04460CB1204699E7002700E07F1CE5
:102FD00001988742FBD36846FFF7A7FE044603E04B
:102FE0006846FFF7A2FE04463CB99DF8000007289A
:102FF000F6D09DF800000628F2D020467FE710B5F5
:103000001A48006801280BD100201449886040F25A
:103010004C40C8600C20FEF764FD1549087002E0C2
:103020000020134908704FF48070FDF781FF0021E4
:103030004FF48070FDF7DEFE01200E4908600C4859
:10304000007810BD0146002002E04910421CD0B2B9
:103050000129FAD170470000B80200200080014029
:10306000C0D4010078000020580300208000002018
:10307000840000208800002008B501211420FDF7FD
:1030800017FE0120ADF8000004208DF8030069460A
:103090001148FDF751FB4FF40050ADF8000004203B
:1030A0008DF8030069460D48FDF746FB08BD70B575
:1030B00004460D4629462046FDF7D1FB012808D1DC
:1030C00000BF29462046FDF7CAFB0128F9D00120A0
:1030D00070BD0020FCE70000000801400010014026
:1030E00070B58CB00546284604F06DFB06460024FA
:1030F0000FE004F580513022684601F0E5F83246D1
:103100002946684604F094FB10B90B980CB070BDCA
:103110003034B4F5005FECDB4FF0FF30F6E7000031
:103120002DE9F0478046894601224946ED4802F0E4
:1031300042FE8246BAF1040F08D100BF3221EAA054
:1031400004F098FC00BF0020BDE8F0874FF4007049
:1031500004F026FF04464FF4007004F021FF0546FA
:1031600004B125B9ECA004F085FC0020ECE7494649
:10317000204604F02FFB2F21204604F034FB0646A6
:1031800000203070002737E0D64A4FF40071ED4838
:1031900004F089F8EB480078232800D12BE0E948B7
:1031A00004F011FB401EE74900220A540B46224658
:1031B000E5A1284604F06EFC2946404604F023FBB6
:1031C00050B9C84803F004F9204604F0C1FE28466F
:1031D00004F0BEFE0120B7E7C2488068C149C96853
:1031E000884201D1012000E0002018B1BD4803F061
:1031F000EFF802E000BF7F1CC6E700BF204604F0E6
:10320000A7FE284604F0A4FE00209DE72DE9F04724
:1032100092B0044689464FF0000ACD48109040F223
:10322000FF101190B9F1000F02D1CAA004F022FCE6
:10323000214601A803F0A9F90546002D73D12046C7
:1032400004F0C1FA074600BF0AA901A803F0E3F998
:10325000054615B99DF8310000B99CE0109800783A
:1032600008B1109801E00DF13100064630782E28A3
:1032700000D1E9E79DF8300000F01000002820D0D0
:10328000E0193246C1A104F005FCC1A004F0F2FB34
:103290002146CDA004F0EEFBD2A12046FFF740FF6F
:1032A000012804D12146D5A004F0E4FBCCE701219C
:1032B0002046FFF7ABFF05460020E055002D69D002
:1032C00069E0D6A1304604F09EFA20B1D7A130467D
:1032D00004F099FA00B9B7E7334622469AA1D648D6
:1032E00004F0D8FBBFA1D448FFF71AFF012807D18B
:1032F000A7A004F0BFFBD049D0A004F0BBFBA3E71C
:103300000122CD49774802F056FD7648D0F80C806E
:1033100003F05EF89EA004F0ADFBC749CFA004F017
:10332000A9FB314600E037E0D5A004F0A3FB4146FD
:10333000DBA004F09FFBE248026802F580520168BE
:10334000E0A004F097FB1322EBA1664802F033FDE6
:103350006448C16803F04CF8B74AA1A1614804F081
:1033600032F832469EA15F4804F02DF84246E1A1B2
:103370005C4804F028F8D248E6A10268594804F0F5
:1033800022F8584803F024F8CD4800684044CC495E
:10339000086000BF58E702E0E0A004F06BFBB9F161
:1033A000000F10D1E5A004F065FBC5480168F2A04C
:1033B00004F060FBC248026802F580524FF480516D
:1033C000FAA004F057FB284612B0BDE8F0872DE9BB
:1033D000FC4106460C4615460122C7A1414802F0B1
:1033E000EAFC002706E03F4A4FF40071554803F01D
:1033F0005AFF7F1C06EB8600B842F4D83948806833
:103400003849C968884201D1012000E0002010B18C
:103410000120BDE8FC81334A4FF40071494803F0B4
:1034200042FF484804F0CFF900F1010842464549FF
:10343000284604F0B6F9284604F0C5F9401E0021DC
:103440002954284A4FF400713E4803F02CFF3D48B0
:1034500004F0B9F9282801D9282003E0394804F0FC
:10346000B2F9401C804642463649204604F099F99C
:10347000204604F0A8F9401E00212154194A4FF4B7
:103480000071304803F00FFF2E4804F0EAF9A06203
:10349000144A4FF400712B4803F005FF294804F04B
:1034A000E0F9E0620F4802F093FF00BFD4E90A019F
:1034B00023462A46CDE9000140F23711C74804F0FF
:1034C000D9FA00BF0020A4E730B58DB00024A3E1F5
:1034D000594A01A92046FFF77AFF054605B19CE14C
:1034E0007EE10000E42300203C3C2D4255524E2D4D
:1034F00044454255472D3E3E205B25645DB2BBB43A
:10350000E6D4DABAF6C2D4CEC4BCFEA3ACD6B1BD02
:10351000D3B7B5BBD80A00003C3C2D4255524E2DC6
:103520004552524F522D3E3E20B4EDCEF3A3A16D35
:10353000616C6C6F63CAB1C4DAB4E6B2BBD7E3A303
:10354000A10A00000836002025732F257300000013
:10355000083800203C3C2D4255524E2D494E464FD6
:103560002D3E3E20D5FDD4DAC9FAB3C9C9D5C2BCB7
:10357000D0C5CFA2CEC4BCFE636174616C6F672EF0
:103580007478742E2E2E0D0A0A0000002F25730069
:103590003C3C2D4255524E2D494E464F2D3E3E202D
:1035A0002D2D2D2D2D2D2D2D2D2D2D2D2D2D2D2D4B
:1035B0002D2D2D2D2D2D2D2D2D2D2D2D2D2D2D2D3B
:1035C0002D2D2D2D2D0A00003C3C2D4255524E2D07
:1035D000494E464F2D3E3E20CEC4BCFEBCD0A3BAC1
:1035E00025730A00303A2F737263646174612F6926
:1035F000676E6F72652E7478740000003C3C2D423B
:1036000055524E2D494E464F2D3E3E20BAF6C2D45D
:10361000CEC4BCFEBCD0A3BA25730A006275726E1C
:103620005F696E666F2E74787400000069676E6F54
:1036300072652E7478740000083400203C3C2D42E2
:1036400055524E2D494E464F2D3E3E20BAF6C2D41D
:10365000CEC4BCFEA3BA25730A0000003C3C2D4238
:1036600055524E2D494E464F2D3E3E20D7CAD4B41A
:10367000CEC4BCFEC2B7BEB63A25730A0000000035
:103680003C3C2D4255524E2D494E464F2D3E3E203C
:10369000D7CAD4B4CEC4BCFEC3FB3A25730A00001B
:1036A0003C3C2D4255524E2D494E464F2D3E3E201C
:1036B000D7CAD4B4B4F3D0A13A25640A00000000FC
:1036C000940200203C3C2D4255524E2D494E464F0F
:1036D0002D3E3E20D2AAC9D5C2BCB5BDB5C4C6AB2D
:1036E000D2C6B5D8D6B73A2564A3ACBEF8B6D4B521
:1036F000D8D6B73A25640A00303A2F7372636461F2
:1037000074612F6275726E5F696E666F2E74787465
:103710000000000025640A0A000000003C3C2D4225
:1037200055524E2D4552524F522D3E3E20B4F2BFBF
:10373000AAC4BFC2BCCAA7B0DC0A00003C3C2D42F0
:1037400055524E2D494E464F2D3E3E202D2D2D2DAE
:103750002D2D2D2D2D2D2D2D2D2D2D2D2D2D2D2D99
:103760002D2D2D2D2D2D2D2D2D2D2D2D2D2D2D2D89
:103770002D0D0A0A000000003C3C2D4255524E2DF2
:10378000494E464F2D3E3E20CBF9D3D0C9D5C2BCC1
:10379000B5C4D7DCCAFDBEDDB4F3D0A13A256420A0
:1037A000A3A8BAACC4BFC2BCA3A90A003C3C2D422A
:1037B00055524E2D494E464F2D3E3E20C9D5C2BCD6
:1037C000BAF3D5BCD3C3B5C4B5D8D6B7BFD5BCE45E
:1037D0003A2564202D2025640A0000008C3103085E
:1037E0000020D749086004EB4400000100F5805137
:1037F000302201A800F0BAFCD249087008460078CF
:10380000012807D0D0A004F035F9CD480168DAA02E
:1038100004F030F9601CC4B25AE600BF0DB030BDF0
:10382000F0B5CDB0002700266FE0DA4A41A9304656
:10383000FFF7CDFD054605B168E0AFF2AC2004F01E
:1038400019F9D449D4A004F015F92020DB49086007
:10385000012008600220091D08600122CD49D848D6
:1038600002F0A9FA044674B1D6A004F003F92020AE
:10387000D249091D08600120091F08600220086064
:1038800020464DB0F0BDD8A004F0F4F84C9800F5F7
:1038900080570020AA4908602CE0A9480068401C15
:1038A000A749086040AB4FF480726946C44802F0F3
:1038B00041FB044674B12146D5A004F0DBF820207A
:1038C000BE49091D08600120091F08600220086028
:1038D0002046D6E7409800B90EE0409882B23946BB
:1038E000684600F043FC409807444098B0F5807F5C
:1038F00000D001E0002CD0D000BFD0A004F0BAF876
:10390000AF4802F065FD701CC6B28EE700BFD3A0C1
:1039100004F0B0F8DFA004F0ADF80020B1E72DE925
:10392000F04FADF50D7D4FF0000A0024A146F8E000
:10393000984A81A94846FFF74AFD8046B8F1000F32
:1039400000D0EFE081A8FFF7CBFB0546681C88B9E3
:1039500020209A49091D08600120091F08600220E3
:10396000086081A9DAA004F085F804200DF50D7D2A
:10397000BDE8F08F05F580508C90AFF2EC3004F08C
:1039800079F88449E1A004F075F881A9E8A004F071
:1039900071F8EFA08C9904F06DF8F6A08B9904F003
:1039A00069F801227B49864802F005FA06466EB1A5
:1039B00084A004F05FF820208049091D08600120E0
:1039C000091F0860022008603046CFE7DDF830A20A
:1039D00000217B4802F00CFD0020594908608AE074
:1039E00057480068401C5649086080AB4FF480720D
:1039F00040A9734802F09EFA06466EB1E5A004F0B5
:103A000039F820206D49091D08600120091F086050
:103A1000022008603046A9E7809800B96EE0514660
:103A20006846809A00F050FC8098824400245AE056
:103A300040A8005D1DF80410884253D0DEA004F0B9
:103A400019F82146E5A004F015F8EAA004F012F8F0
:103A500000BF0DF5807BEEA004F00CF800270FE00E
:103A60001BF80710F0A004F005F8781C0A2190FB61
:103A7000F1F201FB120010B945A003F0FBFF7F1C1F
:103A800080988742ECD342A003F0F4FF00BFE8A087
:103A900003F0F0FF00BFEB46DDA003F0EBFF0027D3
:103AA0000FE01BF80710E0A003F0E4FF781C0A21E8
:103AB00090FBF1F201FB120010B935A003F0DAFF20
:103AC0007F1C80988742ECD331A003F0D3FF00BF66
:103AD00020203A49091D08600120091F08600220C2
:103AE000086043E7641C80988442A1D38098B0F5B5
:103AF000807F00D002E0002E3FF472AF00BFD3A061
:103B000003F0B8FF20202D49086001200860022042
:103B1000091D08602A4802F05BFC09F1010000F071
:103B2000FF0905E700BF2020244908600120091D86
:103B300008600220091F086048A003F09BFF95E180
:103B4000900200208C0200203C3C2D4255524E2D0C
:103B50004552524F522D3E3E204275726E5F436178
:103B600074616C6F6720515350495F577269746577
:103B7000204552524F520A003C3C2D4255524E2D88
:103B80004552524F522D3E3E206C6F6F703D256462
:103B90000A000000083400203C3C2D4255524E2DB6
:103BA000494E464F2D3E3E20D7BCB1B8C9D5C2BC08
:103BB000C4DAC8DDA3BA25730A000000100C014066
:103BC000E42300203C3C2D4255524E2D4552524F8D
:103BD000522D3E3E20B4F2BFAACEC4BCFECAA7B04E
:103BE000DCA3A10A000000003C3C2D4255524E2DA2
:103BF000494E464F2D3E3E20D5FDD4DACFF2464CFD
:103C0000415348D0B4C8EBC4DAC8DD2E2E2E0A00CA
:103C10003C3C2D4255524E2D4552524F522D3E3E68
:103C200020B6C1C8A1CEC4BCFECAA7B0DCA3A17295
:103C30006573756C74203D2025640A003C3C2D4260
:103C400055524E2D494E464F2D3E3E20C4DAC8DD1A
:103C5000D0B4C8EBCDEAB1CF0A0000003C3C2D4205
:103C600055524E2D494E464F2D3E3E202A2A2A2A95
:103C70002A2A2A2A2A2A2A2A2A2A2A2A2A2A2A2AA4
:103C80002A2A2A2A2A2A2A2A2A2A2A2A2A2A2A2A94
:103C90000A0000003C3C2D4255524E2D494E464FE5
:103CA0002D3E3E20CBF9D3D0CEC4BCFEBEF9D2D13E
:103CB000C9D5C2BCCDEAB1CFA3A1A3A8B7C7CEC412
:103CC000BCFECFB5CDB3B2BFB7D6A3A90A000000E2
:103CD0003C3C2D4255524E2D494E464F2D3E3E20E6
:103CE000D0A3D1E9CAA7B0DCA3ACCEDEB7A8D4DAA2
:103CF000464C415348D6D0D5D2B5BDCEC4BCFEA3A8
:103D0000BA257320B5C4C4BFC2BC0A003C3C2D42D6
:103D100055524E2D494E464F2D3E3E20D7BCB1B890
:103D2000D0A3D1E9C4DAC8DDA3BA25730A00000024
:103D30003C3C2D4255524E2D494E464F2D3E3E2085
:103D4000C4DAC8DDC3FBA3BA2573200A0000000053
:103D50003C3C2D4255524E2D494E464F2D3E3E2065
:103D6000C4DAC8DDBEF8B6D4B5D8D6B7A3BA2564D0
:103D7000200A00003C3C2D4255524E2D494E464FE4
:103D80002D3E3E20C4DAC8DDB4F3D0A1A3BA256429
:103D9000200A00003C3C2D4255524E2D4552524FB8
:103DA000522D3E3E20B6C1C8A1CEC4BCFECAA7B0AB
:103DB000DCA3A10A000000003C3C2D4255524E2DD0
:103DC0004552524F522D3E3E20CAFDBEDDD0A3D1FA
:103DD000E9CAA7B0DCA3A10A000000003C3C2D42C8
:103DE00055524E2D4552524F522D3E3E206A3D2592
:103DF00064200A003C3C2D4255524E2D4552524FF4
:103E0000522D3E3E2074656D706275660A0000009A
:103E10003C3C2D4255524E2D44454255472D415272
:103E20005241592D3E3E0A00253032782020200094
:103E30003C3C2D4255524E2D4552524F522D3E3E46
:103E400020666C6173685F6275660A003C3C2D42B7
:103E500055524E2D494E464F2D3E3E20CAFDBEDDE9
:103E6000D0A3D1E9D5FDB3A3A3A10A0002A003F01A
:103E700001FE00207AE500003C3C2D4255524E2DBB
:103E8000494E464F2D3E3E20CBF9D3D0CEC4BCFE8A
:103E9000D0A3D1E9D5FDB3A3A3A1A3A8B7C7CEC42E
:103EA000BCFECFB5CDB3B2BFB7D6A3A90A00000000
:103EB00010B5F7A003F0DEFD002010BD10B50446DC
:103EC0004FF48050FC49086009E0FB490868411E36
:103ED000F94A116018B9FFF7EBFFC0B210BD02211B
:103EE000F648FDF782F90028EFD02146F348FDF7A8
:103EF00029F94FF48050F049086009E0EE4908685C
:103F0000411EED4A116018B9FFF7D2FFC0B2E5E7D4
:103F10000121EA48FDF769F90028EFD0E748FDF7ED
:103F200013F9C0B2DAE72DE9F0410024002500269C
:103F300000271021E248FCF7AEFC9F20FFF7BEFFF0
:103F4000FF20FFF7BBFF0546FF20FFF7B7FF064640
:103F5000FF20FFF7B3FF07461021D948FCF799FC73
:103F6000280440EA062040EA07042046BDE8F08124
:103F700000B587B000BF00BF01210803FCF798FE21
:103F800001210420FCF794FE1020ADF8040003206A
:103F90008DF8060010208DF8070001A9C848FCF72D
:103FA000CBFB01210420FCF783FE2020ADF80400A8
:103FB00018208DF8070001A9C148FCF7BDFB0121BD
:103FC0000420FCF775FE4020ADF8040001A9BC48B0
:103FD000FCF7B2FB01210420FCF76AFE8020ADF85B
:103FE000040001A9B648FCF7A7FB1021B448FCF770
:103FF00050FC0020ADF808004FF48270ADF80A00C4
:104000000020ADF80C000220ADF80E000120ADF844
:1040100010004002ADF812000820ADF81400002096
:10402000ADF816000720ADF8180002A9A348FCF768
:10403000B3FF0121A148FDF754F8FFF774FFA14930
:10404000884201D000BFFEE707B000BD10B50024D4
:1040500010219B48FCF71FFC0520FFF72FFF4FF4B2
:1040600080509549086000BFFF20FFF727FF0446F6
:1040700091490868411E904A116010B9FFF718FF76
:1040800010BD04F001000028EED110218C48FCF78F
:1040900000FC00BFF4E710B510218948FCF7FBFBDA
:1040A0000620FFF70BFF10218548FCF7F2FB10BD3F
:1040B00010B50446FFF7EFFFFFF7C8FF1021804857
:1040C000FCF7E9FB2020FFF7F9FEC4F30740FFF7F8
:1040D000F5FEC4F30720FFF7F1FEE0B2FFF7EEFEB6
:1040E00010217748FCF7D5FBFFF7B0FF10BD10B5E6
:1040F000FFF7D1FF10217248FCF7CDFBC720FFF777
:10410000DDFE10216E48FCF7C4FBFFF79FFF10BDDA
:1041100070B505460C461646FFF7BDFF10216848EE
:10412000FCF7B9FB0220FFF7C9FEC4F30740FFF715
:10413000C5FEC4F30720FFF7C1FEE0B2FFF7BEFEE5
:10414000B6F5807F01DD4FF4807603E02878FFF735
:10415000B5FE6D1C301EA6F101018EB2F6D1102104
:104160005748FCF796FBFFF771FF70BD2DE9F05F34
:1041700007460E4614464FF00008C146C2460025C9
:10418000AB4606F0FF0ACAF10000C5B22046E117AF
:1041900004EB1161C1F30728E11704EB1161091267
:1041A000A4EB012101F0FF09BAF1000F20D1B8F111
:1041B000000F05D1224631463846FFF7A9FF64E0DB
:1041C00009E04FF4807231463846FFF7A1FF06F54B
:1041D000807607F58077B8F10000A8F1010101F0C1
:1041E000FF08EED14A4631463846FFF791FF4CE0D2
:1041F000B8F1000F18D1A94510DDA9EB050000F0BA
:10420000FF0B2A4631463846FFF782FF2E442F44E3
:104210005A4631463846FFF77BFF36E022463146A4
:104220003846FFF775FF30E0601B84B22046E11787
:1042300004EB1161C1F30728E11704EB11610912C6
:10424000A4EB012101F0FF092A4631463846FFF769
:104250005FFF2E442F4409E04FF480723146384608
:10426000FFF756FF06F5807607F58077B8F1000076
:10427000A8F1010101F0FF08EED1B9F1000F04D05F
:104280004A4631463846FFF743FF0120BDE8F09F1C
:104290003C3C2D464C4153482D4552524F522D3EE9
:1042A0003E205350492054696D656F7574206572C6
:1042B000726F72210A000000980200200030014055
:1042C000000801401740EF0070B505460C46164641
:1042D00010215148FCF7DFFA0320FFF7EFFDC4F38C
:1042E0000740FFF7EBFDC4F30720FFF7E7FDE0B25F
:1042F000FFF7E4FD04E0FF20FFF7E0FD28706D1CF0
:10430000301EA6F10106F6D110214348FCF7C1FA90
:1043100070BD10B5002410213F48FCF7BCFAAB205B
:10432000FFF7CCFDFF20FFF7C9FDFF20FFF7C6FD1B
:10433000FF20FFF7C3FDFF20FFF7C0FD044610215B
:104340003548FCF7A6FA204610BD10B504461021EA
:104350003148FCF7A0FA0320FFF7B0FDC4F3074093
:10436000FFF7ACFDC4F30720FFF7A8FDE0B2FFF7AD
:10437000A5FD10BD10B5FF20FFF7A0FD10BD10B5C5
:1043800004464FF480502549086008E02349086836
:10439000411E224A116010B9FFF78AFD10BD0221AB
:1043A0001F48FCF722FF0028F0D021461C48FCF7EC
:1043B000C9FE4FF480501949086008E017490868A1
:1043C000411E164A116010B9FFF772FDE6E70121A0
:1043D0001348FCF70AFF0028F0D01148FCF7B4FEA0
:1043E000DCE710B510210C48FCF755FAB920FFF7AF
:1043F00065FD10210848FCF74CFA10BD10B51021DE
:104400000548FCF748FAAB20FFF758FD1021024899
:10441000FCF73FFA10BD00000008014098020020A0
:10442000003001400146012011B1012904D102E010
:1044300020F0010002E001E0012000BF00BF704752
:1044400070B50446012514B1012C09D107E0FEF72F
:10445000B7F810B925F0010500E0012502E001E000
:10446000012500BF00BF284670BD2DE9F04FADF516
:10447000017D81460C4615461E464FF0040B4FF059
:10448000000AB9F1000F03D0B9F1010F42D140E0A9
:1044900004F00300E8B1002711E02A466D1C012357
:1044A00001A90020FFF7E1FF074607B10BE04FF439
:1044B000007201A9204603F074F904F50074301E5F
:1044C000A6F10106E9D100BF38460DF5017DBDE832
:1044D000F08F4FF40070A5FB00713A460B46CDE912
:1044E00000062046FEF755FA8246BAF1000F07D1C2
:1044F000FEF7D3FA824600BFFEF7CBF80028FBD1C7
:10450000BAF1000F02D04FF0040B01E04FF0000BA6
:1045100003E002E04FF0040B00BF00BF5846D4E7B1
:104520002DE9F04FADF5017D81460C4616461D463E
:104530004FF0040B4FF0000A25B904200DF5017D62
:10454000BDE8F08FB9F1000F03D0B9F1010F3FD1F1
:104550003DE004F00300D0B1002711E04FF40072F9
:10456000214601A803F01DF93246761C012301A95A
:104570000020FFF7D5FF074607B105E004F50074FA
:10458000281EA5F10105E9D100BF3846D6E74FF452
:104590000070A6FB00713A460B46CDE900052046A7
:1045A000FEF7F7FA8246BAF1000F07D1FEF78DFB4E
:1045B000824600BFFEF76DF80028FBD1BAF1000F6C
:1045C00002D04FF0040B01E04FF0000B03E002E0DB
:1045D0004FF0040B00BF00BF5846AFE72DE9F0478E
:1045E00005460E4614464FF0040915B1012D21D1A0
:1045F0001FE0CEB1012E0BD0022E02D0032E14D11B
:1046000003E04FF4007020800FE0012020600CE0F8
:104610000D48D0F850C062460023D0E912713846E8
:1046200003F08EF8206000E000BF00BF4FF00009EB
:1046300003E002E04FF0040900BF00BF4846BDE8B8
:10464000F087024870470000E80200200000214681
:1046500070B503460C4603E014F8015B03F8015BF8
:10466000151EA2F10102F7D170BD30B5034601E07D
:1046700003F8011B141EA2F10102F9D130BDF0B5FF
:1046800003461C460D46002000BF161EA2F1010283
:1046900007D014F8017B15F801CBA7EB0C06301EF0
:1046A000F3D0F0BD024600E0521C107810B1107833
:1046B0008842F9D1107870472DE9F041044600276F
:1046C0002079F8B1E56A607801232A4604F13001C7
:1046D000FFF726FF08B1012714E000202071206AAF
:1046E000281AA16988420DD2E67809E0A06905443C
:1046F000607801232A4604F13001FFF711FF761E8E
:10470000022EF3D23846BDE8F08170B504460D465E
:104710000026E06AA84210D02046FFF7CDFF0646EB
:104720005EB9607801232A4604F13001FFF79DFE4F
:1047300010B14FF0FF350126E562304670BD70B50F
:1047400004462046FFF7B8FF0546002D59D12078D2
:1047500003284FD1607901284CD16289002104F1EE
:104760003000FFF782FF552184F82E12AA2184F829
:104770002F12522084F8300052213120015561213E
:1047800032200155412133200155722184F8141241
:1047900084F81512412184F81612612184F8171249
:1047A000217C84F81812208A010A84F819122069E1
:1047B000010C84F81A122069010E84F81B12217B67
:1047C00084F81C12A089010A84F81D12E068010C0B
:1047D00084F81E12E068010E84F81F12E069401C84
:1047E000E0626078012304F13001E26AFFF798FE8D
:1047F00000206071607800221146FFF7EFFE00B1E3
:104800000125284670BD0246891E5069801E8842D7
:1048100001D8002070479378906A01FB0300F9E704
:104820002DE9F05F04460D46022D02D36069A842CF
:1048300002D84FF001098FE04FF0FF3920780128AE
:1048400004D002283CD003287ED157E02F4607EB46
:1048500057076089B7FBF0F0216A00EB010A514667
:104860002046FFF752FF00B175E038467F1C618992
:10487000B0FBF1F201FB120104F1300010F80180ED
:104880006089B7FBF0F0216A00EB010A514620462F
:10489000FFF73BFF00B15EE06089B7FBF0F100FB82
:1048A000117104F13000405C48EA002805F0010075
:1048B00010B14FEA181001E0C8F30B0081464AE03E
:1048C000B4F80AA00AEBDA704010B5FBF0F0216AE8
:1048D00000EB010B59462046FFF717FF00B13AE005
:1048E00068006189B0FBF1F201FB120104F13000B4
:1048F0000E183078717840EA01292CE0B4F80AA04B
:104900004FEAEA700AEB90708010B5FBF0F0216A74
:1049100000EB010B59462046FFF7F7FE00B11AE005
:10492000A8006189B0FBF1F201FB120104F1300033
:104930000E18F0780006B17840EA0140717840EA3C
:1049400001203178084300E002E020F0704902E0E5
:104950004FF0010900BF00BF4846BDE8F09F2DE9B8
:10496000F05F04460E461746022E02D36069B0423D
:1049700002D84FF00208B3E02078012804D00228C2
:1049800052D0032872D172E0B14609EB590960890F
:10499000B9FBF0F0216A00EB010A51462046FFF70F
:1049A000B4FE8046B8F1000F00D098E0484609F107
:1049B00001096189B0FBF1F201FB120104F1300041
:1049C0000D1806F0010020B1F9B2287861F31F102C
:1049D00000E038462870012020716089B9FBF0F0B2
:1049E000216A00EB010A51462046FFF78EFE804601
:1049F000B8F1000F00D072E06089B9FBF0F100FB64
:104A0000119104F130000D1806F0010010B1C7F348
:104A1000071005E0287800F0F000C7F303210843F1
:104A20002870012020715AE0B4F80AA00AEBDA706D
:104A30004010B6FBF0F0216A00EB010B594620460E
:104A4000FFF763FE8046B8F1000F00D047E070002A
:104A50006189B0FBF1F201FB120104F130000D1885
:104A60002F70380A68700120207138E034E0B4F803
:104A70000AA04FEAEA700AEB90708010B6FBF0F0E3
:104A8000216A00EB010B59462046FFF73EFE8046A7
:104A9000B8F1000F00D022E0B0006189B0FBF1F264
:104AA00001FB120104F130000D18E8780006A97826
:104AB00040EA0140697840EA01202978084300F083
:104AC000704007432F70380A6870380CA870380E91
:104AD000E8700120207102E04FF0020800BF00BF23
:104AE0004046BDE8F09F2DE9F04104460E46022EF7
:104AF00002D36069B04201D8022727E0002721E0F5
:104B000031462046FFF78CFE054605B91DE0012D14
:104B100001D1022719E0681C08B9012715E000221D
:104B200031462046FFF71BFF074607B10DE020691D
:104B3000401C30B12069401C2061607940F00100C8
:104B400060712E466069B042DAD800BF3846BDE8D1
:104B5000F0812DE9F04704468946B9F1000F06D1EE
:104B6000E76817B16069B84215D8012713E04946D4
:104B70002046FFF755FE0646022E02D20120BDE870
:104B8000F087701C08B93046F9E76069B04201D976
:104B90003046F4E74F463D4600BF6D1C6069A842B1
:104BA00004D80225BD4201D90020E8E72946204665
:104BB000FFF736FE064606B909E0701C08B1012E63
:104BC00001D13046DBE7BD42E7D10020D7E700BF87
:104BD0006FF0704229462046FFF7C1FE8046B8F1CB
:104BE000000F08D1B9F1000F05D02A4649462046EA
:104BF000FFF7B5FE8046B8F1000F0BD1E5602069E4
:104C0000401C78B12069401E2061607940F00100AD
:104C1000607107E0B8F1010F02D14FF0FF3000E002
:104C2000012005462846AAE72DE9F04104460E4634
:104C3000E680A568012D03D020684069A84202D80B
:104C40000220BDE8F0812DB920680078032801D149
:104C50002068456A45B920680089B04201D8022021
:104C6000EFE72068476A24E021684889C11700EB14
:104C7000D16149112268927801FB02F812E02946BD
:104C80002068FFF7CDFD0546681C08B90120D8E76C
:104C9000022D03D320684069A84201D80220D0E742
:104CA000A6EB08064645EAD229462068FFF7ABFD89
:104CB0000746E5600FB90220C3E721684889C1179C
:104CC00000EBD1614911B6FBF1F139442161216852
:104CD0004889C11700EBD1614911B6FBF1F201FB24
:104CE00012612268303202EB411161610020A8E7B5
:104CF0002DE9F04104468846E088461CB0B208B170
:104D0000206910B90420BDE8F08121684889C117E5
:104D100000EBD1614911B6FBF1F201FB12610029F0
:104D200071D12069401C2061E06828B920680089A1
:104D3000B04268D80420E6E721684889C11700EB33
:104D4000D1614911B6FBF1F122689278521E1140EF
:104D5000002958D1E1682068FFF762FD0546012D62
:104D600001D80220CFE7681C08B90120CBE72068F2
:104D70004069A84241D8B8F1000F01D10420C2E730
:104D8000E1682068FFF7E5FE05460DB90720BAE7A0
:104D9000012D01D10220B6E7681C08B90120B2E755
:104DA0002068FFF789FC08B10120ACE721684A8937
:104DB00001F130000021FFF758FC29462068FFF779
:104DC00022FD2168C86200270EE0012021680871D9
:104DD0002068FFF771FC08B1012094E72068C06AE1
:104DE000401C2168C8627F1C20688078B842ECD8DB
:104DF0002068C06AC01B2168C862E5602946206837
:104E0000FFF701FD2061E68021684889C11700EBAA
:104E1000D1614911B6FBF1F201FB12612268303217
:104E200002EB4111616100206DE72DE9F04104467C
:104E30000E4600212046FFF7F7FE0546EDB9002794
:104E400000BF21692068FFF760FC054605B113E04B
:104E500060690078E52802D06069007820B9781C84
:104E60000746B04201D107E0002701212046FFF7A5
:104E70003FFF0546002DE4D000BF042D00D10725DB
:104E80002846BDE8F08110B502468C7ECB7E44EA10
:104E900003201378032B05D10C7D4B7D44EA0323BB
:104EA00040EA034010BD81760B0AC3760A0C0275F6
:104EB0000B0E437570472DE9F04780460C46A17EE6
:104EC000E07E41EA002010B10020BDE8F0872078A4
:104ED00000F03F00401E00EB800101EBC0064FF0E8
:104EE0000109002524E0F848405D205CF649495D51
:104EF0002144497840EA0127B9F1000F11D0FF2E73
:104F00000BD2384602F0EAFB82463146761C38F86E
:104F1000110002F0E3FB824501D00020D5E7B9463D
:104F200005E04FF6FF70874201D00020CDE76D1CF1
:104F30000D2DD8D3207800F0400038B1B9F1000F22
:104F400004D038F8160008B10020BEE70120BCE705
:104F5000F0B504468F7EC87E47EA002008B10020E5
:104F6000F0BD087800F03F00401E00EB800707EB23
:104F7000C002012600231AE0D348C05C085CD24F6F
:104F8000FF5C0F447F7840EA07254EB1FF2A01D32A
:104F90000020E5E72E461046521C24F8105005E08C
:104FA0004FF6FF70854201D00020D9E75B1C0D2B26
:104FB000E2D3087800F0400030B1FF2A01D300208E
:104FC000CEE7002024F812000120C9E7F0B504461E
:104FD0001D464D730F27CF7200270F738F76BC4687
:104FE00081F81BC0571E07EB870C0CEBC706002788
:104FF00038463B4600BF4FF6FF77B84203D03746EE
:10500000761C34F81700DFF8C0C21CF803C001F8A2
:105010000C000712DFF8B0C21CF803C08C448CF8F7
:10502000017008B94FF6FF705F1C3B460D2FE2D3AD
:105030004FF6FF77B84202D034F816700FB942F03D
:1050400040020A70F0BD2DE9FF4F83B0074691463C
:105050001E460B2238460499FFF7FAFA052E19D995
:10506000B04612E039F802BB00250CE0584668F360
:105070005F0080464FEA6B0B08F4803010B1934814
:1050800088EA00086D1C102DF0D3B9F80000002844
:10509000E8D14646072500BF06F00F0000F1300AB0
:1050A000BAF1390F03DD0AF1070000F0FF0A2846C4
:1050B0006D1E01A901F800A03609002EECD17E205A
:1050C000485500240BE0385D812807DB385DFE2859
:1050D00004DC681EA04200D106E0641C641CAC42E3
:1050E00002D2385D2028EED100BF00BF082D04D2C7
:1050F00028466D1C01A9095C00E020212046641CA3
:105100003954082CF2D307B0BDE8F08F30B5014612
:1051100000200B2200BF431003EBC01411F8015B09
:105120006319D8B2531E1A1EF5D130BD2DE9F047D0
:10513000044600212046FFF777FD074617B13846A1
:10514000BDE8F0874FF0FF09CA464FF6FF70208494
:1051500000BF21692068FFF7D8FA074607B157E07A
:1051600065692E780EB9042752E0E87A00F03F080E
:10517000E52E05D008F0080040B1B8F10F0F05D0BA
:105180004FF0FF094FF6FF7020843AE0B8F10F0F9F
:105190001CD1E06978B306F0400030B195F80DA05D
:1051A00026F04006B146E08820844E450AD1687B4F
:1051B000504507D12946E069FFF77DFE10B1A9F1FE
:1051C000010000E0FF2000F0FF091AE0B9F1000F34
:1051D00005D12846FFF79AFF504500D118E0A06995
:1051E000C07A00F0010038B90B222846A169FFF708
:1051F00046FA08B90CE004E04FF0FF094FF6FF70E3
:10520000208400212046FFF773FD0746002FA0D021
:1052100000BF384694E72DE9F05F04468A464FF018
:10522000FF09CB46042753E021692068FFF76DFA98
:10523000074607B14FE0666935780DB904274AE0A3
:10524000F07A00F03F08E52D0AD02E2D08D028F086
:105250002000082801D1012000E00020504502D0A4
:105260004FF0FF0929E0B8F10F0F1AD105F0400007
:1052700030B196F80DB025F04005A946E0882084AD
:105280004D450AD1707B584507D13146E069FFF79B
:105290005FFE10B1A9F1010000E0FF2000F0FF095E
:1052A0000BE0B9F1000F04D13046FFF72FFF58454E
:1052B00002D04FF6FF7020840DE000212046FFF75A
:1052C00017FD074627B106E00C80000821100100F9
:1052D00020690028A8D100BF0FB100202061384606
:1052E000BDE8F09F2DE9FE4F0446D4F81880D4F8AD
:1052F0001C900C2241466846FFF7AAF900BF9DF8B2
:105300000B0000F0010020B3002088F80B00E061E2
:1053100001260CE033464A4669464046FFF793FEB5
:105320002046FFF703FF054605B102E0761C642E18
:10533000F0D300BF642E02D10720BDE8FE8F042DFC
:1053400001D02846F9E79DF80B0088F80B00C4F857
:105350001C909DF80B0000F0020060B1002600E0F8
:10536000761C39F816000028FAD106F119000D2133
:10537000B0FBF1F700E0012739462046FFF755FD65
:10538000054645BB781E071E25D0E088C11B204678
:10539000FFF74AFC0546F5B9A069FFF7B7FE82465C
:1053A00000BF21692068FFF7B0F9054605B111E09B
:1053B000FAB253466169E069FFF708FE01202168EF
:1053C000087100212046FFF793FC054615B9781EA9
:1053D000071EE6D100BFC5B921692068FFF795F91E
:1053E000054695B9202200216069FFF73EF90B229E
:1053F000D4E90501FFF72CF9A069C07A00F0180084
:1054000061690873012021680871284695E770B525
:105410000446E688208C4FF6FF72904201D1304658
:1054200000E0208C01462046FFF7FEFB05460DBB41
:1054300000BF21692068FFF768F9054605B115E04E
:10544000202200216069FFF710F9E52061690870EA
:10545000012021680871E088B04200D306E00021F5
:105460002046FFF745FC0546002DE2D000BF042D85
:1054700000D10225284670BD2DE9F05F80460D461B
:1054800005F10907D8F81000002843D0D8F81440D7
:10549000002626E03046761C14F80090B9F1200F63
:1054A00000D11EE0B9F1050F01D14FF0E509092E39
:1054B00002D12E2007F8010BB9F1410F0EDBB9F133
:1054C0005A0F0BDC207B092E01D3102100E00821AC
:1054D000084018B109F1200000F0FF0907F8019B0E
:1054E00000BF0B2ED6D3E07A2872E07F0106A07FA2
:1054F00041EA0041607F41EA0020217F08432860A3
:10550000217E607E41EA0020A880A17DE07D41EA05
:105510000020E88000203870A86998B30026AF69A1
:10552000D8F8100060B3E86950B3B8F820004FF61F
:10553000FF71884224D0D8F81CB01BE000215046EF
:1055400002F092F88246BAF1000F01D1002616E06F
:10555000BAF1FF0F04DD4FEA2A223046761C3A5496
:10556000E869401EB04201D8002608E03046761CAB
:1055700007F800A03BF8021BB1F1000ADED100BF22
:105580000020B855BDE8F09F2DE9F34F83B0814668
:1055900004980068019002E00198401C0190019875
:1055A00000782F28F8D0019800785C28F4D0D9F83A
:1055B0001CA000252F4600BF38467F1C01990C5CBB
:1055C000202C03DB2F2C01D05C2C00D132E0FF2DEE
:1055D00003D3062005B0BDE8F08FE4B2812C13DBC5
:1055E000E0B2FE2810DC38467F1C01990E5C06EB09
:1055F000042084B2402E01DB7E2E05DD802E01DBEF
:10560000FE2E01DD0620E5E70121204602F02CF800
:1056100004460CB90620DDE7802C06DA2146F8A006
:10562000FFF740F808B10620D4E728466D1C2AF899
:105630001040C1E700BF0198C11904980160202CF7
:1056400001DA042000E00020804608E0681E3AF8F5
:105650001040202C02D02E2C00D002E06D1E002D18
:10566000F4D100BF0DB90620B4E700202AF81500D8
:105670000B222021D9F81800FEF7F7FF002700E0E1
:105680007F1C3AF817002028FAD03AF817002E2885
:10569000F6D00FB148F0030800E06D1E25B1681E7A
:1056A0003AF810002E28F8D10020064602904FF05C
:1056B000080B00BF38467F1C3AF8104004B963E07D
:1056C000202C03D02E2C04D1AF4202D048F0030886
:1056D000F0E70298584501D2AF4214D1BBF10B0F4D
:1056E00002D148F003084FE0AF4201D048F0030870
:1056F000AF4200D948E02F46082002904FF00B0B34
:10570000B006060ED6E7802C09DB204601F0E6FF46
:105710000021009001F0A8FF044648F00208FF2C89
:1057200011DDABF101000299884204D848F003086A
:10573000CDF808B0BEE72212D9F818300298411C03
:1057400002911A5419E024B12146B0A0FEF7AAFF35
:1057500018B15F2448F003080FE0412C04DB5A2CF9
:1057600002DC46F0020608E0612C06DB7A2C04DC41
:1057700046F00106A4F1200084B2D9F8183002984E
:10578000411C02911C5495E700BFD9F8180000781D
:10579000E52803D10520D9F818100870BBF1080FCF
:1057A00001D1B006060E06F00C000C2803D006F05E
:1057B0000300032801D148F0020808F0020058B99C
:1057C00006F00300012801D148F0100806F00C0093
:1057D000042801D148F00808D9F8180080F80B8097
:1057E0000020F7E62DE9F3410446019800782F28C0
:1057F00003D0019800785C2802D10198401C0190E8
:105800000020A06001980078202807D200212046BF
:10581000FFF70AFA05460020606128E000BF01A9F1
:105820002046FFF7B1FE054605B11FE02046FFF711
:105830007DFC0546A069C67A3DB1042D04D100BFA8
:1058400006F0040000B9052510E006F0040000B1E0
:105850000CE06769F87A00F0100008B9052505E04A
:1058600039462068FFF70FFBA060D8E700BF284645
:10587000BDE8FC8170B502464FF0FF301568E5B118
:10588000116800E0491C0D78202D02D30D783A2DC7
:10589000F8D10D783A2D0FD1146814F8015BA5F1F9
:1058A00030030A2B07D28C4205D1022B03D21846B3
:1058B0004D1C2946156070BD002000BFFBE770B588
:1058C00004460D4600202071401EE0622946204615
:1058D000FEF71BFF08B1032070BD94F82E1294F858
:1058E0002F0241EA00204AF65521884201D00220C9
:1058F000F2E794F86900010694F8680041EA004173
:1059000094F8670041EA002094F86610084320F0FC
:105910007F404049884201D10020DDE794F88500AE
:10592000010694F8840041EA004194F8830041EABA
:10593000002094F88210084320F07F4035498842C7
:1059400001D10020C8E70120C6E72DE9F74F8AB052
:1059500000210A9801600B98FFF78CFF09900998C5
:10596000002803DA0B200DB0BDE8F08F2A49099812
:1059700051F820400CB90C20F5E70A980460207813
:1059800078B16078FEF74EFD814609F0010040B91C
:105990000C9820B109F0040008B10A20E3E70020C8
:1059A000E1E700202070099860706078FEF748FDFC
:1059B000814609F0010008B10320D4E70C9820B11A
:1059C00009F0040008B10A20CDE7607804F10A026A
:1059D0000221FEF703FE38B96089B0F5007F03DBD2
:1059E0006089B0F5805F01DD0120BCE70027394602
:1059F0002046FFF764FF0546012D0FD0D5BB41E0DF
:105A0000222A3A3C3E3F7C7F000000002B2C3B3D8D
:105A10005B5D0000464154009C02002000261AE015
:105A200004F5F77000EB061898F8040070B198F8C8
:105A30000B00010698F80A0041EA004198F80900B5
:105A400041EA002098F80810084300E0002002A96D
:105A500041F82600761C042EE2D3002606B1761EFD
:105A600000BF02A850F826702FB139462046FFF734
:105A700026FF01E006E0022005461DB1701C064627
:105A80000428EED3032D01D101206CE70DB10D20C8
:105A900069E73B20015D94F83C0041EA0020618900
:105AA000884201D00D205EE74620015D94F8470052
:105AB00041EA002ABAF1000F0ED194F8570001060E
:105AC00094F8560041EA004194F8550041EA00205C
:105AD00094F8541040EA010AC4F818A04020005D70
