:020000040800F2
:1000000048FB0020FD010008752C0008772C000833
:100010007F2C0008812C0008832C000800000000C1
:100020000000000000000000000000006501000862
:10003000852C000800000000A9010008872C00089A
:10004000170200081702000817020008837202084E
:10005000170200081702000817020008170200081C
:1000600017020008EF3A02081702000817020008FA
:1000700017020008170200081702000817020008FC
:100080001702000817020008170200089F2C00083A
:100090009B2C00081702000817020008170200082E
:1000A00017020008170200081702000817020008CC
:1000B00017020008170200081702000817020008BC
:1000C00017020008170200081702000817020008AC
:1000D0001702000817020008F123020863560208FD
:1000E000170200081702000817020008170200088C
:1000F000170200081702000817020008170200087C
:1001000017020008554E00081702000817020008E1
:10011000170200081702000817020008170200085B
:10012000170200081702000817020008574E0008BF
:10013000DFF80CD027F0F6FE00480047E32B00085C
:1001400048FB0020EFF30980704780F3098870476F
:10015000EFF30880704780F30888704740BA704713
:10016000C0BA7047224B19680868B0E8F00F80F3F6
:100170000988BFF36F8F4FF0000080F311884EF0B5
:100180000D0E70470000000006480068006880F30C
:10019000088862B661B6BFF34F8FBFF36F8F00DF81
:1001A00000BF00BF08ED00E0EFF30980BFF36F8FE1
:1001B0000F4B1A6820E9F00F106008B54FF050009F
:1001C00080F31188BFF34F8FBFF36F8F09F0FEFEEE
:1001D0004FF0000080F31188BDE8084019680868F6
:1001E000B0E8F00F80F30988BFF36F8F704700BF4E
:1001F00088000020EFF30580704700000648804724
:1002000006480047FEE7FEE7FEE7FEE7FEE7FEE7FB
:10021000FEE7FEE7FEE7FEE7C9020008310100083D
:100220000CB50022019200925248016841F48031DD
:1002300001604FF4A063016801F40031009101995D
:10024000491C0191009911B901999942F3D10168B2
:10025000890302D50121009100E000920099012953
:1002600030D145490A6842F010020A600A6822F05B
:1002700003020A600A6842F002020A6041684160B3
:1002800041684160416841F480614160416821F406
:100290007C114160416841F4E8114160016841F01E
:1002A0008071016001688901FCD5416821F003017A
:1002B0004160416841F0020141604168C1F3810140
:1002C0000229FAD10CBDABE710B52A48016841F00C
:1002D000010101604168294A114041600168284AD2
:1002E00011400160016821F480210160416821F41E
:1002F000FE0141604FF41F018160FFF7E4FF2149D7
:100300004FF00060086010BD10B51A4A506800F048
:100310000C011D4B1D4800290ED004290ED00829C0
:100320000ED003605168194AC1F30311121D515CCC
:100330000268CA40026010BD0360F3E70360F1E7A2
:10034000516801F47011536803F48033022404EB04
:10035000914133B153689B0307D50D4B594301605D
:10036000E0E70B4B59430160DCE7074B5943016061
:10037000D8E7000000100240002002400000FFF813
:10038000FFFFF6FE08ED00E000127A0000000020FA
:1003900000093D002A4908432A490860704770B5A2
:1003A0000F23C27801260178002A1ED0254A126840
:1003B00002F4E062C2F5E062120AC2F10404D34022
:1003C0004578A54082781A402A43120101F1E021C4
:1003D00081F80024007800F01F018E404009800061
:1003E00000F1E020C0F8006170BD01F01F00864000
:1003F0004809800000F1E020C0F8806170BD124A19
:10040000114001430F48001F016070470D4A121D43
:10041000002903D0116801431160704711688143BE
:10042000116070474FF0E021042804D0086920F0E3
:10043000040008617047086940F0040008617047D3
:100440000000FA050CED00E080FFFF1F10B5DB494E
:1004500088420AD144150121204601F0AAF820461D
:10046000BDE81040002101F0A4B8D54988420AD166
:1004700004150121204601F09CF82046BDE81040FB
:10048000002101F096B8CF4988420AD10121CC035E
:10049000204601F08EF82046BDE81040002101F012
:1004A00088B810BD10B54268C74B1A400C790B686C
:1004B00042EA0422134343608268C44B1A40D1E9E4
:1004C000024323434C7942EA440213438360C26AE5
:1004D00022F47002097C491EC9B242EA0151C1628C
:1004E00010BD00210160017141718160C160012175
:1004F00001747047002904D0816841F001018160D6
:100500007047816821F0010181607047002904D0A3
:10051000816841F4807181607047816821F4807145
:1005200081607047C9B2002A03D042680A43426022
:10053000704742688A4342607047816841F0080111
:1005400081607047014600208968090700D50120B5
:100550007047816841F004018160704701460020C6
:100560008968490700D501207047002904D08168B7
:1005700041F4A00181607047816821F4A00181608D
:100580007047014600208968490200D50120704764
:10059000426822F46042491E42EA4131416070479C
:1005A000002904D0416841F400614160704741680E
:1005B00021F400614160704770B5072609290AD906
:1005C000C568A1F10A0404EB4404A640B543A34066
:1005D0001D43C56007E0056901EB4104A640B54332
:1005E000A3401D4305611F23072A09D2446B521EF5
:1005F00002EB820293409C4391400C43446370BDE4
:100600000D2A09D2046BD21F02EB820293409C4355
:1006100091400C43046370BDC46A0D3A02EB820240
:1006200093409C4391400C43C46270BD002904D0A8
:10063000816841F4801181607047816821F48011E4
:1006400081607047C06C80B270475C484C30006875
:100650007047002904D0416841F4806141607047CF
:10066000416821F4806141607047002904D04168ED
:1006700041F4805141607047416821F480514160EC
:100680007047826822F4E0420A4382607047002982
:1006900004D0816841F4004181607047816821F491
:1006A000004181607047002904D0816841F4021143
:1006B00081607047816821F40211816070470146B2
:1006C00000208968890200D50120704770B507268F
:1006D00009290AD9C568A1F10A0404EB4404A6401B
:1006E000B543A3401D43C56007E0056901EB410424
:1006F000A640B543A3401D430561836BC3F301547A
:10070000121B921C02EB82021F249440A3439140CF
:100710000B43836370BD826B22F44012491E42EA90
:1007200001518163704708B500900098084400901B
:100730000098026008BD08B5009000980844283071
:1007400000900098006880B208BD4268204B1A40B3
:100750000A4342607047416282627047426822F0F9
:100760001F020A434260704714490831002804D030
:10077000086840F4000008607047086820F4000032
:10078000086070470246002012680A4200D001202B
:100790007047C9430160704710B5024600200B0A3C
:1007A0005468C9B20C401168194202D0002C00D024
:1007B000012010BD090AC9430160704700240140AF
:1007C00000280140003C0140FFFEF0FFFDF7F1FF73
:1007D000FFFD3FFF10B5012000F001FFBDE8104014
:1007E000002000F0FCBE2049086070471E49091F28
:1007F000086070471C498431086070471B4A1188A3
:1008000021F46071014311807047184A118821F06A
:100810007F0101431180704708B5144A2C3A1044F7
:1008200000900098016008BD08B510492C390844B3
:1008300000900098008808BD0B489C300068C0B24A
:1008400070470A480830018841F001010180704773
:100850000548A0300068C0B27047044808300188DD
:1008600041F002010180704704860D422C6C00406B
:1008700001684FF6FE721140016000210160416085
:100880008160C1607249724A0839904204D1486857
:1008900040F00F00486070476D4A1432904204D116
:1008A000486840F0F00048607047694A283290423A
:1008B00004D1486840F4706048607047644A3C3234
:1008C000904204D1486840F4704048607047604AE4
:1008D0005032904204D1486840F47020486070471C
:1008E0005B4A6432904204D1486840F4700048602A
:1008F0007047574A7832904204D1486840F070609F
:1009000048607047534A111F904204D1086840F074
:100910000F00086070474F4A1432904204D10868B3
:1009200040F0F000086070474A4A2832904204D1F3
:10093000086840F4706008607047464A3C32904254
:1009400004D1086840F4704008607047414A503252
:100950009042FAD1086840F470200860704730B5C2
:10096000026847F6F0739A430C6A8B682343D1E917
:1009700004452C4323438C692343CC6923434C6AAD
:1009800023438C6A234313430360CA6842600A68A6
:1009900082604968C16030BD0021016041608160B2
:1009A000C160016141618161C16101624162816235
:1009B0007047002904D0016841F0010101607047CF
:1009C00001684FF6FE72114001607047002A03D0A3
:1009D00002680A430260704702688A4302607047F7
:1009E00041607047406880B2704702460020D100E5
:1009F00003D518490839096802E01549083909681A
:100A0000114200D001207047C10003D51149091FD0
:100A1000086070470E490839486070470246002058
:100A2000D10003D50B490839096802E008490839A3
:100A30000968114200D001207047C10003D5054963
:100A4000091F086070470249083948607047000074
:100A50000800024008040240384900200860091DCF
:100A60000860091D0860091D0860344934481431C4
:100A70000860704730B5314A83790168002B2AD06D
:100A800013688B431360111D0B680468A3430B604C
:100A9000017911440B68046823430B60274C083428
:100AA0002168036899432160231D19680568A943DB
:100AB00019604179102905D011440A680068024381
:100AC0000A6030BD2168026811432160196800681E
:100AD0000143196030BD0079104402688A43026006
:100AE00030BD0021016001710C224271817170479B
:100AF000124910310A6802430A607047014600201B
:100B00000E4A143212680A4200D0012070470B4985
:100B100014310860704701460020084A12680A40F4
:100B2000064B14331B680B4202D0002A00D0012070
:100B3000704702491431086070470000000401400A
:100B4000FFFF0F008100A1F1C04100280CD043F24B
:100B5000D2020A60401C8000A0F1C0406FF07042D9
:100B60000260C1F8042170474FF0204343F2DB02DA
:100B70001A60EFE710B5182440234FF020414FF0E2
:100B8000FC32102805D041F8804F4B608A60CA6063
:100B900010BD0C664B668A66CA6610BDF748182100
:100BA0000160002141604FF0FC318160C160016152
:100BB000704710B5D0E901121143D0E903231A435D
:100BC00011434269114382691143C2691143026AA8
:100BD0001143426A1143826A1143C26A1143026B94
:100BE000114302689200A2F1C04211608168082995
:100BF00007D101688900A1F1C0410A6842F04002B2
:100C00000A60416BD1E9002342EA03128B688C89A8
:100C10001B0243EA04431A430B8A42EA03520B7D48
:100C2000896942EA03620A430168491C8900A1F10B
:100C3000C0410A60C16AB1F5804F08D000686FF00A
:100C400070418000A0F1C040C0F8041110BD816B5C
:100C5000D1E9002342EA03128B680C8A1B0243EAA3
:100C600004531A430B7D896942EA036200680A4310
:100C70008000A0F1C040C0F8042110BD30B5D0E91B
:100C800001121143D0E903231A431143426941EA97
:100C90004221826941EA423141F00804C169D1E947
:100CA000002342EA03220B89097B1B0443EA01610A
:100CB0000A43016AD1E9003543EA05230D89097B1E
:100CC0002D0445EA01610B4301684FF020401029D3
:100CD00004D040F8804F8260C36030BD04668266F5
:100CE000C36630BD10B5D0E9001241EA42218268E6
:100CF000102343EA42321143A04A1160C168D1E98E
:100D0000003443EA04230C89097B240444EA01618A
:100D10000B4393600169D1E9003443EA04230C8951
:100D2000097B240444EA01610B43D3604069D0E9A4
:100D3000001341EA03210389007B1B0443EA00609E
:100D40000143116110BD10B5002101600222426013
:100D50008160C160016141618161C1610162D20252
:100D6000426252008262C1620163436B0F221A60C9
:100D7000436B5A60446BFF23A360446BE260446B97
:100D80002261446B6261446BA161846B2260846B5D
:100D90006260846BA360836BDA60836B1A61836B20
:100DA0005A61806B816110BD10210160002141609A
:100DB0008160C160016141618161C269FC21116092
:100DC000C2695160C2699160C269D160026A1160F2
:100DD000026A5160026A9160006AC1607047002136
:100DE000016041608160C268FC211160C26851608D
:100DF000C2689160C268D160026911600269516085
:100E0000026991600269D160426911604269516072
:100E1000426991604069C16070478000A0F1C040A4
:100E2000002904D0016841F00101016070470168A8
:100E3000534A1140016070474FF0204200290CD006
:100E4000102805D052F8800F40F004001060704761
:100E5000106E40F00400106670474949C91E102802
:100E600004D052F8800F084010607047106E0840A0
:100E7000106670474FF02041002805D051F8A00FB0
:100E800040F004000860704751F8A00F3C4AD21EA1
:100E90001040086070474FF0204200290CD0102805
:100EA00005D052F8800F40F0400010607047106E7F
:100EB00040F040001066704731493F39102804D097
:100EC00052F8800F084010607047106E084010669E
:100ED00070474FF02041102802D0D1F8940070479D
:100EE000486F704710B54FF480744FF02043002ACC
:100EF00011D0102806D0A04208D153F8840F08431F
:100F0000186010BD586E0843586610BD53F8A40F02
:100F10000843186010BD102806D0A04208D153F82D
:100F2000840F8843186010BD586E8843586610BD02
:100F300053F8A40F8843186010BD034600204FF0FB
:100F40002042102B08D0B3F5807F07D0D2F8A42020
:100F50000A4200D001207047526EF9E7D2F884208F
:100F6000F6E74FF0204210280CD0B0F5807F0DD06E
:100F700052F8A40F8843106070470000A00000A042
:100F8000FEFF0F00506E88435066F5E752F8840F5D
:100F900088431060F0E7034600204FF02042102BFA
:100FA0000ED0B3F5807F0DD0D2F8A42002EA010361
:100FB00002EAD101002BDFD00029DDD00120DBE7E0
:100FC000526EF3E7D2F88420F0E74FF02042102869
:100FD00008D0B0F5807F0AD052F8A40F20EAD100E3
:100FE0001060C9E7506E20EAD1005066C4E752F89D
:100FF000840F20EAD1001060BEE7000010B59C49C4
:10100000884209D10121042000F0D3FA0021BDE873
:101010001040042000F0CDBA9649884209D1012140
:10102000082000F0C6FA0021BDE81040082000F0BA
:10103000C0BA9149884209D10121102000F0B9FAC3
:101040000021BDE81040102000F0B3BA8B4988425F
:1010500009D10121202000F0ACFA0021BDE81040A8
:10106000202000F0A6BA8649884209D101214020FB
:1010700000F09FFA0021BDE81040402000F099BA2E
:101080008049884209D10121802000F092FA002194
:10109000BDE81040802000F08CBA7B4988420AD11C
:1010A00084150121204600F084FA2046BDE8104056
:1010B000002100F07EBA10BD10B50121084600F0F5
:1010C00078FA0021BDE81040012000F072BA2DE945
:1010D000F0410022CC7804F00F03E40601D58C78AF
:1010E00023430C784FF00F0714F0FF0F4FF0010C63
:1010F0001CD005680CFA02F40E882640A64211D1D5
:10110000960007FA06F825EA080503FA06F848EA01
:101110000505CE78282E02D0482E02D002E0446188
:1011200000E00461521C082AE4D305600A88FF2A03
:101130001ED94568002202F108060CFA06F40E8852
:101140002640A64210D1960007FA06F825EA0805BF
:1011500003FA06F848EA0505CE78282E00D1446146
:10116000CE78482E00D10461521C082AE3D3456092
:10117000BDE8F0814FF6FF710180022181700421EA
:10118000C17070470246002092680A4200D00120D8
:101190007047806880B2704702460020D2680A42D9
:1011A00000D001207047C06880B27047016170476D
:1011B00041617047002A01D0016170474161704769
:1011C000C160704741F480328261816182618169CE
:1011D0008069704710B52D4B1A684FF68074224015
:1011E00042EA00100843186010BD2949C8617047E1
:1011F000F0B5264C002801DAE36900E06368C0F32B
:101200000346420D120185B2C0F301579540032FEA
:1012100007D0C2020CD50322B240934343F0706260
:1012200009E023F07062636823F07063636002E09A
:10123000AB4343F0706201B12A43002801DAE26156
:10124000F0BD6260F0BD10B58A07120F0F23934006
:1012500021F003040D4921448C689C438C608B6809
:10126000904003438B6010BD0949DC310860704732
:1012700000080140000C0140001001400014014032
:1012800000180140001C0140002001400000014006
:101290000000204210B501210C07204600F094F90F
:1012A0002046BDE81040002100F08EB921490862B7
:1012B00070472049086170471F4A116821F0E0011A
:1012C0000143116070471B49A031086070471A4BF9
:1012D0001A6822F0030202431A601848026842F0BA
:1012E00004020260012905D020BF016821F0040139
:1012F0000160704730BFF8E70F48016841F0040112
:101300000160016841F0020101600C48016841F090
:101310000401016030BF704701460020064A526850
:101320000A4200D00120704703490A6842EA80005F
:101330000860704700000E420070004010ED00E0B1
:10134000B448016841F0010101604168B24A1140AE
:1013500041600168B14A11400160016821F48021B7
:101360000160416821F4FE0141604FF41F0181607A
:101370007047A8490A6822F480320A600A6822F499
:1013800080220A60B0F5803F07D0B0F5802F03D1EE
:10139000086840F4A02008607047086840F4803076
:1013A000086070470346002059099A4A01290AD06B
:1013B00002290AD0516A03F01F02012393400B4215
:1013C00000D0012070471168F5E7116AF3E718B5FE
:1013D000002000904FF4A0643120FFF7E3FF009954
:1013E000491C00910099A14201D00028F4D031207D
:1013F000FFF7D8FF08B1012018BD002018BD854AAD
:10140000116821F0F80141EAC0001060704784497A
:10141000086070477F4B5A6822F47C1208431043DF
:10142000586070477E49086670477A4A516821F0D3
:1014300003010143516070477648406800F00C009A
:101440007047744A516821F0F001014351607047C0
:10145000704A516821F4E0610143516070476D4A60
:10146000516821F4605141EAC00050607047694AF8
:10147000002903D0517A014351727047517A814358
:10148000517270476649D83108607047614A5168A7
:1014900021F440410143516070475E4900222031F0
:1014A0000A7001F82029012805D0042802D105205E
:1014B00081F820007047012081F8200070475949C9
:1014C0000860704753490A6A02430A6270475549E7
:1014D00044390860704710B54E4A516801F00C015C
:1014E000514B002927D0042927D0082927D0036091
:1014F000516801F0F00109094C4B5C5C0168E14066
:101500004160546804F4E064240A1C5D21FA04F488
:101510008460546804F46054E40A1B5DD940C160DF
:10152000526802F44042920B404B1B1F9A5CB1FB85
:10153000F2F1016110BD0360DAE70360D8E751689A
:1015400001F47011536803F48033022404EB9141D9
:1015500033B153689B0307D5354B59430160C7E747
:10156000334B59430160C3E72F4B59430160BFE739
:10157000284A002903D051690143516170475169DC
:10158000814351617047234A002903D09169014387
:101590009161704791698143916170471D4A0029AB
:1015A00003D0D1690143D1617047D1698143D161D1
:1015B0007047184A002903D0D1680143D1607047B1
:1015C000D1688143D1607047124A002903D0116964
:1015D00001431161704711698143116170471149DD
:1015E0004039086070470E49C86470470949C8719E
:1015F00070470848416A41F0807141627047014676
:101600000020044A92680A4200D001207047014934
:1016100088727047001002400000FFF8FFFFF6FEDE
:10162000000042428004424200127A00180000206A
:1016300000093D00434A002903D01188014311806D
:10164000704711888143118070473E48001D018812
:1016500041F01001018070473A48001D018821F0D7
:1016600010010180704737481C3000883549183117
:10167000098840EA0140704700B50246FFF7E5FFE0
:101680003049100C18310880081D02805DF804EB09
:10169000E2E700B50246FFF7D8FF2A49C2F303404C
:1016A00008310880081D02805DF804EBD4E700B51E
:1016B0000246FFF7CAFF2349100C20310880081D9D
:1016C00002805DF804EBC7E71E4810300088000771
:1016D000010B1C4814300088084370471948001D4E
:1016E00001888906FCD570471648001D018821F045
:1016F0000801018001880907FCD5704701460020D8
:10170000104A121D12880A4200D0012070470D496C
:10171000091D0A8882430A8070470A49091D098801
:10172000C2B21140074A1288024202D009B1012018
:101730007047002070470349091D0A8882430A80C8
:1017400070470000002800406648002101604160A9
:101750008160C16041628162C162634A8263C16328
:10176000704730B55F4B596847F6FF629143027D81
:101770008468C568224344682C4322430468006996
:10178000224302430A435A6030BD002101750160C3
:1017900041608160C16001617047544908607047D1
:1017A00050490A6822F003020A600A6802430A608C
:1017B00070474C48006800F003007047494A002910
:1017C00003D0D16B0143D1637047D16B8143D163A7
:1017D000704747490860704710B5424902688A60FF
:1017E000CA686FF30A02D0E901342343D0E9034009
:1017F000044323431343CB6010BD002101604160CB
:101800008160C1600161704736480069C0B27047AD
:1018100008B534491431084400900098006808BDA8
:1018200010B5304902684A6242688A62CA6A22F088
:10183000F702D0E902342343D0E9044004432343B0
:101840001343CB6210BD4FF0FF31016000214160B6
:101850008160C1600161416170472248006B70473F
:1018600020488030006870471E498031086070470A
:101870001C48806C70471E491431086070471C4931
:101880001831086070471A491C31086070471849C0
:101890002031086070471749086070471549091DD5
:1018A0000860704701218143124808300160704789
:1018B00010490C310860704701460020094A526BFC
:1018C0000A4200D0012070470649886370470146EC
:1018D0000020044A526B0A4200D00120704701499F
:1018E0008863704700800140FF07C000A0003042BD
:1018F0008C053042AC01304210B5A94988420AD16A
:10190000841401212046FFF754FE2046BDE8104014
:101910000021FFF74EBEA34988420AD104140121D9
:101920002046FFF751FE2046BDE810400021FFF79A
:101930004BBE9D4988420AD1C41301212046FFF7BE
:1019400043FE2046BDE810400021FFF73DBE10BD1C
:1019500030B5028802F441530A884C88CD8822436E
:101960008C882C4322430C8922434C8922438C8946
:101970002243CC8922431A430280828B22F40062E4
:101980008283098A018230BDF0B585B005460C46D8
:10199000022000210126AA8B4FF240031A40AA839D
:1019A00002222A84AF8BA268022A21D0A08800B12B
:1019B00002266846FFF78FFD0098E188B1F5007FA9
:1019C0002CD07101B0FBF1F000EB8000A168400069
:1019D000B0FBF1F0401D80B20A21B0FBF1F000F045
:1019E0000101401AC0F34F004FF6FF7202EA0121D5
:1019F000821EFE2A01D302200021E288084302430E
:101A00002A8420886188A2890843A1881143084359
:101A1000384340F40060A88305B0F0BD000A00EB35
:101A20008000A1684000B0FBF1F0401D80B2D3E718
:101A30000021018041808180C180018141818181BB
:101A4000C18107210182704700210180418081808E
:101A5000C1800222826081817047002904D0018800
:101A600041F0400101807047018821F04001018070
:101A70007047002904D0818B41F4806181837047D5
:101A8000818B21F4806181837047090901238B4098
:101A900099B2002A03D082880A43828070478288E4
:101AA0008A4382807047002A03D082880A4382805A
:101AB000704782888A43828070478181704780891D
:101AC0007047A1F57E42FF3A04D0018841F480714D
:101AD00001807047018821F48071018070470029DE
:101AE00004D0818841F0040181807047818821F011
:101AF000040181807047028822F40062028002881B
:101B00000A4302807047018841F480510180704788
:101B1000002904D0018841F40051018070470188F8
:101B200021F4005101807047012901D0008B7047DA
:101B3000808A7047008A7047B1F5804F04D00188D1
:101B400021F4804101807047018841F48041018087
:101B500070470246002012890A4200D001207047D7
:101B6000C9430181704730B50246002001F00F03E0
:101B7000012505FA03F4A3B2090905FA01F4A4B298
:101B80009188214012891A4202D0002900D00120F8
:101B900030BD01F00F0201219140C943018170471E
:101BA0000030014000380040003C004010B5FE49C4
:101BB00088420AD1C41401212046FFF7FAFC2046CE
:101BC000BDE810400021FFF7F4BCB0F1804F0CD00D
:101BD000F649884213D101210220FFF7F5FC0021CC
:101BE000BDE810400220FFF7EFBC01210846FFF7D7
:101BF000EBFC0021BDE810400120FFF7E5BCEC49FB
:101C0000884209D101210420FFF7DEFC0021BDE854
:101C100010400420FFF7D8BCE649884209D10121D1
:101C20000820FFF7D1FC0021BDE810400820FFF795
:101C3000CBBCE149884209D101211020FFF7C4FC47
:101C40000021BDE810401020FFF7BEBCDB498842F0
:101C500009D101212020FFF7B7FC0021BDE8104089
:101C60002020FFF7B1BCD64988420AD14414012193
:101C70002046FFF79EFC2046BDE810400021FFF7FC
:101C800098BCD04988420AD10121CC042046FFF7F4
:101C900090FC2046BDE810400021FFF78ABCCA49ED
:101CA00088420AD101210C052046FFF782FC20461C
:101CB000BDE810400021FFF77CBCC44988420AD12E
:101CC00001214C052046FFF774FC2046BDE810407A
:101CD0000021FFF76EBCBE49884209D10121402096
:101CE000FFF772FC0021BDE810404020FFF76CBCFC
:101CF000B849884209D101218020FFF765FC002105
:101D0000BDE810408020FFF75FBCB34988420AD18C
:101D1000841501212046FFF757FC2046BDE81040FE
:101D20000021FFF751BCAD4988420AD101210C04C2
:101D30002046FFF73EFC2046BDE810400021FFF79B
:101D400038BCA74988420AD101214C042046FFF73C
:101D500030FC2046BDE810400021FFF72ABCA14915
:101D600088420AD101218C042046FFF722FC20463C
:101D7000BDE810400021FFF71CBC10BD30B5028843
:101D8000894C8F4DA0420DD0A8420BD0B0F1804FAE
:101D900008D0864B984205D0854B984202D0854B9F
:101DA000984203D122F070034A881A43824B98422A
:101DB00006D0824B984203D022F44073CA881A435B
:101DC00002808A8882850A880285A0420AD0A842B9
:101DD00008D0824A904205D0814A904202D0814A7E
:101DE000904201D1097A01860121818230BD30B54E
:101DF000028C22F001020284028C8388048B24F07E
:101E0000700424F003050C882C4322F002020D8993
:101E100015434A882A43644DA8420BD0684DA84216
:101E200008D06E4DA84205D06D4DA84202D06D4D30
:101E3000A8420FD122F008054A892A4322F004055E
:101E40008A882A4323F4807323F400738D891D4309
:101E5000CB892B4383800483C9888186028430BD6B
:101E600070B5028C22F010020284028C8388048BED
:101E700024F4E04424F440760D884FF6FF7404EA1D
:101E80000525354322F020020E8904EA0616164382
:101E90004A8804EA02123243434EB04202D0484E0E
:101EA000B04217D122F080024E8904EA061616438A
:101EB00026F040068A8804EA0212324323F4806343
:101EC00023F400638E8904EA86061E43CB8904EA64
:101ED0008303334383800583C9880187028470BDEF
:101EE00070B5028C22F480720284028C8388848B09
:101EF00024F0700424F003040D88254322F40072BA
:101F00000E894FF6FF7404EA062616434A8804EA4F
:101F100002223243244EB04202D0294EB04217D1A1
:101F200022F400664A8904EA0222324322F48066DF
:101F30008A8804EA0222324323F4805323F40053B4
:101F40008E8904EA06161E43CB8904EA0313334341
:101F500083808583C9888187028470BD70B5028CB7
:101F600022F480520284058C8288838B23F4E04320
:101F700023F440760C884FF6FF7303EA04243443BD
:101F800025F400550E8903EA06362E434D8803EAF0
:101F900005353543044EB04202D0094EB04226D139
:101FA00022F480468A891FE0002C01400004004092
:101FB00000080040000C00400010004000140040E9
:101FC00000340140004C01400050014000540140E9
:101FD00000180040001C004000200040004001406C
:101FE000004401400048014003EA821232438280EB
:101FF0008483C988A0F84010058470BD828B22F4C8
:1020000040628283828B4FF6FF7303EA01210A4309
:1020100082837047F0B5048C24F480540484868B4A
:10202000048C4FF6FF7505EA013726F4734605EA7E
:102030000222324305EA03331343F74A90420ED09B
:10204000F64A90420BD0B0F1804F08D0F44A90424B
:1020500005D0F44A904202D0F34A904205D124F4CC
:102060000051394341F4805104E024F402420A4310
:1020700042F4805183830184F0BD828B22F00C02F4
:102080008283828B0A4382837047F0B5048C24F4E8
:1020900080740484858B048C4FF6FF7707EA012651
:1020A00025F0F30507EA031313432B43DA4A904262
:1020B0000ED0DA4A90420BD0B0F1804F08D0D84A07
:1020C000904205D0D74A904202D0D74A904205D1DB
:1020D00024F40071314341F4807104E024F420625F
:1020E0000A4342F4807183830184F0BD028B22F4A1
:1020F00040620283028B4FF6FF7303EA01210A4319
:1021000002837047F0B5048C24F010040484068B1D
:10211000048C4FF6FF7505EA011726F4734605EAAD
:102120000333334305EA02221A43BB4B98420ED0D5
:10213000BA4B98420BD0B0F1804F08D0B84B9842C0
:1021400005D0B84B984202D0B74B984205D124F045
:102150002001394341F0100104E024F0A0030B43B7
:1021600043F0100102830184F0BD028B22F00C02C7
:102170000283028B0A430283704770B5048C24F0FB
:1021800001040484058B048C25F0F3054FF6FF76DB
:1021900006EA031313432B439F4A90420ED09F4AF3
:1021A00090420BD0B0F1804F08D09D4A904205D0AC
:1021B0009C4A904202D09C4A904205D124F00202EF
:1021C0000A4342F0010104E024F00A020A4342F00B
:1021D00001010383018470BD70B505460C468E482D
:1021E000854209D08D48854206D0B5F1804F03D095
:1021F0008B48854200D08B4820886188A28823893B
:1022000058B1042811D0082817D02846FFF702FF3C
:10221000E1882846BDE87040F0E62846FFF7ADFFAC
:10222000E1882846BDE870409FE72846FFF76AFF2F
:10223000E1882846BDE8704058E72846FFF725FFAB
:10224000E1882846BDE8704017E72DE9F0410746D0
:102250000C46002501266188002900D10225A288AC
:10226000012A00D102262088238988B13846FFF749
:1022700049FFE1883846FFF739FF2389324629466E
:102280003846FFF77AFFE1883846BDE8F0416CE751
:102290003846FFF772FFE1883846FFF766FF23896B
:1022A000324629463846FFF72DFFE1883846BDE81B
:1022B000F0411BE710B50A884B88CC881A438B88FD
:1022C00023431A430B891A434B8989891A430A43CA
:1022D000A0F8442010BD4FF6FF71818000210180DD
:1022E000C18041800172704700210180418081805E
:1022F000C180018141818181C181704700210180BC
:10230000418001228280C1800181704700210180CB
:1023100041808180C1800181418181817047002994
:1023200004D0018841F0010101807047018821F04B
:10233000010101807047002905D030F8441F41F4A5
:1023400000410180704730F8441FC1F30E01018045
:102350007047002A03D082890A43828170478289AC
:102360008A4382817047818270471143A0F84810E8
:102370007047002A03D082890A438281704782898C
:102380008A4382817047018921F0070101817047EA
:10239000028922F070020A430281704700B50346A9
:1023A0001846FFF7F5FF188940F00700188100BDB7
:1023B00070B50D4604461146602D0CD00122204612
:1023C000FFF7DBFE29462046FFF7E2FF208940F0B9
:1023D0000700208170BD01222046FFF793FEF1E740
:1023E00030B50489E4B24FF6FF7505EA03231343C1
:1023F0000B432343038130BD10B504462046FFF74D
:10240000EFFF208920F0070040F0070020F0700067
:1024100040F07000208110BD002C014000340140CC
:102420000004004000080040000C004010B50446C5
:102430002046FFF7D5FF208940F480402081EAE75D
:10244000018582827047028822F070020A4302806E
:10245000704770B50589048B068C25F007050D4380
:102460004FF6FC410C4040F201110C4326F02206CD
:102470004FF6FF7101EA03111143314305810483D3
:10248000018470BD028B22F070020A430283704700
:10249000028B22F4E0424FF6FF7303EA012111435D
:1024A00001837047828B22F070020A438283704757
:1024B000828B22F4E0424FF6FF7303EA01211143BD
:1024C00081837047002904D0018841F08001018098
:1024D0007047018821F0800101807047002904D0F5
:1024E000818841F0040181807047818821F00401D6
:1024F00081807047002904D0818841F008018180E3
:102500007047818821F0080181807047002904D03C
:10251000818841F0010181807047818821F00101AB
:1025200081807047028B22F008020A4302837047C1
:10253000028B22F400624FF6FF7303EA012111437C
:1025400001837047828B22F008020A43828370471E
:10255000828B22F400624FF6FF7303EA01211143DC
:1025600081837047028B22F004020A430283704782
:10257000028B22F480624FF6FF7303EA01211143BC
:1025800001837047828B22F004020A4382837047E2
:10259000828B22F480624FF6FF7303EA012111431C
:1025A00081837047028B22F080020A4302837047C6
:1025B000028BC2F30E024FF6FF7303EA01211143AF
:1025C00001837047828B22F080020A438283704726
:1025D000828BC2F30E024FF6FF7303EA012111430F
:1025E00081837047028C22F002020A430284704702
:1025F000028C22F008020A4302847047028C22F007
:1026000020024FF6FF7303EA011111430184704762
:10261000028C22F080024FF6FF7303EA011111438E
:1026200001847047028C22F400724FF6FF7303EAB4
:102630000121114301847047028C22F400624FF69D
:10264000FF7303EA0121114301847047028C22F4D5
:1026500000524FF6FF7303EA0131114301847047C2
:1026600010B501238B40048C9C430484038C8A4066
:1026700013430384CFE610B504238B40048C9C43A2
:102680000484038C8A4013430384C4E630B500F10C
:10269000180301248C40058CA5430584002911D022
:1026A00008290FD0091FC1F34E001844016821F416
:1026B000E041016001684FF6FF7303EA0222114313
:1026C000016030BD03EB5100016821F07001016031
:1026D00001681143016030BD002904D0018841F038
:1026E000020101807047018821F0020101807047DA
:1026F000002904D0018841F004010180704701885D
:1027000021F0040101807047002904D0818841F044
:10271000800181807047818821F08001818070472D
:10272000028822F00802028002880A430280704771
:10273000828822F07002828082880A4382807047F9
:10274000028922F00702028102890A43028170474E
:10275000028922F08002028102890A4302817047C5
:1027600081847047818570478186704701877047F3
:1027700081877047A0F840107047028822F44072A9
:10278000028002880A4302807047808E7047008F63
:102790007047808F7047B0F840007047808C70475A
:1027A000008D704702460020128A0A4200D00120A4
:1027B0007047C9430182704702460020138A0B40CC
:1027C00092890A40002B02D0002A00D001207047D5
:1027D000C94301827047000010B5E14988420AD11F
:1027E00001218C032046FEF7E4FE2046BDE81040A0
:1027F0000021FEF7DEBEDB4988420AD101214C04EC
:102800002046FEF7E1FE2046BDE810400021FEF71D
:10281000DBBED54988420AD101218C042046FEF74F
:10282000D3FE2046BDE810400021FEF7CDBECF49C3
:1028300088420AD10121CC042046FEF7C5FE20467D
:10284000BDE810400021FEF7BFBEC94988420AD149
:1028500001210C052046FEF7B7FE2046BDE81040DA
:102860000021FEF7B1BE10BD30B585B004460D465F
:10287000208A4CF6FF710840E98801432182A08933
:102880004EF6F3110840A9882A8911436A89024348
:102890001143A181A08A4FF6FF410840A989014355
:1028A000A1826846FEF717FEAD48844201D1039825
:1028B00000E00298A189090408D500EBC00101EBF2
:1028C000001029684900B0FBF1F007E000EBC001FF
:1028D00001EB001029688900B0FBF1F06422B0FB25
:1028E000F2F109010B096FF018056B4300EB83004F
:1028F000A3891D044FF0320307D503EBC000B0FBE2
:10290000F2F000F00700084306E003EB0010B0FB14
:10291000F2F000F00F000843208105B030BD4FF405
:102920001651016000218180C18001810C22428109
:102930008181704710B5038A4FF2FF0213400A8865
:102940004C8822438C88C9880C4322431A43028254
:1029500010BD0021018041808180C1807047002925
:1029600004D0818941F4005181817047818921F42B
:1029700000518181704710B540F66A13C1F34213CC
:1029800001F01F040121A140012B07D0022B07D029
:1029900014303AB102680A43026010BD0C30F8E707
:1029A0001030F6E702688A43026010BD002A03D0A7
:1029B000828A0A4382827047828A8A43828270476F
:1029C000028A22F00F020282028A0A4302827047C0
:1029D000828922F40062828182890A43828170475F
:1029E000002904D0818941F00201818170478189E9
:1029F00021F0020181817047028A22F020020282C6
:102A0000028A0A4302827047002904D0018A41F4F5
:102A1000804101827047018A21F480410182704720
:102A2000C1F30801818070478088C0F308007047B7
:102A3000818941F0010181817047028BD2B202830A
:102A4000028B42EA012101837047028B02F47F422C
:102A50000283028B0A4302837047002904D0818AD3
:102A600041F0200181827047818A21F0200181821A
:102A70007047002904D0818A41F01001818270479B
:102A8000818A21F0100181827047002904D0818A57
:102A900041F0080181827047818A21F0080181821A
:102AA0007047002904D0818941F400418181704739
:102AB0008189C1F30E0181817047002904D0818A88
:102AC00041F4006181827047818A21F40061818232
:102AD0007047828A22F004028282828A0A438282BA
:102AE0007047002904D0818A41F002018182704739
:102AF000818A21F0020181827047024600201288FB
:102B00000A4200D0012070478A05C94301807047FE
:102B100070B5002440F66A12C1F3421301F01F059C
:102B2000012606FA05F2012B0CD0022B0DD0838A68
:102B30001340090A8E40008830400BB100B10124D7
:102B4000204670BD83891340F3E7038A1340F0E702
:102B500040F66A120A0A01219140C9430180704778
:102B6000003801400044004000480040004C004054
:102B70000050004026A02FF003F809F0F0FF2A4D86
:102B800020244FF4FA772E1F2C6028A02EF0F8FF97
:102B9000384607F047F934602BA02EF0F1FF384695
:102BA00007F040F9F0E700B587B04FF44070FDF74B
:102BB000F1FB00F0A7FB03F04FFB00F079F802F007
:102BC00053F902F0A7F902F0CCF900F0CBFB1C227C
:102BD0002549684624F0E3FB684624F0DDFA07B097
:102BE00000BD1CB5FFF7DFFF00200A21CDE9001072
:102BF00003464FF480721DA11D4806F021FF0128F5
:102C000002D04FF0FF301CBD07F02EFBFEE70000A6
:102C1000D2B0BBF0656D58475549D1DDCABEC0FD85
:102C2000B3CC0A0A00000000140C01405465737410
:102C30005F5461736B2052756E6E696E672C4C45E4
:102C400044315F4F4E0D0A00546573745F546173D5
:102C50006B2052756E6E696E672C4C4544315F4F28
:102C600046460D0A000000008C0B040867756900D9
:102C7000752B000870470BA02EF082FFFEE7FEE7E1
:102C8000FEE7FEE7704710B507F04BFC012803D0C4
:102C9000BDE8104008F06AB810BD18F0ADBB16F0E2
:102CA000F3BF0000486172644661756C740A0000ED
:102CB00010B586B001210420FEF765FC01218803D0
:102CC000FEF761FC4FF40070ADF8140018208DF889
:102CD000170003208DF81600494C05A92046FEF781
:102CE000F6F92115ADF8141004218DF8171005A977
:102CF0002046FEF7ECF94FF4E13001900020ADF8EA
:102D00000800ADF80A00ADF80C00ADF810000C207A
:102D1000ADF80E003B4C01A92046FFF7A5FD0121AF
:102D20002046FFF71CFE06B010BD10B50446204635
:102D3000FFF776FE80212046FFF7DFFE0028F9D05E
:102D400010BD2DE9F04107460D461646002405E06A
:102D5000295D3846FFF7E9FF641CE4B2B442F7D3BB
:102D600040213846FFF7C9FE0028F9D0BDE8F081C0
:102D700070B506460D4600243046295DFFF7D5FFA5
:102D8000641C285D0028F7D140213046FFF7B5FECE
:102D90000028F9D070BD70B50546080ACCB20146CE
:102DA0002846FFF73DFE80212846FFF7A6FE0028B3
:102DB000F9D021462846FFF733FE80212846FFF749
:102DC0009CFE0028F9D070BD70B504460D4DE1B2EF
:102DD0002846FFF725FE80212846FFF78EFE0028B3
:102DE000F9D0204670BD10B5064C20212046FFF7D3
:102DF00084FE0028F9D02046BDE81040FFF714BE3D
:102E0000000801400038014010B5F9A02EF0B8FECE
:102E1000002010BD2DE9F0410746FF4C4FF48055CE
:102E20002560FE4E08E02068411E216004D2FFF7B5
:102E3000EBFFC0B2BDE8F08102213046FEF789FE0B
:102E40000028F0D039463046FEF737FE256007E00F
:102E500021684A1E226003D2FFF7D6FFC0B2E9E71D
:102E600001213046FEF775FE0028F1D03046FEF70E
:102E700026FEC0B2DEE72DE9F041E94F10213846C9
:102E8000FEF796F99F20FFF7C5FFFF20FFF7C2FF6F
:102E90000446FF20FFF7BEFF0546FF20FFF7BAFFFD
:102EA000064610213846FEF781F9200440EA052045
:102EB0003043BFE710B586B001210803FEF763FB7E
:102EC00001210420FEF75FFB1020ADF80000032174
:102ED0008DF802108DF80300D14C69462046FEF7AC
:102EE000F6F801210420FEF74EFB2021ADF800107A
:102EF00018218DF8031069462046FEF7E8F80121F5
:102F00000420FEF740FB4021ADF800106946204642
:102F1000FEF7DDF801210420FEF735FB8021ADF836
:102F2000001069462046FEF7D2F810212046FEF731
:102F30003DF90020ADF804004FF48271ADF80610A1
:102F4000ADF808000221ADF80A100121ADF80C100F
:102F50004902ADF80E100821ADF81010ADF81200BE
:102F60000720ADF81400AD4C01A92046FEF7F0FC97
:102F700001212046FEF771FDFFF77DFFA949884238
:102F800002D1012006B010BD0020FBE770B5A44DB2
:102F900010212846FEF70CF90520FFF73BFF9E4C59
:102FA000A8142060FF20FFF735FF21684A1E226029
:102FB00002D2BDE8704027E7C007F3D12846BDE83C
:102FC00070401021FEF7F2B810B5954C1021204644
:102FD000FEF7EEF80620FFF71DFF2046BDE8104083
:102FE0001021FEF7E3B870B50446FFF7EDFFFFF7D9
:102FF000CDFF8B4D10212846FEF7DAF82020FFF791
:1030000009FFC4F30740FFF705FFC4F30720FFF7EC
:1030100001FFE0B2FFF7FEFE10212846FEF7C6F8DA
:10302000BDE87040B2E710B5FFF7CEFF7C4C102131
:103030002046FEF7BDF8C720FFF7ECFE1021204622
:10304000FEF7B4F8BDE81040A0E72DE9F0410546D1
:103050000F461446FFF7B8FF714E10213046FEF7B9
:10306000A7F80220FFF7D6FEC7F30740FFF7D2FE0E
:10307000C7F30720FFF7CEFEF8B2FFF7CBFEB0157F
:10308000844205D9044603E02878FFF7C3FE6D1C8F
:10309000641EA4B2F8D210213046FEF787F8BDE8CE
:1030A000F04173E72DE9F04706460D46E8B241428C
:1030B000CFB2140A02F0FF094FF48078002812D032
:1030C000E8B24042C0B205EB000A24B3D01B80B284
:1030D000040A00F0FF093A4629463046FFF7B5FFDB
:1030E00055463E4435E06CB929463046FFF7ADFF02
:1030F0003AE0424629463046FFF7A7FF05F58075BE
:1031000006F58076641EE4B2F3D24A46294630467C
:10311000FFF79BFF28E0B9450DD9A9EB0700C4B222
:103120003A4629463046FFF790FF5146F0192246AD
:10313000FFF78BFF18E029463046FFF786FF13E0C4
:10314000424629463046FFF780FF05F5807506F5B3
:103150008076641EE4B2F3D2B9F1000F04D04A467F
:1031600029463046FFF771FF0120BDE8F0872DE9C1
:10317000F04104460F461546294E10213046FEF711
:1031800017F80320FFF746FEC7F30740FFF742FE9C
:10319000C7F30720FFF73EFEF8B2FFF73BFE04E05F
:1031A000FF20FFF737FE04F8010B6D1E681CF7D1F6
:1031B0003046BDE8F0411021FDF7F8BF70B5184C5E
:1031C00010212046FDF7F4FFAB20FFF723FEFF2080
:1031D000FFF720FEFF20FFF71DFEFF20FFF71AFE7E
:1031E000FF20FFF717FE0546102120461CE00000D7
:1031F0003C3C2D464C4153482D4552524F522D3E9A
:103200003E205350492054696D656F757420657276
:10321000726F72210A000000280000200030014077
:10322000000801401740EF00FDF7C0FF284670BDC1
:1032300010B5044610213048FDF7BAFF0320FFF710
:10324000E9FDC4F30740FFF7E5FDC4F30720FFF7EE
:10325000E1FDE0B2BDE81040DCE5FF20DAE52DE954
:10326000F0410746254C4FF480552560244E06E07A
:103270002068411E216002D2BDE8F041C4E5022170
:103280003046FEF766FC0028F2D039463046FEF79D
:1032900014FC256006E021684A1E226002D2BDE8C7
:1032A000F041B1E501213046FEF753FC0028F2D091
:1032B0003046BDE8F041FEF702BC10B50E4C1021BF
:1032C0002046FDF775FFB920FFF7A4FD2046BDE8B5
:1032D00010401021FDF76ABF10B5074C10212046A1
:1032E000FDF766FFAB20FFF795FD2046BDE81040D7
:1032F0001021FDF75BBF00000008014028000020FE
:103300000030014038B501210820FEF73CF92020AB
:10331000ADF8000010208DF8030003208DF80200A6
:103320000F4C69462046FDF7D2FE0121ADF8001092
:1033300069462046FDF7CBFE0221ADF80010694634
:103340002046FDF7C4FE20212046FDF72FFF012176
:103350002046FDF72BFF02212046FDF727FF38BD51
:10336000000C014038B501211420FEF70CF90120B2
:10337000ADF8000004248DF8034069460F48FDF7BE
:10338000A6FEE002ADF800008DF8034069460C4847
:10339000FDF79DFE38BD70B504460D462946204612
:1033A000FDF7F0FE012801D0002070BD294620461F
:1033B000FDF7E8FE0128F9D0012070BD00080140AA
:1033C0000010014001B502E00098401E00900098F6
:1033D0000028F9D108BD1FB54FF40074ADF80040C6
:1033E00004208DF803006946F148FDF770FE0921BD
:1033F0000520FDF728FF029400208DF80C0008201E
:103400008DF80D0001248DF80E4002A8FDF732FB67
:1034100017208DF804008DF805408DF806408DF8D2
:10342000074001A8FCF7BBFF1FBD1FB54FF4007498
:10343000ADF8004004208DF803006946DC48FDF734
:1034400046FE09210520FDF7FEFE029400248DF8BA
:103450000C4008208DF80D008DF80E4002A8FDF7F5
:1034600009FB17208DF8040001208DF805008DF868
:1034700006008DF8074001A8FCF791FF1FBDF8B5C5
:1034800001218020FEF77FF801210846FEF77BF836
:103490004FF48060ADF8000014208DF80300032481
:1034A0008DF80240C24E69463046FDF710FE4021BD
:1034B000ADF8001069463046FDF709FEF014ADF88E
:1034C000000010258DF803508DF802406946304603
:1034D000FDF7FDFD6901ADF800108DF803508DF882
:1034E000024069463046FDF7F2FDF8BDF8B54FF4ED
:1034F0000074ADF8004010208DF8030003258DF80E
:103500000250AB4E69463046FDF7E1FD214630469C
:10351000FDF74EFEA70039463046FDF749FEC820AC
:1035200000F058F90120FFF74DFF39463046FDF70E
:103530003DFE44F6206000F04DF9ADF80040042156
:103540008DF803108DF8025069463046FDF7BFFD37
:10355000F8BD10B501210846FEF715F8FFF78FFFFB
:10356000FFF7C4FFBDE810405FE70020401CC0B279
:10357000C828FBD3704770B58D4C40212046FDF71D
:1035800015FE251529462046FDF710FEFFF7EDFF35
:1035900040212046FDF70CFEFFF7E7FF29462046B5
:1035A000FDF706FEBDE87040DFE710B5804C402116
:1035B0002046FDF7FDFD21152046FDF7F7FDFFF73D
:1035C000D4FF2046BDE810404021FDF7EFBD2DE9B6
:1035D000F04105460024764E4FF48067280604D556
:1035E00040213046FDF7E2FD03E040213046FDF783
:1035F000DFFDFFF7BAFF39463046FDF7D7FDFFF78D
:10360000B4FF39463046FDF7D3FD072C03D14021E6
:103610003046FDF7CBFD6806050EFFF7A6FF641CDC
:10362000E4B2082CDAD3BDE8F0812DE9F0410024A2
:1036300000255F4E4FF480676006040E3946304621
:10364000FDF7B4FDFFF791FF40213046FDF79AFDED
:1036500008B1641CE4B239463046FDF7A9FDFFF716
:1036600084FF6D1CEDB2082DE6D32046DBE770B574
:103670004F4D40212846FDF799FDFFF776FF2E15A7
:1036800031462846FDF792FDFFF76FFF402128469F
:10369000FDF778FD08B1012400E0002431462846FA
:1036A000FDF786FDFFF761FF204670BD70B5404C09
:1036B00040212046FDF77CFDFFF757FF25152946E1
:1036C0002046FDF773FDFFF750FF29462046FDF722
:1036D0006FFDFFF74AFF2046BDE870404021FDF72F
:1036E00065BD70B5324C40212046FDF75FFDFFF708
:1036F0003CFF251529462046FDF758FDFFF735FF0D
:1037000029462046FDF754FDBDE870402DE770B511
:1037100006460D461446FFF72EFF46F00100FFF760
:1037200056FFFFF7A4FF88B1FFF73FFF012070BDF0
:10373000012C03D1FFF7D5FFFFF737FFFFF775FF28
:1037400005F8010B641EA4B2FFF7B0FF002CEFD107
:10375000FFF72BFF002070BD2DE9F04180460E469B
:103760001546FFF722FF00244FF47A77FFF703FF97
:103770004046FFF72CFFFFF77AFF18B1641CA4B294
:10378000BC42F3D3BC4206D00AE03078FFF71FFFFB
:10379000FFF76DFF18B1FFF708FF012043E7761C24
:1037A0006D1EEDB2F1D2FFF700FF00203BE70000F5
:1037B000001C01401748016841F080710160164803
:1037C00000214160016841F0010101607047124829
:1037D0004068704701B50022FFF7ECFF0F48104921
:1037E0000068B0FBF1F300984343FFF7F0FF014698
:1037F000FFF7EDFF8842FBD003D9A0EB01010A449B
:1038000003E06FEA010101440A4401469A42EFD302
:1038100008BD0000FCED00E0001000E0000000200A
:1038200040420F0038B531208DF8000000248DF89B
:1038300001408DF8024001208DF803006846FCF736
:10384000AEFD3B208DF800008DF801406846FCF786
:10385000A6FD38BD38B50020FDF79FFF0020FDF71D
:103860009FFFFDF771FF00214FF48060FDF780FEA0
:103870004FF4F850ADF8000004248DF80340694679
:10388000FE48FDF724FCADF800406946FC48FDF712
:103890001EFC38BD08B50121B020FDF774FE4FF4C1
:1038A000F850ADF8000003208DF8020018208DF8C4
:1038B00003006946F148FDF70AFC0420ADF800005A
:1038C0006946EF48FDF703FC4FF40060ADF80000D7
:1038D00048208DF803006946EA48FDF7F8FB01210E
:1038E0008802FDF745FE01210220FDF741FE08BDDB
:1038F00070B58CB004460D46E348FDF785F8E34EFD
:1039000000213046FDF755F8E1480190029410205F
:103910000390A8080490002005908021069189005A
:10392000079189000891099089000A910B9001A9DB
:103930003046FDF714F8012202213046FDF746F823
:1039400001213046FDF735F80CB070BD70B58CB074
:1039500005460C46CC48FDF757F8CC4E00213046C2
:10396000FDF727F8CA480190029500200390A108AE
:1039700004910590802106918900079189000891A2
:10398000099089000A910B9001A93046FCF7E7FFE6
:10399000012202213046FDF719F801213046FDF7DA
:1039A00008F8D1E7BB48FDF720B853E770B50546E6
:1039B0000024B7498039486B00E0486B10F0450F90
:1039C000FBD0410705D503240420FDF77DFF2046E9
:1039D00070BDC00705D001240120FDF775FF20460A
:1039E00070BDFDF711FFA84201D0102070BD40F25C
:1039F000FF50FDF769FF0020FDF70AFFA6490842C6
:103A000001D1204670BD002801DA1C2070BD4100A4
:103A100001D5092070BD810001D50A2070BDC1000B
:103A200001D50B2070BD010101D50C2070BD4101F5
:103A300001D50D2070BDC10101D50E2070BD010260
:103A400001D50F2070BD410201D5102070BD81024B
:103A500001D5112070BDC10201D5122070BD010336
:103A600001D5132070BD410301D5142070BD810321
:103A700001D5152070BDC10301D5162070BD01040C
:103A800001D5172070BD410401D5182070BD8104F7
:103A900001D5192070BD000701D51A2070BD204640
:103AA00070BD2DE9FC470E460024002700970197C2
:103AB0007A4D4FF0080AC5F800A0102068604FF05A
:103AC0004009C5F80890EF604FF48068C5F8108091
:103AD0002846FDF781FE1020FFF768FF002832D14D
:103AE0006F4800890004286037206860C5F8089096
:103AF000EF60C5F810802846FDF76EFE3720FFF70F
:103B000055FF00281FD105F1140066490160C0F877
:103B100004A0302181600221C1600761012141615F
:103B2000FDF77EFE2F6033206860C5F80890EF60D7
:103B3000C5F810802846FDF74FFE3320FFF736FF0B
:103B40000546280001D0BDE8FC87DFF844814FF42A
:103B5000001A6F46A8F1800840F22A6908E0504632
:103B6000FDF7AAFE20B1FDF77BFE47F82400641C98
:103B7000D8F8340010EA090FF1D00820FDF79CFEB8
:103B800020B10820FDF7A0FE0420DCE70220FDF7AD
:103B900093FE20B10220FDF797FE0220D3E72020FC
:103BA000FDF78AFE20B12020FDF78EFE0620CAE731
:103BB0004FF400742046FDF77FFE20B12046FDF74C
:103BC00083FE0720BFE740F2FF50FDF77DFE00981F
:103BD0000099000601F47F4140EA0120009901F4B8
:103BE0007F0140EA1120009940EA1160706001985D
:103BF0000199000601F47F4140EA0120019901F496
:103C00007F0140EA1120019940EA116030602846A6
:103C100099E72DE9FC470646002400940194002012
:103C2000FDF7F6FD800101D50E208CE71C4D69469D
:103C3000288980B2FFF735FF002884D13720174F3D
:103C40004FF0060A4FF040094FF48068012E39D03A
:103C50000199C9035CD52989090439607860C7F8DE
:103C60000890FC60C7F810803846FDF7B5FD372096
:103C7000FFF79CFE0028D8D13C6015E00010014001
:103C800000140140001C014000F0001044040240F8
:103C9000808001400020001008E0FFFD2813002074
:103CA0002C000020FFFF0F00C7F804A0C7F8089001
:103CB000FC60C7F810803846FDF78EFD0620FFF740
:103CC00075FE40E70199490320D529890904396027
:103CD0007860C7F80890FC60C7F81080F848FDF7D6
:103CE0007BFD3720FFF762FE00289ED1022038605E
:103CF000C7F804A0C7F80890FC60C7F81080F04827
:103D0000FDF76AFD0620FFF751FE1CE725201AE7A4
:103D1000252018E72DE9F04101460024E9484068D4
:103D2000032805D038B1012805D0022803D034E09B
:103D30002720BDE8F081B1F5805F0FD0E04D4FF452
:103D400000670026183D4FF00708B94214D1012042
:103D5000FFF75FFF0446200002D01EE02720E8E7BF
:103D600085F814802E606E60AE60EF602E61D448DE
:103D70001838FDF7F6FC10E00020FFF74AFF044674
:103D800020000AD185F814802E606E60AE60EE606F
:103D90002E61CB481838FDF7E4FC2046C9E710B582
:103DA000C749086007204860402088600020C8603C
:103DB0004FF4806008610846FDF70EFDBDE8104035
:103DC0000720F3E52DE9F043BE494F6880F85670AF
:103DD0000989A0F85410DFF8E8C2ACF1A00CDCF8B7
:103DE00000100A0E93090370C2F38303437002F0BC
:103DF000030282700A0CC2700A0A02714171DCF877
:103E00000420110E0901C180C2F30741C38843EAAF
:103E10001113C38001F00F010172C2F30721CB0916
:103E20004372C1F380138372C1F34013C372C1F3B1
:103E3000001303730023437364460126D4F80880FB
:103E4000002F4FEA1864C8F30745C8F3072904D0C8
:103E5000012F02D0022F3AD04CE08907090D0161F1
:103E6000D1B2026942EA81010161016941EA94111A
:103E70000161C4F3C201017504F0070141756909CC
:103E80008175C5F38201C175A907490F01764946BD
:103E9000027E42EAD11202760269521C047EA41C00
:103EA00006FA04F9A2FB094703FB09774FEAE97513
:103EB00002FB0575027A06FA02F70765A4FB0729DB
:103EC00005FB079504FB0354C0E9122412E0910698
:103ED000890A0161016941EA0421016101692943FB
:103EE000016149460269521CD204C0E912234FF411
:103EF000007202651C30C1F3801200F8032C8906A1
:103F0000490E00F8021C08F0FF0110F8022C42EAEA
:103F1000D11200F8022C01F07F0100F8011CDCF83E
:103F20000C20110ECC090470C1F341144470C1F38C
:103F3000820484708907090FC170C2F30741C478F5
:103F400044EA9114C470C1F340140471437101F048
:103F500001018171C2F30721CC09C471C1F380143E
:103F60000472C1F340144472C1F300148472C1F3AB
:103F70008104C47201F003010173D1B24908417395
:103F800086734F4A903A11680C0E04740C0C24028C
:103F90004482C1F30724458A2543458209064161CD
:103FA00051680C0E456945EA04444461C1F3074475
:103FB000456945EA04244461C1F307244569254362
:103FC0004561017691680C0E44760C0C2406C461A0
:103FD000C1F30724C56945EA0444C461C9B2C46990
:103FE00044EA0121C161D1680A0EC4691443C46165
:103FF000C1F3074290F8204044EA121480F82040B0
:104000001207120D4284C1F30722448C14434484E6
:10401000C9B2490880F8241080F825601846BDE828
:10402000F08310B50024284A516B00E0516B11F069
:10403000450FFBD0480705D503240420FDF744FCB9
:10404000204610BDC80705D001240120FDF73CFC27
:10405000204610BD40F2FF50FDF736FC204610BD53
:1040600070B506460C460025174A506B00E0506BB1
:1040700010F0450FFBD0410705D503240420FDF7C0
:1040800023FC204670BDC00705D001240120FDF7A8
:104090001BFC204670BDFDF7B7FBB04201D01020DD
:1040A00070BD40F2FF50FDF70FFC0020FDF7B0FBA4
:1040B00010F4604F0AD081040CD5132070BD0000AD
:1040C000281300202C00002000800140000C2080DC
:1040D0002846F3E7410401D51020EFE7000401D59D
:1040E0000F20EBE72846E9E72DE9F84F00240120EF
:1040F0000090FDF75EFBE0B1DFF8E4830026F94DA8
:10410000D8F804004FF0C0094FF4806704282AD083
:104110002E6002206860C5F80890EE602F61284686
:10412000FDF75AFBFFF77DFF0446200003D0BDE8F2
:10413000F88F2520FBE70020FDF76AFBDFF8A4A33A
:10414000AAF1900ACAF800000420FDF761FBCAF842
:1041500004000820FDF75CFBCAF808000C20FDF7FE
:1041600057FBCAF80C00D8F8040028B1012803D086
:10417000062801D0022811D12E600320686040205B
:10418000A860EE602F61D748FDF726FB6946032043
:10419000FFF766FF0446200000D0C8E7D8F8040007
:1041A000042826D0BDF80000C8F8080000042860E4
:1041B00009206860C5F80890EE602F61C948FDF7D6
:1041C0000BFBFFF72EFF0446200000D0AFE70020D6
:1041D000FDF71EFBC34DA03D28600420FDF718FB32
:1041E00068600820FDF714FBA8600C20FDF710FBA9
:1041F000E86020469BE710B50024BB4A516B00E005
:10420000516B11F0450FFBD0480705D5032404205E
:10421000FDF75AFB204610BD40F2FF50FDF754FB5E
:10422000204610BD10B500204FF4F831AE4B5A6B4C
:1042300001E0491E5A6B12F0450F01D10029F8D157
:1042400009B1510705D503240420FDF73DFB2046A5
:1042500010BD5106FCD500244020FDF735FB20465B
:1042600010BD70B500254FF4F83400E0641E24B191
:104270008020FDF721FB0028F8D02CB140F2FF5040
:10428000FDF722FB284619E7032017E72DE9F84F31
:1042900000270097BB460024A24600259148B22182
:1042A00018380175076047608760C7600761FDF7D0
:1042B00058FA0320FDF774FA0120FDF76EFA894ED3
:1042C00037607760B760F7604FF48069C6F8109088
:1042D0003046FDF781FAFFF7C4FF00909DF800001B
:1042E00010B19DF8000022E74FF4D570306008202F
:1042F00070604FF04008C6F80880F760C6F810906C
:104300007848FDF769FAFFF78DFF00909DF80000EF
:1043100008B3376037207060C6F80880F760C6F8C9
:1043200010907048FDF758FA3720FFF73FFB0090D8
:10433000376037207060C6F80880F760C6F81090C4
:104340006848FDF749FA3720FFF730FB00909DF8E9
:10435000000080B34DE06248012141608D07E7E72E
:10436000376037207060C6F80880F760C6F8109094
:104370005C48FDF731FA3720FFF718FB00909DF8F5
:10438000000010B19DF80000D1E658482843306085
:1043900029207060C6F80880F760C6F81090514870
:1043A000FDF71AFAFFF727FF00909DF8000018B1FB
:1043B0009DF80000BBE606E00020FDF729FA8346E1
:1043C0004FEADB7A641CBAF1000F03D14FF6FF709D
:1043D0008442C5D34FF6FF70844204D31B20009063
:1043E0009DF80000A3E61BF0804F02D03C4802215C
:1043F00041609DF800009AE638B500240094FFF76C
:1044000049FAFDF7A1F9FFF741FF00909DF8000080
:1044100010B19DF8000038BDFFF766FE00909DF8D2
:10442000000010B19DF8000038BD2E480721183853
:104430000175046044608460C4600461FDF791F913
:10444000FFF7F0F927487038FFF7BCFC00909DF8A3
:10445000000038B923487038B0F854000004FFF762
:104460009EFC00909DF8000020B94FF40060FFF71B
:1044700051FC00909DF8000038BD70B50546002D38
:1044800016D0174800890104164801600D214160CB
:10449000402181600021C1604FF480610161FDF71E
:1044A0009BF90D20FFF782FA04461CB1204605E671
:1044B000262003E60020FDF7ABF928602046FDE545
:1044C00008B5012000909DF8000008BD08B5002047
:1044D0000090FFF7F5FF01280AD0FF2008BD00007B
:1044E0002C000020281300200080014000001080D4
:1044F0006846FFF7C2FF08B1FF20EFE70098C0F35E
:104500004320EBE710B5FFF7E1FF042803D0FF28B5
:1045100003D0012010BD002010BD022010BD10B539
:1045200000240020FDF73CF9204610BD2DE9F0479E
:1045300005460020FDF76CF9800102D50E20BDE88C
:10454000F087FF4C4027276010206060A7604FF085
:104550000008C4F80C804FF48069C4F8109020461D
:10456000FDF73AF91020FFF721FA0028E7D1F548C6
:1045700000890004206037206060A760C4F80C80C8
:10458000C4F810902046FDF727F93720FFF70EFA00
:104590000028D4D104F11400EB4E0660476060217E
:1045A00081600221C160C0F8108001214161FDF7E6
:1045B00037F9C4F800800D206060A760C4F80C8053
:1045C000C4F810902046FDF707F90D20FFF7EEF92B
:1045D0000746380000D0B2E74FF4004ADFF86C839A
:1045E00040F22A690CE05046FDF766F940B100241C
:1045F000FDF736F945F82400641C082CF8D3203563
:10460000D8F8340010EA090FEDD00820FDF754F96E
:1046100020B10820FDF758F9042090E70220FDF7AB
:104620004BF920B10220FDF74FF9022087E7202047
:10463000FDF742F920B12020FDF746F906207EE77C
:104640004FF400742046FDF737F920B12046FDF7FE
:104650003BF9072073E74FF4001403E0FDF700F97E
:1046600001C5761E2046FDF727F908B1002EF5D1C9
:1046700040F2FF50FDF728F9384660E710B50446D0
:10468000AF488038FFF752FF0146080000D010BD48
:10469000AB4880380278920922700278C2F3401247
:1046A0006270827812026280C278638813436380EA
:1046B0000279120662604279636843EA02426260EC
:1046C0008279636843EA02226260C27963681343B5
:1046D0006360027A2272427A6272827A1209A2724C
:1046E000C27A1202A281027BA3891343A381427B77
:1046F0009208A273407B00F00300E073084610BDEF
:104700002DE9F0478046089E14461D468D48002737
:1047100007700761C7608D49CF624068022803D1E6
:104720000602640A44EAC554854D2E601020686074
:104730004FF04009C5F80890EF604FF4806AC5F863
:1047400010A02846FDF748F81020FFF72FF90028A1
:104750001ED105F114007C49016046609021816002
:104760000221C160076101214161FDF759F82C6008
:1047700011206860C5F80890EF60C5F810A02846C1
:10478000FDF72AF81120FFF711F904460CB1204675
:10479000D5E6012140F22A30FDF710F80120FDF79F
:1047A00018F831464046FFF7D1F82046C7E62DE914
:1047B000FF5F1446DDE90E6A1D4662480027077058
:1047C00007614FF00108C0F80C806049CF62406873
:1047D000022803D10602640A44EAC554584D2E60EB
:1047E000102068604FF04009C5F80890EF604FF462
:1047F000806BC5F810B02846FCF7EEFF1020FFF7DD
:10480000D5F8002821D105F114004F4901600AFBB9
:1048100006FAC0F804A0902181600221C1600761FE
:10482000C0F81480FCF7FCFF2C6012206860C5F80B
:104830000890EF60C5F810B02846FCF7CDFF1220B5
:10484000FFF7B4F804461CB1204604B0BDE8F09F61
:10485000012140F22A30FCF7B1FF0120FCF7B9FF3B
:1048600051460098FFF772F82046EEE710B534483D
:10487000002101600C22426040228260C16011016F
:104880000161FCF7A9FFBDE810400C20FFF78EB8CE
:1048900038B500242C4900912A4D02E00098401EB2
:1048A0000090686930B9286920B9287810B9009853
:1048B0000028F3D1002068610091244802E00099AB
:1048C000491E0091416B890402D500990029F6D157
:1048D000E868012802D1FFF7C9FF0446009808B92B
:1048E00004B9042440F2FF50FCF7EEFF287808B129
:1048F000287838BD204638BD2DE9F0478046089E0F
:1049000014461D460F48002707700761C7600F490E
:10491000CF624068022803D10602640A44EAC55403
:10492000074D2E60102068604FF04009C5F80890D0
:10493000EF604FF4806AC5F810A0284608E0000038
:10494000281300202C000020FFFF0F0000800140F2
:10495000FCF742FF1020FFF729F800282AD12C602D
:1049600018206860C5F80890EF60C5F810A02846C8
:10497000FCF732FF1820FFF719F800281AD105F1CB
:104980001402F7481060566090209060D76017615D
:10499000012050611046FCF743FF012140F22A300C
:1049A000FCF70CFF31464046FEF7A2FF0120FCF762
:1049B00010FF3846C3E52DE9FF5F1446DDE90E67B9
:1049C0001D46DFF8A0934FF0000889F80080C9F871
:1049D00010800120C9F80C00E348C0F82C80D9F8F9
:1049E0000400022803D10602640A44EAC554DF4DDC
:1049F0002E60102068604FF0400AC5F808A0C5F886
:104A00000C804FF4806BC5F810B02846FCF7E4FE2C
:104A10001020FEF7CBFF002853D1B9F8080000049E
:104A2000286037206860C5F808A0C5F80C80C5F874
:104A300010B02846FCF7D0FE3720FEF7B7FF00285D
:104A40003FD12F6017206860C5F808A0C5F80C801A
:104A5000C5F810B02846FCF7BFFE1720FEF7A6FFEA
:104A600000282ED12C6019206860C5F808A0C5F870
:104A70000C80C5F810B02846FCF7AEFE1920FEF7F2
:104A800095FF00281DD105F11402B5481060774349
:104A9000576090209060C2F80C80C2F8108001200E
:104AA00050611046FCF7BCFE012140F22A30FCF7B1
:104AB00085FE0120FCF78DFE39460098FEF718FFB1
:104AC0004046C2E670B50025A54C2146A54E00E043
:104AD000491E706928B9306918B9307808B90029B9
:104AE000F6D100207061A04800E0641E416BC9044B
:104AF00001D5002CF9D1F068012802D1FFF7B6FEEC
:104B000005462C4300D1042540F2FF50FCF7DCFEA3
:104B1000307808B13078CAE42846C8E49248406B3F
:104B200010F4405F01D001207047002070477CB531
:104B3000044600250022019200928A488B49008990
:104B4000000408600D20486040208860CA600001B1
:104B500008610846FCF740FE8349486B009001E07D
:104B60004A6B0092009A12F0450FF9D00098400766
:104B700005D503240420FCF7A7FE20467CBD009841
:104B8000C00705D001240120FCF79EFE20467CBD15
:104B9000FCF73AFE009000980D2801D010207CBD53
:104BA00040F2FF50FCF790FE0020FCF731FE019030
:104BB0000198C0F3432020706D490198084201D14B
:104BC00028467CBD0198002801DA1C207CBD019894
:104BD000400001D509207CBD0198800001D50A2044
:104BE0007CBD0198C00001D50B207CBD019800015F
:104BF00001D50C207CBD0198400101D50D207CBD64
:104C00000198C00101D50E207CBD0198000201D59C
:104C10000F207CBD0198400201D510207CBD019879
:104C2000800201D511207CBD0198C00201D512205F
:104C30007CBD0198000301D513207CBD0198400381
:104C400001D514207CBD0198800301D515207CBDC1
:104C50000198C00301D516207CBD0198000401D540
:104C600017207CBD0198400401D518207CBD019817
:104C7000800401D519207CBD0198000701D51A20B8
:104C80007CBD28467CBD2DE9FC4782460D460024AC
:104C90000026019600963548A0384068000D800631
:104CA00002D42520BDE8FC872F4840683149C0B2B6
:104CB000801CB1FBF0F001900020FCF7A9FD800101
:104CC00001D50E20EEE727484068022802D14FEABE
:104CD0005A2A6D0A254F4FF040084FF4806918B1E9
:104CE000012801D0022820D1C7F800A02020786038
:104CF000C7F80880FE60C7F810901C48FCF76CFDF0
:104D00002020FEF753FE0028CCD13D6021207860A2
:104D1000C7F80880FE60C7F810901448FCF75CFDE7
:104D20002120FEF743FE0028BCD13E60262078609B
:104D3000C7F80880FE60C7F810900C48FCF74CFDDF
:104D40002620FEF733FE0028ACD100E0641C019859
:104D50008442FBD36846FFF7EAFE014C10E00000F6
:104D6000FFFF0F002C0000200080014028130020CE
:104D700008E0FFFDC0D401006846FFF7D8FE641EBE
:104D8000002C8FD000288DD19DF800100729F3D07A
:104D90000629F1D086E770B54FF480752846FCF7F8
:104DA00096FD2D4C38B1002020702846FCF797FD69
:104DB0000120206132E00220FCF789FD28B10220A9
:104DC000FCF78DFD0220207028E00820FCF77FFD15
:104DD00028B10820FCF783FD042020701EE020206D
:104DE000FCF775FD28B12020FCF779FD0620207026
:104DF00014E01020FCF76BFD28B11020FCF76FFDCC
:104E0000052020700AE04FF400752846FCF75FFD8E
:104E100020B12846FCF763FD0720207000214CF2EA
:104E20003A30FCF7CBFC207875E60C4800680C495A
:104E3000084205D00849012048610A48FBF7E4BD53
:104E40007047002102E04008491CC9B20128FAD18C
:104E5000084670479FE7E8E72C0000200004024066
:104E60000020001000F00010F8B501210802FCF746
:104E70007FFB01214FF4F070FCF785FB4CF20370CF
:104E8000ADF8000018208DF8030003248DF80240CF
:104E9000544E69463046FCF71AF94FF68070ADF86B
:104EA0000000514D69462846FCF711F94FF23F01C9
:104EB000ADF8001069464D48FCF709F93F21ADF8FF
:104EC00000104B4F69463846FCF701F94FF460512A
:104ED000ADF8001069463046FCF7F9F83021ADF81E
:104EE000001069463046FCF7F2F82915ADF80010BD
:104EF00069463846FCF7EBF8A814ADF8000069469F
:104F00003846FCF7E4F8ADF8004069462846FCF75F
:104F1000DEF8F8BD00B597B00221019100200290A3
:104F20000391049005900690079004210891099040
:104F30000A9010210B910C900D900E900F901090F4
:104F40000902119112901390149001A815901690D7
:104F500008A8FBF72EFE01210420FBF75EFF17B027
:104F600000BD00B59FB00420ADF8040018208DF8F6
:104F7000070003208DF8060001A91B48FCF7A7F8DD
:104F80000121099100200A900B910C900D900E9038
:104F90000A070F9202910390022104910590069056
:104FA000079008920621109111900821129110216A
:104FB000139114901590169017901890090219915A
:104FC0001A9089001B911C9002A81D9009A81E90A0
:104FD00010A8FBF7EEFD01210620FBF71EFF1FB016
:104FE00000BD00000014014000180140001C0140F9
:104FF0000020014070B51B3084B21B3292B24FF0DA
:10500000D8452A202880F848260A06800480140AF9
:10501000048002802B222A800A0A02800180190A59
:10502000018003802C20288070BD78B51B3084B2AD
:105030001B3292B24FF0D8452A202880EA48260A2F
:1050400006800480140A048002802B222A800A0A27
:1050500002800180190A018003802E2129800088A6
:1050600000900020009003E0BDF80000401C00907C
:10507000BDF800000228F7D378BDDB4A4FF0D841D5
:10508000002807D001280BD002280FD0032813D006
:105090000020704736200880422010800120704791
:1050A000362008802220108001207047362008809A
:1050B000822010800120704736200880E220108076
:1050C00001207047322007F0BAB970B5FFF7FAFF38
:1050D000FF204FF0D8452880C34C208098202080A6
:1050E00006202080FFF7EEFFBA2028806020208075
:1050F000FFF7E8FFBC202880032020800E202080BE
:1051000061202080FF2020800520208020801B201F
:105110002080102020807320208063202080FF20AA
:10512000208020800520208020800020208020807A
:10513000D5202080D02020800120208000202080C9
:1051400040202080FFF7BEFFBD2028800120208066
:10515000232020804520208067202080012020807F
:10516000232020804520208067202080FFF7AAFF91
:10517000BE202880012020802D202080CB20208070
:10518000A220208062202080F2202080E220208047
:10519000222020802080FFF795FFC72028806320F1
:1051A0002080FFF78FFFED2028807F2020800F20B8
:1051B000208000202080FFF785FFC020288003206A
:1051C00020800B20208000202080FFF77BFFFC2028
:1051D000288008202080FFF775FFDF20288000202E
:1051E0002080208020802080208020202080FFF7C9
:1051F00069FFF320288074202080FFF763FFF920E7
:10520000288000202080FD20208080202080208099
:10521000C0202080FFF756FFB42028800220208085
:1052200020802080FFF74EFFF720288081202080FB
:10523000FFF748FFB1202880002020801320208025
:105240002080FFF73FFFF2202880C020208002202E
:1052500020804020208028202080FFF733FFC120BD
:10526000288017202080752020802080202020800A
:10527000FFF728FFE02028800020208005202080E4
:10528000082020800C2020800F20208015202080E6
:1052900009202080072020800120208006202080F7
:1052A0000920208016202080142020803E2020808D
:1052B000208000202080FFF705FFE12028800020CB
:1052C0002080092020801220208020801320208030
:1052D0001C2020800720208008202080052020809E
:1052E00008202080032020800220208004202080AD
:1052F0001E2020801B20208000202080FFF7E2FE5F
:105300003A20288055202080FFF7DCFE35202880B9
:1053100000202080FFF7D6FE11202880FFF7D2FE64
:1053200029202880FFF7CEFEBDE870400120A4E6CA
:105330002E4A002803D040211046FBF737BF4021FA
:105340001046FBF735BF70B52A244FF0D84634809D
:10535000050A254C2580C5B225801044401EC0F3A7
:1053600007222280C0B220802B203080080A2080B3
:10537000C8B22080C818401EC0F307212180C0B2E7
:10538000208070BD30B514461D462B462246FFF7DF
:10539000DAFF6C43002200202C214FF0D843198003
:1053A000114B02E0D1B21980401CA042FAD330BDAB
:1053B00020E63AE630B501F007040B4B21F0070276
:1053C000082C20D2DFE804F01F0406080A0C0E1493
:1053D000114617E0114614E0114611E011460EE0A7
:1053E00011460BE0114608E0FEFFFF6F0020014070
:1053F000114601E00839188018801880188018803C
:105400001880188018800029F4DC30BD30B501F018
:1054100007047C4B21F00702082C2CD2DFE804F0B3
:105420002B0406080A0C0E10114621E011461CE060
:10543000114617E0114612E011460DE0114608E052
:10544000114603E0083930F8022B1A8030F8022B9D
:105450001A8030F8022B1A8030F8022B1A8030F8AC
:10546000022B1A8030F8022B1A8030F8022B1A8097
:1054700030F8022B1A800029E4DC30BD6149088035
:105480007047C008C002890840EA41105D4940EAFF
:10549000D2000880704700F0A9B830B5594C238875
:1054A00024881D0A05700B70200A107030BD70B57D
:1054B0001446049E1D464A19521E93B20219521EEA
:1054C00092B2FFF797FD04FB05F13046BDE870404E
:1054D00070E72DE9F05F80460A9F894692469B4619
:1054E00000261CE000243D4614E009EB0B00401EA2
:1054F00083B208EB0A00401E82B209EB060081B2BB
:1055000008EB040080B2FFF790FD00F06FF825F87B
:10551000020B641C5445E8DB0B980744761C5E457F
:10552000E0DBBDE8F09F2DE9F0470D46DDE90847D7
:105530001646994605EB0908A8F101018BB28119BD
:10554000491E8AB22946FFF755FDB6EB670F0DD00D
:105550001FFA88F806E020463146FFF757FF3C4423
:105560006D1CADB24545F6D3BDE8F087204606FB7D
:1055700009F1BDE8F04749E738B501210802FCF719
:1055800002F810208DF8030003208DF8020040205F
:10559000ADF800001C4D69462846FBF798FDEC1459
:1055A000ADF8004069462846FBF791FD21462846A4
:1055B000FBF7FCFD322006F042FF21462846FBF7B0
:1055C000F7FD322006F03BFF21462846FBF7EEFDB3
:1055D000322006F034FFFFF778FD00214FF4F0731E
:1055E00040F256320846FFF7CDFE38BD054908881F
:1055F0000988C20AD202C0F3850042EA401040EA9C
:10560000D1207047FEFFFF6F0020014001B502E08E
:105610000098401E009000980028F9D108BD70B590
:1056200005460E460024002014E004EB440005EB80
:1056300080039978C90706D09A8815F820009968E0
:10564000FEF765F805E01A7915F820009968FEF76D
:1056500083F8641C08B9B442E7D1002800D1204681
:1056600070BDF0B587B00E4617464FF0FF350024E9
:105670000021ADF806108DF804000221ADF80810E5
:1056800003960121ADF812108DF81000B81EADF888
:105690001400B01C069007E0022101A8FFF7BFFF2D
:1056A0000546022D02D0641C052CF5DB052C08DB19
:1056B000707831782B4640EA0121BA1EF9482CF067
:1056C0005FFA07B02846F0BDFEB50E4617464FF00C
:1056D000FF3500240021ADF802108DF80000ADF870
:1056E0000470029607E001216846FFF798FF05461F
:1056F000012D02D0641C052CF5DB052C08DB70782D
:1057000031782B4640EA0121BA1EE7482CF038FADE
:105710002846FEBD2DE9F04389B081460E469046ED
:105720001D4600220592069207920892019202926B
:1057300003920492002422E0AA22102105A821F05D
:1057400042FE370A8DF814708DF81560AA1C05A961
:105750004846FFF786FFAB22102101A821F033FE57
:105760008DF804708DF80560AA1C01A94846FFF762
:1057700078FFAA1C01A905A821F076FE68B1204691
:10578000641CE4B20328D7D32A463146C7482CF01C
:10579000F7F9002009B0BDE8F0832A460DF10601B3
:1057A000404621F0FCFD0120F4E7FDF73EBEFDF789
:1057B00012BE10B5FDF79AFE002010BD38B54FF0AF
:1057C000FF350024BAA0006800900CE0032269466F
:1057D000BA20FFF779FF45B2002D04DDB5A02CF00B
:1057E000CFF9284638BD2046641C64B20528EDDB9D
:1057F000BAA02CF0C5F9284638BD38B5C0480068B5
:1058000000900024651E0DE003226946BA20FFF7D0
:1058100028FF45B2002D01DD284638BD2146B9A03C
:105820002CF0AEF92046641CE4B20528ECD32846DF
:1058300038BD70B50024651E0BE0FFF7DEFF05469E
:10584000002D04DDBBA02CF09BF9284670BDFFF7AE
:10585000B0FF2046641CE4B20A28EED3BEA02CF0B0
:105860008FF9284670BDFEB500200090019002908F
:1058700080258DF8005051208DF801000A226946DC
:10588000BA20FFF7EEFE002801DA0020FEBD9DF8E9
:1058900002009DF8031000EB012086B29DF8040081
:1058A0009DF8051000EB012084B28DF800505620C1
:1058B0008DF8010003226946BA20FFF7D2FE0028C6
:1058C00001DA0020FEBD9DF8020000F0030322462D
:1058D0003146ACA02CF054F90120FEBD30B585B0A6
:1058E0008748C1688068CDE90301082203A9BA206E
:1058F000FFF7B7FE0446200005D5B1A02CF040F913
:10590000204605B030BD9DF80E10B84D352916D093
:105910009DF81100002835D09DF812209DF8133015
:10592000CDE9013200909DF810309DF80F20B0A015
:105930002CF026F99DF80E0039283FD04CE09DF858
:1059400013209DF81130CDE900329DF8120002902D
:105950009DF810309DF80F20B1A02CF011F99DF8A2
:105960000E00352838D19DF80F00362834D19DF827
:105970001000382830D19DF8110038282CD1022091
:10598000287029E09DF812009DF81320CDE9002031
:105990009DF810309DF80F20ADA02CF0F1F89DF887
:1059A0000E00392818D19DF80F00312814D19DF828
:1059B0001000312810D1012028700DE09DF80F0053
:1059C000312809D19DF81000352805D19DF8110026
:1059D000372801D100202870204692E72DE9F041B8
:1059E00000254FF4817038F09FF904468020207024
:1059F00050206070FDF7ADFDFFF7FFFE8046B8F167
:105A0000000F05DA9EA02CF0BBF84046BDE8F081FF
:105A1000FFF764FF75480078022802D1384F10372D
:105A2000EF264FF48071A01C21F0D4FC3246394699
:105A3000A01C21F0B4FC2020E07003202071E020A5
:105A400060710121A171207A40F0080020720220CB
:105A5000771E07E02218235C527805EB03231A44D3
:105A600095B2801CB842F5DB6842030AA21902F81D
:105A7000013CA05551700025321D2146BA20FFF788
:105A800023FE002802DC6D1C052DF5DB8748FFF79F
:105A9000BDFDFDF7CAFCFFF7E6FE204635F052F8E3
:105AA0000020B3E72C5405087C540508E85305088A
:105AB000804000003C3C2D4754502D494E464F2D10
:105AC0003E3E2073656E6420636F6D6D616E642071
:105AD00073756363657373210A0000003C3C2D47B6
