:020000040800F2
:1000000030CF0020DD010008211A0008231A000863
:100010002B1A00082D1A00082F1A000800000000F3
:100020000000000000000000000000004501000882
:10003000311A00080000000089010008331A000886
:10004000F7010008F7010008F7010008F7010008B0
:10005000F7010008F7010008F7010008F7010008A0
:10006000F7010008F7010008F7010008F701000890
:10007000F7010008F7010008F7010008F701000880
:10008000F7010008F7010008F7010008F701000870
:10009000F7010008F7010008F7010008F701000860
:1000A000F7010008F7010008F7010008F701000850
:1000B000F7010008F7010008F7010008F701000840
:1000C000F7010008F7010008F7010008F701000830
:1000D000F7010008F7010008F7010008F701000820
:1000E000F7010008F7010008F7010008F701000810
:1000F000F7010008F7010008F7010008F701000800
:10010000F701000859390008F7010008F701000855
:10011000F7010008F7010008F7010008F7010008DF
:10012000F7010008F7010008F7010008F7010008CF
:10013000DFF80CD010F0CAFA004800479519000803
:1001400030CF0020224B19680868B0E8F00F80F328
:100150000988BFF36F8F4FF0000080F311884EF0D5
:100160000D0E70470000000006480068006880F32C
:10017000088862B661B6BFF34F8FBFF36F8F00DFA1
:1001800000BF00BF08ED00E0EFF30980BFF36F8F01
:100190000F4B1A6820E9F00F106008B54FF05000BF
:1001A00080F31188BFF34F8FBFF36F8F09F03AFDD3
:1001B0004FF0000080F31188BDE808401968086816
:1001C000B0E8F00F80F30988BFF36F8F704700BF6E
:1001D00080000020EFF3058070470000064880474C
:1001E00006480047FEE7FEE7FEE7FEE7FEE7FEE71C
:1001F000FEE7FEE7FEE7FEE7A9020008310100087E
:100200000CB50022019200925248016841F48031FD
:1002100001604FF4A063016801F40031009101997D
:10022000491C0191009911B901999942F3D10168D2
:10023000890302D50121009100E000920099012973
:1002400030D145490A6842F010020A600A6822F07B
:1002500003020A600A6842F002020A6041684160D3
:1002600041684160416841F480614160416821F426
:100270007C114160416841F4E8114160016841F03E
:100280008071016001688901FCD5416821F003019A
:100290004160416841F0020141604168C1F3810160
:1002A0000229FAD10CBDABE710B52A48016841F02C
:1002B000010101604168294A114041600168284AF2
:1002C00011400160016821F480210160416821F43E
:1002D000FE0141604FF41F018160FFF7E4FF2149F7
:1002E0004FF00060086010BD10B51A4A506800F069
:1002F0000C011D4B1D4800290ED004290ED00829E1
:100300000ED003605168194AC1F30311121D515CEC
:100310000268CA40026010BD0360F3E70360F1E7C2
:10032000516801F47011536803F48033022404EB24
:10033000914133B153689B0307D50D4B594301607D
:10034000E0E70B4B59430160DCE7074B5943016081
:10035000D8E7000000100240002002400000FFF833
:10036000FFFFF6FE08ED00E000127A00000000201A
:1003700000093D002A4908432A490860704770B5C2
:100380000F23C27801260178002A1ED0254A126860
:1003900002F4E062C2F5E062120AC2F10404D34042
:1003A0004578A54082781A402A43120101F1E021E4
:1003B00081F80024007800F01F018E404009800081
:1003C00000F1E020C0F8006170BD01F01F00864020
:1003D0004809800000F1E020C0F8806170BD124A39
:1003E000114001430F48001F016070470D4A121D64
:1003F000002903D0116801431160704711688143DF
:10040000116070474FF0E021042804D0086920F003
:10041000040008617047086940F0040008617047F3
:100420000000FA050CED00E080FFFF1F01684FF6A9
:10043000FE72114001600021016041608160C16075
:100440007249724A0839904204D1486840F00F005E
:10045000486070476D4A1432904204D1486840F0B9
:10046000F00048607047694A2832904204D14868D9
:1004700040F4706048607047644A3C32904204D156
:10048000486840F4704048607047604A503290427B
:1004900004D1486840F47020486070475B4A643279
:1004A000904204D1486840F4700048607047574A51
:1004B0007832904204D1486840F0706048607047DC
:1004C000534A111F904204D1086840F00F000860A1
:1004D00070474F4A1432904204D1086840F0F0004F
:1004E000086070474A4A2832904204D1086840F4B4
:1004F000706008607047464A3C32904204D10868F8
:1005000040F4704008607047414A50329042FAD13E
:10051000086840F470200860704730B5026847F6FC
:10052000F0739A430C6A8B682343D1E904452C434A
:1005300023438C692343CC6923434C6A23438C6A4D
:10054000234313430360CA6842600A6882604968B3
:10055000C16030BD0021016041608160C160016106
:1005600041618161C161016241628162704700291C
:1005700004D0016841F001010160704701684FF645
:10058000FE72114001607047002A03D002680A43DE
:100590000260704702688A4302607047416070479A
:1005A000406880B2704702460020D10003D5184948
:1005B0000839096802E0154908390968114200D074
:1005C00001207047C10003D51149091F0860704719
:1005D0000E4908394860704702460020D10003D513
:1005E0000B490839096802E00849083909681142CD
:1005F00000D001207047C10003D50549091F0860DC
:1006000070470249083948607047000008000240FE
:1006100008040240384900200860091D0860091DCF
:100620000860091D08603449344814310860704777
:1006300030B5314A83790168002B2AD013688B4387
:100640001360111D0B680468A3430B60017911440A
:100650000B68046823430B60274C08342168036847
:1006600099432160231D19680568A94319604179E0
:10067000102905D011440A68006802430A6030BDA1
:1006800021680268114321601968006801431960FC
:1006900030BD0079104402688A43026030BD0021F9
:1006A000016001710C224271817170471249103151
:1006B0000A6802430A607047014600200E4A14325D
:1006C00012680A4200D0012070470B4914310860BB
:1006D000704701460020084A12680A40064B14334E
:1006E0001B680B4202D0002A00D00120704702494B
:1006F000143108607047000000040140FFFF0F0044
:100700008100A1F1C04100280CD043F2D2020A605E
:10071000401C8000A0F1C0406FF070420260C1F840
:10072000042170474FF0204343F2DB021A60EFE7E9
:1007300010B5182440234FF020414FF0FC32102810
:1007400005D041F8804F4B608A60CA6010BD0C66CE
:100750004B668A66CA6610BDF74818210160002101
:1007600041604FF0FC318160C1600161704710B59C
:10077000D0E901121143D0E903231A43114342691E
:10078000114382691143C2691143026A1143426AEB
:100790001143826A1143C26A1143026B114302681A
:1007A0009200A2F1C04211608168082907D1016856
:1007B0008900A1F1C0410A6842F040020A60416B21
:1007C000D1E9002342EA03128B688C891B0243EAB9
:1007D00004431A430B8A42EA03520B7D896942EAB9
:1007E00003620A430168491C8900A1F1C0410A6003
:1007F000C16AB1F5804F08D000686FF07041800089
:10080000A0F1C040C0F8041110BD816BD1E90023F4
:1008100042EA03128B680C8A1B0243EA04531A4310
:100820000B7D896942EA036200680A438000A0F1F7
:10083000C040C0F8042110BD30B5D0E90112114309
:10084000D0E903231A431143426941EA42218269F4
:1008500041EA423141F00804C169D1E9002342EA8A
:1008600003220B89097B1B0443EA01610A43016AE5
:10087000D1E9003543EA05230D89097B2D0445EABA
:1008800001610B4301684FF02040102904D040F86B
:10089000804F8260C36030BD04668266C36630BD2F
:1008A00010B5D0E9001241EA42218268102343EAE0
:1008B00042321143A04A1160C168D1E9003443EAD1
:1008C00004230C89097B240444EA01610B439360EF
:1008D0000169D1E9003443EA04230C89097B24042B
:1008E00044EA01610B43D3604069D0E9001341EA57
:1008F00003210389007B1B0443EA0060014311616B
:1009000010BD10B500210160022242608160C1600B
:10091000016141618161C1610162D20242625200A2
:100920008262C1620163436B0F221A60436B5A609B
:10093000446BFF23A360446BE260446B2261446B11
:100940006261446BA161846B2260846B6260846B22
:10095000A360836BDA60836B1A61836B5A61806B6F
:10096000816110BD10210160002141608160C16082
:10097000016141618161C269FC211160C2695160FC
:10098000C2699160C269D160026A1160026A5160F5
:10099000026A9160006AC160704700210160416095
:1009A0008160C268FC211160C2685160C2689160B8
:1009B000C268D16002691160026951600269916088
:1009C0000269D16042691160426951604269916077
:1009D0004069C16070478000A0F1C040002904D088
:1009E000016841F00101016070470168534A1140FC
:1009F000016070474FF0204200290CD0102805D02C
:100A000052F8800F40F0040010607047106E40F004
:100A10000400106670474949C91E102804D052F8D6
:100A2000800F084010607047106E084010667047D5
:100A30004FF02041002805D051F8A00F40F00400ED
:100A40000860704751F8A00F3C4AD21E1040086061
:100A500070474FF0204200290CD0102805D052F8E2
:100A6000800F40F0400010607047106E40F0400072
:100A70001066704731493F39102804D052F8800F72
:100A8000084010607047106E0840106670474FF0C5
:100A90002041102802D0D1F894007047486F704769
:100AA00010B54FF480744FF02043002A11D0102865
:100AB00006D0A04208D153F8840F0843186010BD37
:100AC000586E0843586610BD53F8A40F08431860C9
:100AD00010BD102806D0A04208D153F8840F8843D7
:100AE000186010BD586E8843586610BD53F8A40FA7
:100AF0008843186010BD034600204FF02042102BA1
:100B000008D0B3F5807F07D0D2F8A4200A4200D0E5
:100B100001207047526EF9E7D2F88420F6E74FF0D3
:100B2000204210280CD0B0F5807F0DD052F8A40FD1
:100B30008843106070470000A00000A0FEFF0F0077
:100B4000506E88435066F5E752F8840F8843106072
:100B5000F0E7034600204FF02042102B0ED0B3F5F3
:100B6000807F0DD0D2F8A42002EA010302EAD1016D
:100B7000002BDFD00029DDD00120DBE7526EF3E748
:100B8000D2F88420F0E74FF02042102808D0B0F5CA
:100B9000807F0AD052F8A40F20EAD1001060C9E784
:100BA000506E20EAD1005066C4E752F8840F20EA64
:100BB000D1001060BEE7000010B59C49884209D101
:100BC0000121042000F07DFA0021BDE8104004203E
:100BD00000F077BA9649884209D10121082000F037
:100BE00070FA0021BDE81040082000F06ABA91496F
:100BF000884209D10121102000F063FA0021BDE8EC
:100C00001040102000F05DBA8B49884209D10121C3
:100C1000202000F056FA0021BDE81040202000F00E
:100C200050BA8649884209D10121402000F049FA92
:100C30000021BDE81040402000F043BA80498842BE
:100C400009D10121802000F03CFA0021BDE81040CC
:100C5000802000F036BA7B4988420AD184150121F0
:100C6000204600F02EFA2046BDE81040002100F09A
:100C700028BA10BD10B50121084600F022FA002163
:100C8000BDE81040012000F01CBA2DE9F04100221F
:100C9000CC7804F00F03E40601D58C7823430C785C
:100CA0004FF00F0714F0FF0F4FF0010C1CD0056838
:100CB0000CFA02F40E882640A64211D1960007FADB
:100CC00006F825EA080503FA06F848EA0505CE788D
:100CD000282E02D0482E02D002E0446100E00461D8
:100CE000521C082AE4D305600A88FF2A1ED94568E9
:100CF000002202F108060CFA06F40E882640A642ED
:100D000010D1960007FA06F825EA080503FA06F856
:100D100048EA0505CE78282E00D14461CE78482EC9
:100D200000D10461521C082AE3D34560BDE8F0817C
:100D30004FF6FF710180022181700421C17070475C
:100D40000246002092680A4200D001207047806865
:100D500080B2704702460020D2680A4200D00120CB
:100D60007047C06880B27047016170474161704749
:100D7000002A01D00161704741617047C16070472E
:100D800041F480328261816182618169806970474A
:100D900010B52D4B1A684FF68074224042EA0010BD
:100DA0000843186010BD2949C8617047F0B5264C4A
:100DB000002801DAE36900E06368C0F30346420DEE
:100DC000120185B2C0F301579540032F07D0C2022C
:100DD0000CD50322B240934343F0706209E023F044
:100DE0007062636823F07063636002E0AB4343F0BA
:100DF000706201B12A43002801DAE261F0BD62604D
:100E0000F0BD10B58A07120F0F23934021F00304A1
:100E10000D4921448C689C438C608B68904003434F
:100E20008B6010BD0949DC31086070470008014043
:100E3000000C014000100140001401400018014066
:100E4000001C014000200140000001400000204241
:100E5000B448016841F0010101604168B24A1140A3
:100E600041600168B14A11400160016821F48021AC
:100E70000160416821F4FE0141604FF41F0181606F
:100E80007047A8490A6822F480320A600A6822F48E
:100E900080220A60B0F5803F07D0B0F5802F03D1E3
:100EA000086840F4A02008607047086840F480306B
:100EB000086070470346002059099A4A01290AD060
:100EC00002290AD0516A03F01F02012393400B420A
:100ED00000D0012070471168F5E7116AF3E718B5F3
:100EE000002000904FF4A0643120FFF7E3FF009949
:100EF000491C00910099A14201D00028F4D0312072
:100F0000FFF7D8FF08B1012018BD002018BD854AA1
:100F1000116821F0F80141EAC0001060704784496F
:100F2000086070477F4B5A6822F47C1208431043D4
:100F3000586070477E49086670477A4A516821F0C8
:100F400003010143516070477648406800F00C008F
:100F50007047744A516821F0F001014351607047B5
:100F6000704A516821F4E0610143516070476D4A55
:100F7000516821F4605141EAC00050607047694AED
:100F8000002903D0517A014351727047517A81434D
:100F9000517270476649D83108607047614A51689C
:100FA00021F440410143516070475E4900222031E5
:100FB0000A7001F82029012805D0042802D1052053
:100FC00081F820007047012081F8200070475949BE
:100FD0000860704753490A6A02430A6270475549DC
:100FE00044390860704710B54E4A516801F00C0151
:100FF000514B002927D0042927D0082927D0036086
:10100000516801F0F00109094C4B5C5C0168E1405A
:101010004160546804F4E064240A1C5D21FA04F47D
:101020008460546804F46054E40A1B5DD940C160D4
:10103000526802F44042920B404B1B1F9A5CB1FB7A
:10104000F2F1016110BD0360DAE70360D8E751688F
:1010500001F47011536803F48033022404EB9141CE
:1010600033B153689B0307D5354B59430160C7E73C
:10107000334B59430160C3E72F4B59430160BFE72E
:10108000284A002903D051690143516170475169D1
:10109000814351617047234A002903D0916901437C
:1010A0009161704791698143916170471D4A0029A0
:1010B00003D0D1690143D1617047D1698143D161C6
:1010C0007047184A002903D0D1680143D1607047A6
:1010D000D1688143D1607047124A002903D0116959
:1010E00001431161704711698143116170471149D2
:1010F0004039086070470E49C86470470949C87193
:1011000070470848416A41F080714162704701466A
:101110000020044A92680A4200D001207047014929
:1011200088727047001002400000FFF8FFFFF6FED3
:10113000000042428004424200127A00180000205F
:1011400000093D0066480021016041608160C16086
:1011500041628162C162634A8263C163704730B594
:101160005F4B596847F6FF629143027D8468C5680A
:10117000224344682C43224304680069224302430B
:101180000A435A6030BD00210175016041608160F1
:10119000C1600161704754490860704750490A684E
:1011A00022F003020A600A6802430A6070474C4852
:1011B000006800F003007047494A002903D0D16B52
:1011C0000143D1637047D16B8143D1637047474975
:1011D0000860704710B5424902688A60CA686FF3B8
:1011E0000A02D0E901342343D0E9034004432343F6
:1011F0001343CB6010BD0021016041608160C1607C
:101200000161704736480069C0B2704708B534497B
:101210001431084400900098006808BD10B53049AA
:1012200002684A6242688A62CA6A22F0F702D0E91A
:1012300002342343D0E90440044323431343CB62E5
:1012400010BD4FF0FF310160002141608160C1603D
:101250000161416170472248006B7047204880302F
:10126000006870471E498031086070471C48806CD8
:1012700070471E491431086070471C4918310860D6
:1012800070471A491C3108607047184920310860BE
:1012900070471749086070471549091D0860704775
:1012A00001218143124808300160704710490C3118
:1012B0000860704701460020094A526B0A4200D07C
:1012C0000120704706498863704701460020044AA0
:1012D000526B0A4200D00120704701498863704771
:1012E00000800140FF07C000A00030428C05304262
:1012F000AC01304210B5A94988420AD184140121B9
:101300002046FFF7DEFE2046BDE810400021FFF733
:10131000D8BEA34988420AD1041401212046FFF710
:10132000DBFE2046BDE810400021FFF7D5BE9D49F9
:1013300088420AD1C41301212046FFF7CDFE204682
:10134000BDE810400021FFF7C7BE10BD30B50288D0
:1013500002F441530A884C88CD8822438C882C4360
:1013600022430C8922434C8922438C892243CC8915
:1013700022431A430280828B22F400628283098A0C
:10138000018230BDF0B585B005460C460220002133
:101390000126AA8B4FF240031A40AA8302222A8414
:1013A000AF8BA268022A21D0A08800B1022668462D
:1013B000FFF719FE0098E188B1F5007F2CD071018C
:1013C000B0FBF1F000EB8000A1684000B0FBF1F051
:1013D000401D80B20A21B0FBF1F000F00101401A7B
:1013E000C0F34F004FF6FF7202EA0121821EFE2A6F
:1013F00001D302200021E288084302432A84208886
:101400006188A2890843A18811430843384340F406
:101410000060A88305B0F0BD000A00EB8000A16861
:101420004000B0FBF1F0401D80B2D3E70021018005
:1014300041808180C180018141818181C1810721F9
:10144000018270470021018041808180C180022299
:10145000826081817047002904D0018841F04001F9
:1014600001807047018821F0400101807047002908
:1014700004D0818B41F4806181837047818B21F49A
:10148000806181837047090901238B4099B2002A4A
:1014900003D082880A438280704782888A43828090
:1014A0007047002A03D082880A438280704782886E
:1014B0008A43828070478181704780897047A1F597
:1014C0007E42FF3A04D0018841F480710180704768
:1014D000018821F4807101807047002904D081883F
:1014E00041F0040181807047818821F004018180EE
:1014F0007047028822F40062028002880A43028058
:101500007047018841F4805101807047002904D060
:10151000018841F4005101807047018821F4005195
:1015200001807047012901D0008B7047808A704785
:10153000008A7047B1F5804F04D0018821F48041C2
:1015400001807047018841F4804101807047024664
:10155000002012890A4200D001207047C94301814E
:10156000704730B50246002001F00F03012505FA4F
:1015700003F4A3B2090905FA01F4A4B29188214049
:1015800012891A4202D0002900D0012030BD01F09A
:101590000F0201219140C943018170470030014091
:1015A00000380040003C004010B5E14988420AD1B3
:1015B00001218C032046FFF784FD2046BDE8104042
:1015C0000021FFF77EBDDB4988420AD101214C048E
:1015D0002046FFF781FD2046BDE810400021FFF7BF
:1015E0007BBDD54988420AD101218C042046FFF7F2
:1015F00073FD2046BDE810400021FFF76DBDCF49C7
:1016000088420AD10121CC042046FFF765FD20461F
:10161000BDE810400021FFF75FBDC94988420AD1EB
:1016200001210C052046FFF757FD2046BDE810407C
:101630000021FFF751BD10BD30B585B004460D4601
:10164000208A4CF6FF710840E98801432182A08975
:101650004EF6F3110840A9882A8911436A8902438A
:101660001143A181A08A4FF6FF410840A989014397
:10167000A1826846FFF7B7FCAD48844201D10398C8
:1016800000E00298A189090408D500EBC00101EB34
:10169000001029684900B0FBF1F007E000EBC00141
:1016A00001EB001029688900B0FBF1F06422B0FB67
:1016B000F2F109010B096FF018056B4300EB830091
:1016C000A3891D044FF0320307D503EBC000B0FB24
:1016D000F2F000F00700084306E003EB0010B0FB57
:1016E000F2F000F00F000843208105B030BD4FF448
:1016F0001651016000218180C18001810C2242814C
:101700008181704710B5038A4FF2FF0213400A88A7
:101710004C8822438C88C9880C4322431A43028296
:1017200010BD0021018041808180C1807047002967
:1017300004D0818941F4005181817047818921F46D
:1017400000518181704710B540F66A13C1F342130E
:1017500001F01F040121A140012B07D0022B07D06B
:1017600014303AB102680A43026010BD0C30F8E749
:101770001030F6E702688A43026010BD002A03D0E9
:10178000828A0A4382827047828A8A4382827047B1
:10179000028A22F00F020282028A0A430282704702
:1017A000828922F40062828182890A4382817047A1
:1017B000002904D0818941F002018181704781892B
:1017C00021F0020181817047028A22F02002028208
:1017D000028A0A4302827047002904D0018A41F438
:1017E000804101827047018A21F480410182704763
:1017F000C1F30801818070478088C0F308007047FA
:10180000818941F0010181817047028BD2B202834C
:10181000028B42EA012101837047028B02F47F426E
:101820000283028B0A4302837047002904D0818A15
:1018300041F0200181827047818A21F0200181825C
:101840007047002904D0818A41F0100181827047DD
:10185000818A21F0100181827047002904D0818A99
:1018600041F0080181827047818A21F0080181825C
:101870007047002904D0818941F40041818170477B
:101880008189C1F30E0181817047002904D0818ACA
:1018900041F4006181827047818A21F40061818274
:1018A0007047828A22F004028282828A0A438282FC
:1018B0007047002904D0818A41F00201818270477B
:1018C000818A21F00201818270470246002012883D
:1018D0000A4200D0012070478A05C9430180704741
:1018E00070B5002440F66A12C1F3421301F01F05DF
:1018F000012606FA05F2012B0CD0022B0DD0838AAB
:101900001340090A8E40008830400BB100B1012419
:10191000204670BD83891340F3E7038A1340F0E744
:1019200040F66A120A0A01219140C94301807047BA
:10193000003801400044004000480040004C004096
:10194000005000401EA018F091F90AF0EEFE224D62
:1019500020244FF4FA772E1F2C6020A018F086F96F
:10196000384608F08BF8346023A018F07FF9384629
:1019700008F084F8F0E710B500F096FB00F06AF884
:1019800001F0F6FF02F04AF802F06FF8BDE81040EF
:1019900000F0BABB1CB5FFF7EEFF00200321CDE934
:1019A000001003464FF400621BA11C4807F074FEB0
:1019B000012802D04FF0FF301CBD08F081FAFEE78D
:1019C000D2B0BBF0656D58475549D1DDCABEC0FDE8
:1019D000B3CC0A0A00000000140C01405465737473
:1019E0005F5461736B2052756E6E696E672C4C4547
:1019F00044315F4F4E0D0A00546573745F54617338
:101A00006B2052756E6E696E672C4C4544315F4F8A
:101A100046460D0A00000000677569004519000878
:101A2000704709A018F022F9FEE7FEE7FEE7FEE79F
:101A3000704710B508F0A1FB012803D0BDE81040A5
:101A400008F0BDBF10BD0000486172644661756C4E
:101A5000740A000010B586B001210420FFF71BFBBB
:101A600001218803FFF717FB4FF40070ADF8140055
:101A700018208DF8170003208DF81600494C05A991
:101A80002046FFF702F92115ADF8141004218DF856
:101A9000171005A92046FFF7F8F84FF4E130019040
:101AA0000020ADF80800ADF80A00ADF80C00ADF864
:101AB00010000C20ADF80E003B4C01A92046FFF7AA
:101AC000BBFD01212046FFF732FE06B010BD10B568
:101AD00004462046FFF78CFE80212046FFF7F5FEE6
:101AE0000028F9D010BD2DE9F04107460D461646F5
:101AF000002405E0295D3846FFF7E9FF641CE4B2E5
:101B0000B442F7D340213846FFF7DFFE0028F9D072
:101B1000BDE8F08170B506460D4600243046295DCB
:101B2000FFF7D5FF641C285D0028F7D1402130461F
:101B3000FFF7CBFE0028F9D070BD70B50546080A46
:101B4000CCB201462846FFF753FE80212846FFF716
:101B5000BCFE0028F9D021462846FFF749FE802127
:101B60002846FFF7B2FE0028F9D070BD70B50446D4
:101B70000D4DE1B22846FFF73BFE80212846FFF7D6
:101B8000A4FE0028F9D0204670BD10B5064C2021D7
:101B90002046FFF79AFE0028F9D02046BDE8104005
:101BA000FFF72ABE000801400038014010B5F9A037
:101BB00018F05CF8002010BD2DE9F0410746FF4CFD
:101BC0004FF480552560FE4E08E02068411E2160DC
:101BD00004D2FFF7EBFFC0B2BDE8F081022130462E
:101BE000FFF7B5FC0028F0D039463046FFF763FC1C
:101BF000256007E021684A1E226003D2FFF7D6FF66
:101C0000C0B2E9E701213046FFF7A1FC0028F1D07E
:101C10003046FFF752FCC0B2DEE72DE9F041E94F54
:101C200010213846FFF7A2F89F20FFF7C5FFFF20DD
:101C3000FFF7C2FF0446FF20FFF7BEFF0546FF2067
:101C4000FFF7BAFF064610213846FFF78DF820044B
:101C500040EA05203043BFE710B586B001210803F4
:101C6000FFF719FA01210420FFF715FA1020ADF84B
:101C7000000003218DF802108DF80300D14C694655
:101C80002046FFF702F801210420FFF704FA202183
:101C9000ADF8001018218DF8031069462046FEF7B4
:101CA000F4FF01210420FFF7F6F94021ADF8001000
:101CB00069462046FEF7E9FF01210420FFF7EBF912
:101CC0008021ADF8001069462046FEF7DEFF1021A6
:101CD0002046FFF749F80020ADF804004FF4827168
:101CE000ADF80610ADF808000221ADF80A10012188
:101CF000ADF80C104902ADF80E100821ADF8101027
:101D0000ADF812000720ADF81400AD4C01A9204633
:101D1000FFF71CFB01212046FFF79DFBFFF77DFF2E
:101D2000A949884202D1012006B010BD0020FBE77E
:101D300070B5A44D10212846FFF718F80520FFF7CD
:101D40003BFF9E4CA8142060FF20FFF735FF216861
:101D50004A1E226002D2BDE8704027E7C007F3D1D7
:101D60002846BDE870401021FEF7FEBF10B5954C27
:101D700010212046FEF7FAFF0620FFF71DFF204640
:101D8000BDE810401021FEF7EFBF70B50446FFF725
:101D9000EDFFFFF7CDFF8B4D10212846FEF7E6FF44
:101DA0002020FFF709FFC4F30740FFF705FFC4F346
:101DB0000720FFF701FFE0B2FFF7FEFE10212846E3
:101DC000FEF7D2FFBDE87040B2E710B5FFF7CEFFD7
:101DD0007C4C10212046FEF7C9FFC720FFF7ECFE20
:101DE00010212046FEF7C0FFBDE81040A0E72DE916
:101DF000F04105460F461446FFF7B8FF714E10211B
:101E00003046FEF7B3FF0220FFF7D6FEC7F30740C8
:101E1000FFF7D2FEC7F30720FFF7CEFEF8B2FFF7B9
:101E2000CBFEB015844205D9044603E02878FFF7BD
:101E3000C3FE6D1C641EA4B2F8D210213046FEF71A
:101E400093FFBDE8F04173E72DE9F04706460D46E4
:101E5000E8B24142CFB2140A02F0FF094FF4807891
:101E6000002812D0E8B24042C0B205EB000A24B309
:101E7000D01B80B2040A00F0FF093A4629463046DA
:101E8000FFF7B5FF55463E4435E06CB9294630466C
:101E9000FFF7ADFF3AE0424629463046FFF7A7FF7D
:101EA00005F5807506F58076641EE4B2F3D24A46E5
:101EB00029463046FFF79BFF28E0B9450DD9A9EB2D
:101EC0000700C4B23A4629463046FFF790FF514614
:101ED000F0192246FFF78BFF18E029463046FFF73E
:101EE00086FF13E0424629463046FFF780FF05F59E
:101EF000807506F58076641EE4B2F3D2B9F1000F66
:101F000004D04A4629463046FFF771FF0120BDE85C
:101F1000F0872DE9F04104460F461546294E102161
:101F20003046FEF723FF0320FFF746FEC7F30740C6
:101F3000FFF742FEC7F30720FFF73EFEF8B2FFF7B8
:101F40003BFE04E0FF20FFF737FE04F8010B6D1E97
:101F5000681CF7D13046BDE8F0411021FEF704BF00
:101F600070B5184C10212046FEF700FFAB20FFF79C
:101F700023FEFF20FFF720FEFF20FFF71DFEFF20BE
:101F8000FFF71AFEFF20FFF717FE05461021204637
:101F90001CE000003C3C2D464C4153482D4552521C
:101FA0004F522D3E3E205350492054696D656F7548
:101FB00074206572726F72210A00000028000020F0
:101FC00000300140000801401740EF00FEF7CCFE52
:101FD000284670BD10B5044610213048FEF7C6FEF5
:101FE0000320FFF7E9FDC4F30740FFF7E5FDC4F365
:101FF0000720FFF7E1FDE0B2BDE81040DCE5FF207F
:10200000DAE52DE9F0410746254C4FF4805525606F
:10201000244E06E02068411E216002D2BDE8F04156
:10202000C4E502213046FFF792FA0028F2D0394683
:102030003046FFF740FA256006E021684A1E22601C
:1020400002D2BDE8F041B1E501213046FFF77FFA49
:102050000028F2D03046BDE8F041FFF72EBA10B5A7
:102060000E4C10212046FEF781FEB920FFF7A4FD9B
:102070002046BDE810401021FEF776BE10B5074C93
:1020800010212046FEF772FEAB20FFF795FD20469B
:10209000BDE810401021FEF767BE000000080140B7
:1020A000280000200030014038B501210820FEF74B
:1020B000F2FF2020ADF8000010208DF8030003206F
:1020C0008DF802000F4C69462046FEF7DEFD012127
:1020D000ADF8001069462046FEF7D7FD0221ADF8A5
:1020E000001069462046FEF7D0FD20212046FEF76D
:1020F0003BFE01212046FEF737FE02212046FEF777
:1021000033FE38BD000C014038B501211420FEF724
:10211000C2FF0120ADF8000004248DF80340694699
:102120000F48FEF7B2FDE002ADF800008DF8034065
:1021300069460C48FEF7A9FD38BD70B504460D464A
:1021400029462046FEF7FCFD012801D0002070BD85
:1021500029462046FEF7F4FD0128F9D0012070BD84
:10216000000801400010014001B502E00098401E47
:10217000009000980028F9D108BD1FB54FF40074F5
:10218000ADF8004004208DF803006946F548FEF7DD
:102190007CFD09210520FEF734FE029400208DF815
:1021A0000C0008208DF80D0001248DF80E4002A8C7
:1021B000FEF73EFA4FF4C060FEF7DCF817208DF80A
:1021C00004008DF805408DF806408DF8074001A801
:1021D000FEF7D5F81FBD1FB54FF40074ADF80040F1
:1021E00004208DF803006946DE48FEF74EFD092104
:1021F0000520FEF706FE029400248DF80C4008200E
:102200008DF80D008DF80E4002A8FEF711FA4FF47C
:10221000C060FEF7AFF817208DF8040001208DF89C
:1022200005008DF806008DF8074001A8FEF7A7F815
:102230001FBDF8B501218020FEF72DFF01210846C2
:10224000FEF729FF4FF48060ADF8000014208DF8F0
:10225000030003248DF80240C24E69463046FEF763
:1022600014FD4021ADF8001069463046FEF70DFD23
:10227000F014ADF8000010258DF803508DF80240E1
:1022800069463046FEF701FD6901ADF800108DF892
:1022900003508DF8024069463046FEF7F6FCF8BD63
:1022A000F8B54FF40074ADF8004010208DF803002D
:1022B00003258DF80250AB4E69463046FEF7E5FC2B
:1022C00021463046FEF752FDA70039463046FEF75C
:1022D0004DFDC82000F058F90120FFF745FF3946B1
:1022E0003046FEF741FD44F6206000F04DF9ADF8B0
:1022F000004004218DF803108DF8025069463046E5
:10230000FEF7C3FCF8BD10B501210846FEF7C3FE79
:10231000FFF78FFFFFF7C4FFBDE810405BE7002029
:10232000401CC0B2C828FBD3704770B58D4C40210B
:102330002046FEF719FD251529462046FEF714FD17
:10234000FFF7EDFF40212046FEF710FDFFF7E7FF06
:1023500029462046FEF70AFDBDE87040DFE710B5CC
:10236000804C40212046FEF701FD21152046FEF756
:10237000FBFCFFF7D4FF2046BDE810404021FEF7EC
:10238000F3BC2DE9F04105460024764E4FF48067FA
:10239000280604D540213046FEF7E6FC03E0402144
:1023A0003046FEF7E3FCFFF7BAFF39463046FEF74A
:1023B000DBFCFFF7B4FF39463046FEF7D7FC072CAD
:1023C00003D140213046FEF7CFFC6806050EFFF72B
:1023D000A6FF641CE4B2082CDAD3BDE8F0812DE935
:1023E000F041002400255F4E4FF480676006040E24
:1023F00039463046FEF7B8FCFFF791FF40213046E2
:10240000FEF79EFC08B1641CE4B239463046FEF784
:10241000ADFCFFF784FF6D1CEDB2082DE6D320461E
:10242000DBE770B54F4D40212846FEF79DFCFFF7D6
:1024300076FF2E1531462846FEF796FCFFF76FFF14
:1024400040212846FEF77CFC08B1012400E000246E
:1024500031462846FEF78AFCFFF761FF204670BD33
:1024600070B5404C40212046FEF780FCFFF757FF37
:10247000251529462046FEF777FCFFF750FF294631
:102480002046FEF773FCFFF74AFF2046BDE8704088
:102490004021FEF769BC70B5324C40212046FEF762
:1024A00063FCFFF73CFF251529462046FEF75CFC40
:1024B000FFF735FF29462046FEF758FCBDE870407F
:1024C0002DE770B506460D461446FFF72EFF46F081
:1024D0000100FFF756FFFFF7A4FF88B1FFF73FFFAA
:1024E000012070BD012C03D1FFF7D5FFFFF737FFA7
:1024F000FFF775FF05F8010B641EA4B2FFF7B0FFEC
:10250000002CEFD1FFF72BFF002070BD2DE9F0412B
:1025100080460E461546FFF722FF00244FF47A77D7
:10252000FFF703FF4046FFF72CFFFFF77AFF18B1D4
:10253000641CA4B2BC42F3D3BC4206D00AE030789B
:10254000FFF71FFFFFF76DFF18B1FFF708FF01202E
:1025500043E7761C6D1EEDB2F1D2FFF700FF0020BD
:102560003BE70000001C01401748016841F0807102
:102570000160164800214160016841F001010160DD
:10258000704712484068704701B50022FFF7ECFF22
:102590000F4810490068B0FBF1F300984343FFF780
:1025A000F0FF0146FFF7EDFF8842FBD003D9A0EB17
:1025B00001010A4403E06FEA010101440A440146B3
:1025C0009A42EFD308BD0000FCED00E0001000E0EF
:1025D0000000002040420F0038B50020FEF7DBFD70
:1025E0000020FEF7DBFDFEF7ADFD00214FF480601B
:1025F000FEF746FD4FF4F850ADF8000004248DF8C6
:1026000003406946FB48FEF740FBADF800406946D1
:10261000F948FEF73AFB38BD08B54FF4C060FDF746
:10262000A9FE31208DF8000000208DF801008DF802
:10263000020001208DF803006846FDF7A0FE08BDEA
:10264000EE48FDF7B0BF70B58CB005460C46EC48BF
:10265000FDF7B8FFEB4E00213046FDF788FFEA4852
:102660000190029500200390A1080491059080211B
:1026700006918900079189000891099089000A91C3
:102680000B9001A93046FDF748FF01213046FDF7C8
:102690006EFF0CB070BD70B58CB004460D46D848C6
:1026A000FDF790FFD74E00213046FDF760FFD6487A
:1026B0000190029410200390A80804900020059037
:1026C000802106918900079189000891099089006D
:1026D0000A910B9001A93046FDF71FFF01213046FA
:1026E000FDF745FFD5E708B501213020FEF7D3FC03
:1026F0004FF4F850ADF8000003208DF802001820C8
:102700008DF803006946BB48FEF7BFFA0420ADF818
:1027100000006946B848FEF7B8FA01218802FEF7C2
:10272000AFFC01210220FEF7ABFC08BDB6488038A3
:10273000416B11F0450FFBD040F2FF5181634069BE
:1027400000F0080070472DE9FC470E4600240027E2
:1027500000970197AD4D4FF0080AC5F800A0102072
:1027600068604FF04008C5F80880EF604FF480695A
:10277000C5F810902846FEF72DFD1020FFF7D6FF74
:10278000002832D1A2480089000428603720686000
:10279000C5F80880EF60C5F810902846FEF71AFDCE
:1027A0003720FFF7C3FF00281FD1411E05F1140099
:1027B0000160C0F804A0302181600221C16007617E
:1027C00001214161FEF72AFD2F6033206860C5F8C2
:1027D0000880EF60C5F810902846FEF7FBFC332018
:1027E000FFF7A4FF0546280001D0BDE8FC87DFF80D
:1027F00018824FF4001A6F46A8F1800840F22A6947
:102800000AE05046FEF756FD30B1FEF727FD47F8C7
:102810002400641C012C04D8D8F8340010EA090FF5
:10282000EFD00820FEF746FD20B10820FEF74AFD54
:102830000420DAE70220FEF73DFD20B10220FEF77A
:1028400041FD0220D1E72020FEF734FD20B12020F9
:10285000FEF738FD0620C8E74FF400742046FEF767
:1028600029FD20B12046FEF72DFD0720BDE740F2EF
:10287000FF50FEF727FD00980099000601F47F4104
:1028800040EA0120009901F47F0140EA11200099FB
:1028900040EA1160706001980199000601F47F41DF
:1028A00040EA0120019901F47F0140EA11200199D9
:1028B00040EA11603060284697E72DE9FC4706465C
:1028C0000024009401940020FEF7A0FC800101D5B3
:1028D0000E208AE74E4D6946288980B2FFF733FF04
:1028E000002882D13720494F4FF0060A4FF04009A7
:1028F0004FF48068012E22D00199C90345D529895A
:10290000090439607860C7F80890FC60C7F8108047
:102910003846FEF75FFC3720FFF708FF0028D8D1C4
:102920003C60C7F804A0C7F80890FC60C7F81080A6
:102930003846FEF74FFC0620FFF7F8FE55E70199F1
:10294000490320D52989090439607860C7F80890BF
:10295000FC60C7F810802D48FEF73CFC3720FFF7DD
:10296000E5FE0028B5D102203860C7F804A0C7F8FA
:102970000890FC60C7F810802448FEF72BFC062066
:10298000FFF7D4FE31E725202FE725202DE72DE99D
:10299000F041014600241E484068032805D038B1A4
:1029A000012805D0022803D044E02720BDE8F081AB
:1029B000B1F5805F0FD0154D4FF400670026183D2C
:1029C0004FF00108B94225D10120FFF776FF0446F8
:1029D000200002D02EE02720E8E785F814802E6042
:1029E0006E60AE60EF602E6108481838FEF7B7FBE6
:1029F00020E0000000100140001401400020001001
:102A000000F000104404024080800140780800205B
:102A10002C0000200020FFF750FF0446200009D1C1
:102A200085F814802E606E60AE60EE602E61FE4808
:102A3000FEF795FB2046B9E710B5FB491831086051
:102A400007204860402088600020C8604FF4806004
:102A500008610846FEF7BEFBBDE81040072065E6AA
:102A60002DE9F043F1494F6880F856700989A0F8C4
:102A70005410DFF8B4C3ACF1880CDCF800100A0E77
:102A800093090370C2F38303437002F00302827060
:102A90000A0CC2700A0A02714171DCF80420110E9E
:102AA0000901C180C2F30741C38843EA1113C380FF
:102AB00001F00F010172C2F30721CB094372C1F388
:102AC00080138372C1F34013C372C1F30013037305
:102AD0000023437364460126D4F80880002F4FEA90
:102AE0001864C8F30745C8F3072904D0012F02D0A2
:102AF000022F3AD04FE08907090D0161D1B2026976
:102B000042EA81010161016941EA94110161C4F362
:102B1000C201017504F00701417569098175C5F3AA
:102B20008201C175A907490F01764946027E42EA32
:102B3000D11202760269521C047EA41C06FA04F922
:102B4000A2FB094703FB09774FEAE97502FB05750C
:102B5000027A06FA02F70765A4FB072905FB079529
:102B600004FB0354C0E9122415E09106890A0161AF
:102B7000016941EA04210161016929430161494672
:102B80000269DC04521C44EA5234D204C0E9122423
:102B90004FF4007202651C30C1F3801200F8032C60
:102BA0008906490E00F8021C08F0FF0110F8022CFB
:102BB00042EAD11200F8022C01F07F0100F8011C5A
:102BC000DCF80C20110ECC090470C1F341144470E0
:102BD000C1F3820484708907090FC170C2F30741F1
:102BE000C47844EA9114C470C1F340140471437171
:102BF00001F001018171C2F30721CC09C471C1F355
:102C000080140472C1F340144472C1F3001484723E
:102C1000C1F38104C47201F003010173D1B2490808
:102C200041738673804A783A11680C0E04740C0C58
:102C300024024482C1F30724458A254345820906BC
:102C4000416151680C0E456945EA04444461C1F391
:102C50000744456945EA04244461C1F307244569F2
:102C600025434561017691680C0E44760C0C2406D0
:102C7000C461C1F30724C56945EA0444C461C9B20B
:102C8000C46944EA0121C161D1680A0EC4691443D0
:102C9000C461C1F3074290F8204044EA121480F85E
:102CA00020401207120D4284C1F30722448C1443C2
:102CB0004484C9B2490880F8241080F82560184679
:102CC000BDE8F08310B50024594A516B00E0516B08
:102CD00011F0450FFBD0480705D503240420FEF76B
:102CE000F1FA204610BDC80705D001240120FEF7E7
:102CF000E9FA204610BD40F2FF50FEF7E3FA204605
:102D000010BD70B506460C460025494A506B00E0E0
:102D1000506B10F0450FFBD0410705D5032404206C
:102D2000FEF7D0FA204670BDC00705D0012401206F
:102D3000FEF7C8FA204670BDFEF764FAB04201D033
:102D4000102070BD40F2FF50FEF7BCFA0020FEF7E5
:102D50005DFA10F4604F03D0810405D5132070BDD7
:102D6000000C2080284670BD410401D5102070BDA4
:102D7000000401D50F2070BD284670BD2DE9F84F25
:102D8000002401200090FEF712FAE8B1DFF89C80E1
:102D9000254D0026D8F8040018354FF0C0094FF42F
:102DA000806704282AD02E6002206860C5F8089049
:102DB000EE602F612846FEF70DFAFFF783FF044609
:102DC000200003D0BDE8F88F2520FBE70020FEF7A8
:102DD0001DFADFF854A0AAF1780ACAF8000004200E
:102DE000FEF714FACAF804000820FEF70FFACAF832
:102DF00008000C20FEF70AFACAF80C00D8F8040004
:102E000028B1012803D0062801D0022819D12E604C
:102E1000032068604020A860EE602F6102481830EF
:102E2000FEF7D8F9694605E0600800202C00002074
:102E3000008001400320FFF764FF0446200000D01B
:102E4000C0E7D8F80400042826D0BDF80000C8F870
:102E500008000004286009206860C5F80890EE604A
:102E60002F61F848FEF7B6F9FFF72CFF0446200063
:102E700000D0A7E70020FEF7C9F9F24DA03D286079
:102E80000420FEF7C3F968600820FEF7BFF9A860C8
:102E90000C20FEF7BBF9E860204693E710B500244C
:102EA000E94A516B00E0516B11F0450FFBD0480728
:102EB00005D503240420FEF705FA204610BD40F294
:102EC000FF50FEF7FFF9204610BD10B500204FF46B
:102ED0008031DD4B5A6B01E0491E5A6B12F0450FF1
:102EE00001D10029F8D109B1510705D503240420E7
:102EF000FEF7E8F9204610BD5106FCD5002440201D
:102F0000FEF7E0F9204610BD70B500254FF480347F
:102F100000E0641E24B18020FEF7CCF90028F8D030
:102F20002CB140F2FF50FEF7CDF9284670BD0320CA
:102F300070BD2DE9F05F4FF0000B0024A246002782
:102F4000C048B221183801754FF00008C0F8008061
:102F5000C0F80480C0F80880C0F80C80C0F8108069
:102F6000FEF7FDF80320FEF719F90120FEF713F92B
:102F7000B44EC6F80080C6F80480C6F80880C6F8CB
:102F80000C804FF48069C6F810903046FEF722F9A5
:102F9000FFF7BAFF00285CD14FF4D57030600820ED
:102FA00070604025B560C6F80C80C6F810903046B9
:102FB000FEF710F9FFF789FF10B3C6F8008037203D
:102FC0007060B560C6F80C80C6F810903046FEF709
:102FD00001F93720FFF7AAFBC6F8008037207060A0
:102FE0004020B060C6F80C80C6F810909548FEF7F7
:102FF000F1F83720FFF79AFB0546280032D044E06D
:103000009248012141608F07E6E7C6F8008037202B
:1030100070604025B560C6F80C80C6F810908948ED
:10302000FEF7D8F83720FFF781FB002811D1884838
:103030003843306029207060B560C6F80C80C6F84F
:1030400010908048FEF7C6F8FFF728FF05462800D5
:1030500001D0BDE8F09F0020FEF7D8F883464FEA84
:10306000DB7A641CBAF1000F03D14FF6FF70844283
:10307000CBD34FF6FF70844201D31B20E9E71BF04E
:10308000804F02D07148022141602846E1E710B527
:10309000FFF7C2FAFFF727FBFEF754F8FFF749FFE7
:1030A000002822D1FFF76AFE00281ED165480121C1
:1030B000183801750021016041608160C1600161C3
:1030C000FEF74DF85F487038FFF7CAFC30B95D482D
:1030D0007038B0F854000004FFF7AEFC002804D1AB
:1030E000BDE810404FF4006051E410BD70B50546D6
:1030F0005648554C00890004A06040F24D40E06005
:103100000D20FFF713FB002801D16169296070BD14
:1031100008B5002000906846FFF7E8FF08B1FF20DF
:1031200008BD0098C0F3432008BD10B5FFF7F0FFBD
:10313000042803D0FF2803D0012010BD002010BDBB
:10314000022010BD10B500240020FEF727F820460D
:1031500010BD2DE9F04705460020FEF757F8800125
:1031600002D50E20BDE8F087364C402626601020A0
:103170006060A6600027E7604FF48068C4F81080A4
:103180002046FEF727F81020FFF7D0FA0028E9D1F3
:103190002E4800890004206037206060A660E76048
:1031A000C4F810802046FEF715F83720FFF7BEFA66
:1031B0000028D7D1411E04F114000160466060214F
:1031C00081600221C160076101214161FEF726F89B
:1031D00027600D206060A660E760C4F8108020467C
:1031E000FDF7F8FF0D20FFF7A1FA0646300000D0EA
:1031F000B8E74FF40049144F40F22A680CE0484603
:10320000FEF758F840B10024FEF728F845F82400EE
:10321000641C082CF8D32035786B10EA080FEED028
:103220000820FEF747F820B10820FEF74BF80420ED
:1032300098E70220FEF73EF860B10220FEF742F860
:1032400002208FE778080020008001402C00002039
:10325000000010802020FEF72DF820B12020FEF77E
:1032600031F806207EE74FF400742046FEF722F87E
:1032700020B12046FEF726F8072073E74FF400142C
:1032800002E0FDF7EBFF01C52046FEF713F800282A
:10329000F7D140F2FF50FEF715F8304662E710B55F
:1032A0000446F948FFF755FF0146080000D010BD5D
:1032B000F5480278920922700278C2F340126270D7
:1032C000827812026280C278638813436380027935
:1032D000120662604279636843EA02426260827960
:1032E000636843EA02226260C279636813436360E1
:1032F000027A2272427A6272827A1209A272C27AC7
:103300001202A281027BA3891343A381427B92080C
:10331000A273407B00F00300E073084610BD2DE966
:10332000F0478046089E14461D46D848002707707F
:103330000761C760D649CF624068022803D1060200
:10334000640A44EAC554D04D80352E601020686070
:103350004FF04009C5F80890EF604FF4806AC5F857
:1033600010A02846FDF736FF1020FFF7DFF90028F0
:103370001ED1411E05F1140001604660902181605C
:103380000221C160076101214161FDF747FF2C6007
:1033900011206860C5F80890EF60C5F810A02846B5
:1033A000FDF718FF1120FFF7C1F904460CB12046C4
:1033B000D8E601210802FDF7FFFE0120FDF707FF17
:1033C00031464046FFF73FF92046CBE62DE9FF5F47
:1033D0001446DDE90E6A1D46AC48002707700761F8
:1033E0004FF00108C0F80C80A949CF62406802285C
:1033F00003D10602640A44EAC554A34D80352E6009
:10340000102068604FF04009C5F80890EF604FF455
:10341000806BC5F810B02846FDF7DCFE1020FFF7E2
:1034200085F9002821D1411E05F1140001600AFB35
:1034300006FAC0F804A0902181600221C1600761F2
:10344000C0F81480FDF7EAFE2C6012206860C5F811
:103450000890EF60C5F810B02846FDF7BBFE1220BB
:10346000FFF764F9044614B1204604B0F1E50121E8
:103470000802FDF7A1FE0120FDF7A9FE51460098C4
:10348000FFF7E1F82046F0E770B500257F4CFFF725
:10349000D7F820B9206910B920780028F7D0207813
:1034A00008B1207870BD284670BD2DE9F0478046F0
:1034B000089E14461D467548002707700761C760BF
:1034C0007349CF624068022803D10602640A44EAC5
:1034D000C5546D4D80352E60102068604FF0400956
:1034E000C5F80890EF604FF4806AC5F810A0284630
:1034F000FDF770FE1020FFF719F9002829D12C6084
:1035000018206860C5F80890EF60C5F810A028463C
:10351000FDF760FE1820FFF709F9002819D105F121
:103520001402401E1060566090209060D7601761B2
:10353000012050611046FDF771FE01210802FDF7E0
:103540003BFE31464046FFF7A6F80120FDF73FFE5F
:10355000384607E62DE9FF5F82B01446DDE91067C3
:103560001D464FF00008CDF80480DFF8209189F85F
:103570000080C9F810800120C9F80C004448C0F848
:103580002C80D9F80400022803D10602640A44EA18
:10359000C5543D4D80352E60102068604FF0400AC4
:1035A000C5F808A0C5F80C804FF4806BC5F810B0C2
:1035B0002846FDF70FFE1020FFF7B8F8002852D17B
:1035C000B9F808000004286037206860C5F808A032
:1035D000C5F80C80C5F810B02846FDF7FBFD372074
:1035E000FFF7A4F800283ED12F6017206860C5F8C7
:1035F00008A0C5F80C80C5F810B02846FDF7EAFD14
:103600001720FFF793F800282DD12C60192068604F
:10361000C5F808A0C5F80C80C5F810B02846FDF71D
:10362000D9FD1920FFF782F800281CD105F11402FA
:10363000401E10607743576090209060C2F80C8065
:10364000C2F81080012050611046FDF7E7FD01210E
:103650000802FDF7B1FD0120FDF7B9FD39460298DA
:10366000FFF719F8404606B0F3E470B50025074CA3
:10367000FEF7E6FF20B9206910B920780028F7D0BE
:10368000207838B1207870BDF80700202C00002089
:103690000080014040F2FF50FDF714FE2846F2E79B
:1036A000AE48406B10F4405F01D00120704700200D
:1036B0007047AA480021816040F24C41C1600C2053
:1036C000FFF734B87CB50446002500220192009231
:1036D000A348A4490089000408600D2048604020E8
:1036E0008860CA60000108610846FDF773FD9B49C8
:1036F000486B009001E04A6B0092009A12F0450F6F
:10370000F9D00098400705D503240420FDF7DAFD21
:1037100020467CBD0098C00705D001240120FDF79C
:10372000D1FD20467CBDFDF76DFD009000980D2871
:1037300001D010207CBD40F2FF50FDF7C3FD0020FA
:10374000FDF764FD01900198C0F343202070864985
:103750000198084201D128467CBD0198002801DA71
:103760001C207CBD0198400001D509207CBD01983A
:10377000800001D50A207CBD0198C00001D50B2036
:103780007CBD0198000101D50C207CBD0198400151
:1037900001D50D207CBD0198C00101D50E207CBD56
:1037A0000198000201D50F207CBD0198400201D58F
:1037B00010207CBD0198800201D511207CBD0198AC
:1037C000C00201D512207CBD0198000301D5132051
:1037D0007CBD0198400301D514207CBD0198800375
:1037E00001D515207CBD0198C00301D516207CBDF4
:1037F0000198000401D517207CBD0198400401D533
:1038000018207CBD0198800401D519207CBD019849
:10381000000701D51A207CBD28467CBD2DE9FC4758
:1038200082460D4600240026019600964D48A03899
:103830004068000D800602D42520BDE8FC8747487B
:1038400040684A49C0B2801CB1FBF0F001900020F2
:10385000FDF7DCFC800101D50E20EEE74048406812
:10386000022802D14FEA5A2A6D0A3E4F4FF0400813
:103870004FF4806918B1012801D0022820D1C7F87F
:1038800000A020207860C7F80880FE60C7F810907C
:103890003448FDF79FFC2020FEF748FF0028CCD1DC
:1038A0003D6021207860C7F80880FE60C7F810905E
:1038B0002C48FDF78FFC2120FEF738FF0028BCD1F3
:1038C0003E6026207860C7F80880FE60C7F8109038
:1038D0002448FDF77FFC2620FEF728FF0028ACD106
:1038E00000E0641C01988442FBD36846FFF7EAFEBF
:1038F00002E06846FFF7E6FE00289ED19DF8001022
:103900000729F6D00629F4D097E770B5144CE16882
:10391000002001290DD020704FF480752846FDF756
:10392000DCFC00212846FDF747FC012020612078BF
:10393000A9E60A49886040F24C40C8600C20FEF7B6
:10394000F5FE2070E8E7002102E04008491CC9B2FA
:103950000128FAD108467047D7E7000000800140EF
:103960002C0000207808002008E0FFFDC0D40100F2
:10397000F8B501210802FDF783FB01214FF4F07037
:10398000FDF789FB4CF20370ADF8000018208DF8AC
:10399000030003248DF80240544E69463046FDF77B
:1039A00074F94FF68070ADF80000514D6946284615
:1039B000FDF76BF94FF23F01ADF8001069464D4835
:1039C000FDF763F93F21ADF800104B4F69463846CB
:1039D000FDF75BF94FF46051ADF8001069463046D1
:1039E000FDF753F93021ADF8001069463046FDF778
:1039F0004CF92915ADF8001069463846FDF745F930
:103A0000A814ADF8000069463846FDF73EF9ADF858
:103A1000004069462846FDF738F9F8BD00B597B073
:103A200002210191002002900391049005900690DC
:103A300007900421089109900A9010210B910C9095
:103A40000D900E900F90109009021191129013900A
:103A5000149001A81590169008A8FCF788FE012183
:103A60000420FCF7B8FF17B000BD00B59FB00420DC
:103A7000ADF8040018208DF8070003208DF806002B
:103A800001A91B48FDF701F90121099100200A90C5
:103A90000B910C900D900E900A070F9202910390DB
:103AA000022104910590069007900892062110913A
:103AB00011900821129110211391149015901690D5
:103AC00017901890090219911A9089001B911C9067
:103AD00002A81D9009A81E9010A8FCF748FE01211D
:103AE0000620FCF778FF1FB000BD00000014014065
:103AF00000180140001C01400020014008B564226C
:103B000007E0009202E00099491E00910099002907
:103B1000F9DC401E411CF4D108BD70B54FF0D8440B
:103B20004FF4285525804FF0DA45060A2E8042F6DC
:103B3000012626802880701C2080100A2880B01C56
:103B400020802A804FF42C502080080A288042F6DA
:103B5000013020802980401C2080180A288042F6ED
:103B6000033020802B804FF43050208070BD78B51A
:103B70004FF0D8444FF4285525804FF0DA45060A17
:103B80002E8042F6012626802880701C2080100A94
:103B90002880B01C20802A804FF42C502080080AF6
:103BA000288042F6013020802980401C2080180A9D
:103BB000288042F6033020802B804FF4385020803C
:103BC000288800900020009003E0BDF80000401C11
:103BD0000090BDF800000228F7D378BD4FF458518B
:103BE0004B044FF0DA42002807D001280AD00228FF
:103BF0000DD0032810D0002070471980422010807B
:103C00000120704719802220108001207047198000
:103C100082201080012070471980E220108001204E
:103C200070472DE9F0474FF0D8404FF470410180C4
:103C300055214FF0DA49A9F800104FF201010A4668
:103C40000280AA22A9F800204A1C4B1C03805223A0
:103C5000A9F800308B1C8C1C04800824A9F80040B3
:103C6000CC1CCD1C05800125A9F800504FF430452F
:103C700005800D25A9F800504BF2010505800D25A2
:103C8000A9F800504BF2020505800D25A9F8005057
:103C90004FF431452E4606800D26A9F800606E1CB3
:103CA0006F1C07800D27A9F80070AF1C07800D2737
:103CB000A9F800704FF4324707800027A9F8007078
:103CC0004BF2012707800027A9F800704BF202276A
:103CD00007800027A9F800704FF43647BC46A0F8CB
:103CE00000C04FF0440CA9F800C04BF2016CA0F8E2
:103CF00000C04FF0440CA9F800C04BF2026CA0F8D1
:103D000000C04FF0440CA9F800C04FF4374CA0F8A5
:103D100000C04FF0340CA9F800C04BF2017CA0F8B1
:103D200000C04FF0340CA9F800C04BF2027CA0F8A0
:103D300000C04FF0340CA9F800C04FF4384CA0F884
:103D400000C04FF0340CA9F800C04BF6010CA0F8ED
:103D500000C04FF0340C4846A9F800C04FF0D848D6
:103D60004BF6020CA8F800C04FF0340CA0F800C0CD
:103D70004FF43F4CA8F800C04FF0010CA0F800C071
:103D80004FF4334CA8F800C04FF00F0CA0F800C05F
:103D90004BF2013CA8F800C04FF00F0CA0F800C097
:103DA0004BF2023CA8F800C04FF00F0CA0F800C086
:103DB0004FF4394CA8F800C04FF0340CA0F800C004
:103DC0004BF6011CA8F800C04FF0340CA0F800C05E
:103DD0004BF6021CA8F800C04FF0340CA0F800C04D
:103DE0004FF4354CE246A8F800A04FF0080AA0F8BE
:103DF00000A04BF2015AA8F800A04FF0080AA0F862
:103E000000A04BF2025AA8F800A04FF0080AA0F850
:103E100000A04FF4424AA8F800A04FF0030AA0F80F
:103E200000A04FF43A4AA8F800A04FF0340AA0F8D6
:103E300000A04BF6012AA8F800A04FF0340AA0F821
:103E400000A04BF6022AA8F800A04FF0340AA0F810
:103E500000A04FF43C4AA8F800A04FF0000AA0F8D8
:103E600000A04BF6014AA8F800A04FF0780AA0F88D
:103E700000A04BF6024AA8F800A04FF0000AA0F8F4
:103E800000A04FF43D4AA8F800A04FF0000AA0F8A7
:103E900000A04BF6015AA8F800A04FF0780AA0F84D
:103EA00000A04BF6025AA8F800A04FF0000AA0F8B4
:103EB00000A04FF43E4A4046A8F800A04FF0000A88
:103EC000A9F800A04BF6016AA0F800A04FF0640A20
:103ED000A9F800A04FF4514AA0F800A04FF0000A42
:103EE000A9F800A04DF2011AA0F800A04FF0330A83
:103EF000A9F800A04DF2021AA0F800A04FF0000AA5
:103F0000A9F800A04DF2031AA0F800A04FF0340A5F
:103F1000A9F800A04DF2041AA0F800A04FF0000A82
:103F2000A9F800A04DF2051AA0F800A04FF03A0A37
:103F3000A9F800A04DF2061AA0F800A04FF0000A60
:103F4000A9F800A04DF2071AA0F800A04FF04A0A05
:103F5000A9F800A04DF2081AA0F800A04FF0000A3E
:103F6000A9F800A04DF2091AA0F800A04FF05C0AD1
:103F7000A9F800A04DF20A1AA0F800A04FF0000A1C
:103F8000A9F800A04DF20B1AA0F800A04FF0810A8A
:103F9000A9F800A04DF20C1AA0F800A04FF0000AFA
:103FA000A9F800A04DF20D1AA0F800A04FF0A60A43
:103FB000A9F800A04DF20E1AA0F800A04FF0000AD8
:103FC000A9F800A04DF20F1AA0F800A04FF0E50AE2
:103FD000A9F800A04DF2101AA0F800A04FF0010AB5
:103FE000A9F800A04DF2111AA0F800A04FF0130A92
:103FF000A9F800A04DF2121AA0F800A04FF0010A93
:10400000A9F800A04DF2131AA0F800A04FF0540A2E
:104010004846A9F800A04DF2141AA8F800A04FF0E5
:10402000010AA0F800A04DF2151AA8F800A04FF060
:10403000820AA0F800A04DF2161AA8F800A04FF0CE
:10404000010AA0F800A04DF2171AA8F800A04FF03E
:10405000CA0AA0F800A04DF2181AA8F800A04FF064
:10406000020AA0F800A04DF2191AA8F800A04FF01B
:10407000000AA0F800A04DF21A1AA8F800A04FF00C
:10408000020AA0F800A04DF21B1AA8F800A04FF0F9
:10409000010AA0F800A04DF21C1AA8F800A04FF0E9
:1040A000020AA0F800A04DF21D1AA8F800A04FF0D7
:1040B000340AA0F800A04DF21E1AA8F800A04FF094
:1040C000020AA0F800A04DF21F1AA8F800A04FF0B5
:1040D000670AA0F800A04DF2201AA8F800A04FF03F
:1040E000020AA0F800A04DF2211AA8F800A04FF093
:1040F000840AA0F800A04DF2221AA8F800A04FF000
:10410000020AA0F800A04DF2231AA8F800A04FF070
:10411000A40AA0F800A04DF2241AA8F800A04FF0BD
:10412000020AA0F800A04DF2251AA8F800A04FF04E
:10413000B70AA0F800A04DF2261AA8F800A04FF088
:10414000020AA0F800A04DF2271AA8F800A04FF02C
:10415000CF0AA0F800A04DF2281AA8F800A04FF04E
:10416000020AA0F800A04DF2291A4046A8F800A0C3
:104170004FF0DE0AA9F800A04DF22A1AA0F800A01C
:104180004FF0020AA9F800A04DF22B1AA0F800A0E7
:104190004FF0F20AA9F800A04DF22C1AA0F800A0E6
:1041A0004FF0020AA9F800A04DF22D1AA0F800A0C5
:1041B0004FF0FE0AA9F800A04DF22E1AA0F800A0B8
:1041C0004FF0030AA9F800A04DF22F1AA0F800A0A2
:1041D0004FF0100AA9F800A04DF2301AA0F800A084
:1041E0004FF0030AA9F800A04DF2311AA0F800A080
:1041F0004FF0330AA9F800A04DF2321AA0F800A03F
:104200004FF0030AA9F800A04DF2331AA0F800A05D
:104210004FF06D0AA9F800A04FF4524AA0F800A090
:104220004FF0000AA9F800A04DF2012AA0F800A062
:104230004FF0330AA9F800A04DF2022AA0F800A01E
:104240004FF0000AA9F800A04DF2032AA0F800A040
:104250004FF0340AA9F800A04DF2042AA0F800A0FB
:104260004FF0000AA9F800A04DF2052AA0F800A01E
:104270004FF03A0AA9F800A04DF2062AA0F800A0D3
:104280004FF0000AA9F800A04DF2072AA0F800A0FC
:104290004FF04A0AA9F800A04DF2082AA0F800A0A1
:1042A0004FF0000AA9F800A04DF2092AA0F800A0DA
:1042B0004FF05C0AA9F800A04DF20A2AA0F800A06D
:1042C0004FF0000A4846A9F800A04DF20B2AA8F8C2
:1042D00000A04FF0810AA0F800A04DF20C2AA8F827
:1042E00000A04FF0000AA0F800A04DF20D2AA8F897
:1042F00000A04FF0A60AA0F800A04DF20E2AA8F8E0
:1043000000A04FF0000AA0F800A04DF20F2AA8F874
:1043100000A04FF0E50AA0F800A04DF2102AA8F87E
:1043200000A04FF0010AA0F800A04DF2112AA8F851
:1043300000A04FF0130AA0F800A04DF2122AA8F82E
:1043400000A04FF0010AA0F800A04DF2132AA8F82F
:1043500000A04FF0540AA0F800A04DF2142AA8F8CB
:1043600000A04FF0010AA0F800A04DF2152AA8F80D
:1043700000A04FF0820AA0F800A04DF2162AA8F87B
:1043800000A04FF0010AA0F800A04DF2172AA8F8EB
:1043900000A04FF0CA0AA0F800A04DF2182AA8F811
:1043A00000A04FF0020AA0F800A04DF2192AA8F8C8
:1043B00000A04FF0000AA0F800A04DF21A2AA8F8B9
:1043C00000A04FF0020AA0F800A04DF21B2AA8F8A6
:1043D00000A04FF0010AA0F800A04DF21C2AA8F896
:1043E00000A04FF0020AA0F800A04DF21D2AA8F884
:1043F00000A04FF0340AA0F800A04DF21E2AA8F841
:1044000000A04FF0020AA0F800A04DF21F2AA8F861
:1044100000A04FF0670AA0F800A04DF2202A404605
:10442000A8F800A04FF0020AA9F800A04DF2212A36
:10443000A0F800A04FF0840AA9F800A04DF2222AAB
:10444000A0F800A04FF0020AA9F800A04DF2232A1C
:10445000A0F800A04FF0A40AA9F800A04DF2242A69
:10446000A0F800A04FF0020AA9F800A04DF2252AFA
:10447000A0F800A04FF0B70AA9F800A04DF2262A34
:10448000A0F800A04FF0020AA9F800A04DF2272AD8
:10449000A0F800A04FF0CF0AA9F800A04DF2282AFA
:1044A000A0F800A04FF0020AA9F800A04DF2292AB6
:1044B000A0F800A04FF0DE0AA9F800A04DF22A2AC9
:1044C000A0F800A04FF0020AA9F800A04DF22B2A94
:1044D000A0F800A04FF0F20AA9F800A04DF22C2A93
:1044E000A0F800A04FF0020AA9F800A04DF22D2A72
:1044F000A0F800A04FF0FE0AA9F800A04DF22E2A65
:10450000A0F800A04FF0030AA9F800A04DF22F2A4E
:10451000A0F800A04FF0100AA9F800A04DF2302A30
:10452000A0F800A04FF0030AA9F800A04DF2312A2C
:10453000A0F800A04FF0330AA9F800A04DF2322AEB
:10454000A0F800A04FF0030AA9F800A04DF2332A0A
:10455000A0F800A04FF06D0AA9F800A04FF4534A4C
:10456000A0F800A04FF0000AA9F800A04DF2013A0F
:10457000A0F800A04FF0330A4846A9F800A04DF279
:10458000023AA8F800A04FF0000AA0F800A04DF2EF
:10459000033AA8F800A04FF0340AA0F800A04DF2AA
:1045A000043AA8F800A04FF0000AA0F800A04DF2CD
:1045B000053AA8F800A04FF03A0AA0F800A04DF282
:1045C000063AA8F800A04FF0000AA0F800A04DF2AB
:1045D000073AA8F800A04FF04A0AA0F800A04DF250
:1045E000083AA8F800A04FF0000AA0F800A04DF289
:1045F000093AA8F800A04FF05C0AA0F800A04DF21C
:104600000A3AA8F800A04FF0000AA0F800A04DF266
:104610000B3AA8F800A04FF0810AA0F800A04DF2D4
:104620000C3AA8F800A04FF0000AA0F800A04DF244
:104630000D3AA8F800A04FF0A60AA0F800A04DF28D
:104640000E3AA8F800A04FF0000AA0F800A04DF222
:104650000F3AA8F800A04FF0E50AA0F800A04DF22C
:10466000103AA8F800A04FF0010AA0F800A04DF2FF
:10467000113AA8F800A04FF0130AA0F800A04DF2DC
:10468000123AA8F800A04FF0010AA0F800A04DF2DD
:10469000133AA8F800A04FF0540AA0F800A04DF279
:1046A000143AA8F800A04FF0010AA0F800A04DF2BB
:1046B000153AA8F800A04FF0820AA0F800A04DF229
:1046C000163AA8F800A04FF0010AA0F800A04DF299
:1046D000173A4046A8F800A04FF0CA0AA9F800A06F
:1046E0004DF2183AA0F800A04FF0020AA9F800A075
:1046F0004DF2193AA0F800A04FF0000AA9F800A066
:104700004DF21A3AA0F800A04FF0020AA9F800A052
:104710004DF21B3AA0F800A04FF0010AA9F800A042
:104720004DF21C3AA0F800A04FF0020AA9F800A030
:104730004DF21D3AA0F800A04FF0340AA9F800A0ED
:104740004DF21E3AA0F800A04FF0020AA9F800A00E
:104750004DF21F3AA0F800A04FF0670AA9F800A098
:104760004DF2203AA0F800A04FF0020AA9F800A0EC
:104770004DF2213AA0F800A04FF0840AA9F800A059
:104780004DF2223AA0F800A04FF0020AA9F800A0CA
:104790004DF2233AA0F800A04FF0A40AA9F800A017
:1047A0004DF2243AA0F800A04FF0020AA9F800A0A8
:1047B0004DF2253AA0F800A04FF0B70AA9F800A0E2
:1047C0004DF2263AA0F800A04FF0020AA9F800A086
:1047D0004DF2273AA0F800A04FF0CF0AA9F800A0A8
:1047E0004DF2283AA0F800A04FF0020AA9F800A064
:1047F0004DF2293AA0F800A04FF0DE0AA9F800A077
:104800004DF22A3AA0F800A04FF0020AA9F800A041
:104810004DF22B3AA0F800A04FF0F20AA9F800A040
:104820004DF22C3AA0F800A04FF0020A4846A9F831
:1048300000A04DF22D3AA8F800A04FF0FE0AA0F813
:1048400000A04DF22E3AA8F800A04FF0030AA0F8FD
:1048500000A04DF22F3AA8F800A04FF0100AA0F8DF
:1048600000A04DF2303AA8F800A04FF0030AA0F8DB
:1048700000A04DF2313AA8F800A04FF0330AA0F89A
:1048800000A04DF2323AA8F800A04FF0030AA0F8B9
:1048900000A04DF2333AA8F800A04FF06D0AA0F83E
:1048A00000A04FF4544AA8F800A04FF0000AA0F866
:1048B00000A04DF2014AA8F800A04FF0330AA0F87A
:1048C00000A04DF2024AA8F800A04FF0000AA0F89C
:1048D00000A04DF2034AA8F800A04FF0340AA0F857
:1048E00000A04DF2044AA8F800A04FF0000AA0F87A
:1048F00000A04DF2054AA8F800A04FF03A0AA0F82F
:1049000000A04DF2064AA8F800A04FF0000AA0F857
:1049100000A04DF2074AA8F800A04FF04A0AA0F8FC
:1049200000A04DF2084AA8F800A04FF0000AA0F835
:1049300000A04DF2094AA8F800A04FF05C0AA0F8C8
:1049400000A04DF20A4AA8F800A04FF0000AA0F813
:1049500000A04DF20B4AA8F800A04FF0810AA0F881
:1049600000A04DF20C4AA8F800A04FF0000AA0F8F1
:1049700000A04DF20D4AA8F800A04FF0A60AA0F83A
:1049800000A04DF20E40A8F800000020A9F8000099
:104990004DF20F40A8F80000E520A9F800004DF204
:1049A0001040A8F800000120A9F800004DF21140C5
:1049B000A8F800001320A9F800004DF21240A8F852
:1049C00000000120A9F800004DF21340A8F80000F3
:1049D0005420A9F800004DF21440A8F8000001206E
:1049E000A9F800004DF21540A8F800008220A9F8AF
:1049F00000004DF21640A8F800000120A9F80000C0
:104A00004DF21740A8F80000CA20A9F800004DF2A6
:104A10001840A8F800000220A9F800004DF2194043
:104A2000A8F800000020A9F800004DF21A40A8F8EC
:104A300000000220A9F800004DF21B40A8F8000079
:104A40000120A9F800004DF21C40A8F80000022047
:104A5000A9F800004DF21D40A8F800003420A9F884
:104A600000004DF21E40A8F800000220A9F8000046
:104A70004DF21F40A8F800006720A9F800004DF291
:104A80002040A8F800000220A9F800004DF22140C3
:104A9000A8F800008420A9F800004DF22240A8F8F0
:104AA00000000220A9F800004DF22340A8F8000001
:104AB000A420A9F800004DF22440A8F8000002202C
:104AC000A9F800004DF22540A8F80000B720A9F889
:104AD00000004DF22640A8F800000220A9F80000CE
:104AE0004DF22740A8F80000CF20A9F800004DF2B1
:104AF0002840A8F800000220A9F800004DF2294043
:104B0000A8F80000DE20A9F800004DF22A40A8F81D
:104B100000000220A9F800004DF22B40A8F8000088
:104B2000F220A9F800004DF22C40A8F80000022065
:104B3000A9F800004DF22D40A8F80000FE20A9F8C9
:104B400000004DF22E40A8F800000320A9F8000054
:104B50004DF22F40A8F800001020A9F800004DF2F7
:104B60003040A8F800000320A9F800004DF23140C1
:104B7000A8F800003320A9F800004DF23240A8F850
:104B800000000320A9F800004DF23340A8F800000F
:104B90006D20A9F800004FF45540A8F8000000204F
:104BA000A9F800004DF20150A8F800003320A9F840
:104BB00000004DF20250A8F800000020A9F8000003
:104BC0004DF20350A8F800003420A9F800004DF27F
:104BD0000450A8F800000020A9F800004DF205508C
:104BE000A8F800003A20A9F800004DF20650A8F8F5
:104BF00000000020A9F800004DF20750A8F80000BE
:104C00004A20A9F800004DF20850A8F80000002042
:104C1000A9F800004DF20950A8F800005C20A9F89E
:104C200000004DF20A50A8F800000020A9F800008A
:104C30004DF20B50A8F800008120A9F800004DF2B9
:104C40000C50A8F800000020A9F800004DF20D500B
:104C5000A8F80000A620A9F800004DF20E50A8F810
:104C600000000020A9F800004DF20F50A8F8000045
:104C7000E520A9F800004DF21050A8F8000001202E
:104C8000A9F800004DF21150A8F800001320A9F86F
:104C900000004DF21250A8F800000120A9F8000011
:104CA0004DF21350A8F800005420A9F800004DF26E
:104CB0001450A8F800000120A9F800004DF215508A
:104CC000A8F800008220A9F800004DF21650A8F8BC
:104CD00000000120A9F800004DF21750A8F80000CC
:104CE000CA20A9F800004DF21850A8F800000220D0
:104CF000A9F800004DF21950A8F800000020A9F80A
:104D000000004DF21A50A8F800000220A9F8000097
:104D10004DF21B50A8F800000120A9F800004DF248
:104D20001C50A8F800000220A9F800004DF21D5008
:104D3000A8F800003420A9F800004DF21E50A8F891
:104D400000000220A9F800004DF21F50A8F8000052
:104D50006720A9F800004DF22050A8F800000220BA
:104D6000A9F800004DF22150A8F800008420A9F80D
:104D700000004DF22250A8F800000220A9F800001F
:104D80004DF22350A8F80000A420A9F800004DF22D
:104D90002450A8F800000220A9F800004DF2255088
:104DA000A8F80000B720A9F800004DF22650A8F896
:104DB00000000220A9F800004DF22750A8F80000DA
:104DC000CF20A9F800004DF22850A8F800000220DA
:104DD000A9F800004DF22950A8F80000DE20A9F83B
:104DE00000004DF22A50A8F800000220A9F80000A7
:104DF0004DF22B50A8F80000F220A9F800004DF267
:104E00002C50A8F800000220A9F800004DF22D5007
:104E1000A8F80000FE20A9F800004DF22E50A8F8D6
:104E200000000320A9F800004DF22F50A8F8000060
:104E30001020A9F800004DF23050A8F8000003201F
:104E4000A9F800004DF23150A8F800003320A9F86D
:104E500000004DF23250A8F800000320A9F800002D
:104E60004DF23350A8F800006D20A9F800004FF46F
:104E70005640A8F800000020A9F800004DF201609B
:104E8000A8F800003320A9F800004DF20260A8F84D
:104E900000000020A9F800004DF20360A8F800000F
:104EA0003420A9F800004DF20460A8F800000020AA
:104EB000A9F800004DF20560A8F800003A20A9F812
:104EC00000004DF20660A8F800000020A9F80000DC
:104ED0004DF20760A8F800004A20A9F800004DF242
:104EE0000860A8F800000020A9F800004DF2096051
:104EF000A8F800005C20A9F800004DF20A60A8F8AC
:104F000000000020A9F800004DF20B60A8F8000096
:104F10008120A9F800004DF20C60A8F800000020E4
:104F2000A9F800004DF20D60A8F80000A620A9F82D
:104F300000004DF20E60A8F800000020A9F8000063
:104F40004DF20F60A8F80000E520A9F800004DF22E
:104F50001060A8F800000120A9F800004DF21160CF
:104F6000A8F800001320A9F800004DF21260A8F87C
:104F700000000120A9F800004DF21360A8F800001D
:104F80005420A9F800004DF21460A8F80000012098
:104F9000A9F800004DF21560A8F800008220A9F8D9
:104FA00000004DF21660A8F800000120A9F80000EA
:104FB0004DF21760A8F80000CA20A9F800004DF2D1
:104FC0001860A8F800000220A9F800004DF219604E
:104FD000A8F800000020A9F800004DF21A60A8F817
:104FE00000000220A9F800004DF21B60A8F80000A4
:104FF0000120A9F800004DF21C60A8F80000022072
:10500000A9F800004DF21D60A8F800003420A9F8AE
:1050100000004DF21E60A8F800000220A9F8000070
:105020004DF21F60A8F800006720A9F800004DF2BB
:105030002060A8F800000220A9F800004DF22160CD
:10504000A8F800008420A9F800004DF22260A8F81A
:1050500000000220A9F800004DF22360A8F800002B
:10506000A420A9F800004DF22460A8F80000022056
:10507000A9F800004DF22560A8F80000B720A9F8B3
:1050800000004DF22660A8F800000220A9F80000F8
:105090004DF22760A8F80000CF20A9F800004DF2DB
:1050A0002860A8F800000220A9F800004DF229604D
:1050B000A8F80000DE20A9F800004DF22A60A8F848
:1050C00000000220A9F800004DF22B60A8F80000B3
:1050D000F220A9F800004DF22C60A8F80000022090
:1050E000A9F800004DF22D60A8F80000FE20A9F8F4
:1050F00000004DF22E60A8F800000320A9F800007F
:105100004DF22F60A8F800001020A9F800004DF221
:105110003060A8F800000320A9F800004DF23160CB
:10512000A8F800003320A9F800004DF23260A8F87A
:1051300000000320A9F800004DF23360A8F8000039
:105140006D20A9F80000481EA8F800005520A9F815
:105150000000A8F80010AA20A9F80000A8F8002074
:105160005220A9F80000A8F800300820A9F8000093
:10517000A8F800400020A9F80000A8F800C05020BE
:10518000A9F80000A8F80050CC20A9F80000A8F861
:1051900000600020A9F80000A8F80070052148462A
:1051A000A9F800104FF437414446A8F800107721C1
:1051B00001804BF201712180772101804FF4384149
:1051C0002180012101804BF6010121800321018012
:1051D0004BF602012180032101804BF6030121805F
:1051E000032101804FF43C412180022101804BF6D4
:1051F00001412180002101804BF6024121800021E4
:1052000001804FF43D412180012101804BF6015185
:105210002180842101804BF6025121801C210180D4
:105220004BF6035121801C2101804BF60451218053
:10523000002101804FF449412180D02101804CF6AA
:1052400001112180022101804CF6021121805021A0
:1052500001804CF603112180502101804CF604118D
:105260002180502101804FF458512180002101807C
:105270004FF454512180002101804FF47F4121805F
:10528000AA2101804FF601712180552101804FF63E
:1052900002712180252101804FF6037121800121B7
:1052A00001804FF47C412180162101804FF601419D
:1052B0002180A22101804FF6024121802621018018
:1052C0004FF468512180062101804FF468512180FC
:1052D000552101804FF4885020804FF4C860FEF7BC
:1052E0000DFC4FF424502080BDE8F0470120FEF76C
:1052F00075BC984A002803D040211046FBF734BD06
:1053000040211046FBF732BDFEF707BCFEF72FBC6D
:1053100030B501F0070421F007024FF0DA43082C02
:105320001CD2DFE804F01B0406080A0C0E1011461C
:1053300013E0114610E011460DE011460AE0114657
:1053400007E0114604E0114601E008391880188092
:105350001880188018801880188018800029F4DCC4
:1053600030BD30B501F0070421F007024FF0DA43F9
:10537000082C2CD2DFE804F02B0406080A0C0E10CF
:10538000114621E011461CE0114617E0114612E0DB
:1053900011460DE0114608E0114603E0083930F8E7
:1053A000022B1A8030F8022B1A8030F8022B1A8058
:1053B00030F8022B1A8030F8022B1A8030F8022BBA
:1053C0001A8030F8022B1A8030F8022B1A8000293C
:1053D000E4DC30BD4FF0DA4108807047C008C002FD
:1053E000890840EA41104FF0DA4140EAD2000880D3
:1053F000704700F0A2B830B54FF0DA442388248813
:105400001D0A05700B70200A107030BD70B514466F
:10541000049E1D464A19521E93B20219521E92B2A0
:10542000FEF77BFB04FB05F13046BDE870406FE7FB
:105430002DE9F05F80460A9F894692469B460026EA
:105440001CE000243D4614E009EB0B00401E83B233
:1054500008EB0A00401E82B209EB060081B208EB9D
:10546000040080B2FEF783FB00F067F825F8020B1A
:10547000641C5445E8DB0B980744761C5E45E0DB72
:10548000BDE8F09F2DE9F0470D46DDE908471646D7
:10549000994605EB0908A8F101018BB28119491E53
:1054A0008AB22946FEF739FBB6EB670F0DD01FFA1B
:1054B00088F806E020463146FFF753FF3C446D1C58
:1054C000ADB24545F6D3BDE8F087204606FB09F1AD
:1054D000BDE8F04745E738B501210802FBF7DBFDE1
:1054E00010208DF8030003208DF802004020ADF855
:1054F0000000184D69462846FBF7C7FBEC14ADF8D1
:10550000004069462846FBF7C0FB21462846FBF7CA
:105510002BFC322006F0B3FD21462846FBF726FC83
:10552000322006F0ACFD21462846FBF71DFC322058
:1055300006F0A5FDFEF775FB38BD4FF0DA4108888F
:105540000988C20AD202C0F3850042EA401040EA4C
:10555000D12070470020014001B502E00098401EB4
:10556000009000980028F9D108BD70B505460E4698
:105570000024002014E004EB440005EB800399783C
:10558000C90706D09A8815F820009968FCF799FF9A
:1055900005E01A7915F820009968FCF7B7FF641C3C
:1055A00008B9B442E7D1002800D1204670BDF0B55B
:1055B00087B00E4617464FF0FF3500240021ADF8A6
:1055C00006108DF804000221ADF8081003960121A1
:1055D000ADF812108DF81000B81EADF81400B01C14
:1055E000069007E0022101A8FFF7BFFF0546022D44
:1055F00002D0641C052CF5DB052C08DB70783178B3
:105600002B4640EA0121BA1EFE4814F02FFB07B0DA
:105610002846F0BDFEB50E4617464FF0FF35002474
:105620000021ADF802108DF80000ADF8047002966C
:1056300007E001216846FFF798FF0546012D02D0DB
:10564000641C052CF5DB052C08DB707831782B46C3
:1056500040EA0121BA1EEC4814F008FB2846FEBDC2
:105660002DE9F04389B081460E4690461D46002242
:105670000592069207920892019202920392049276
:10568000002422E0AA22102105A80AF048FB370ACC
:105690008DF814708DF81560AA1C05A94846FFF70F
:1056A00086FFAB22102101A80AF039FB8DF80470A7
:1056B0008DF80560AA1C01A94846FFF778FFAA1CCF
:1056C00001A905A80AF044FB68B12046641CE4B2B5
:1056D0000328D7D32A463146CC4814F0C7FA002015
:1056E00009B0BDE8F0832A460DF1060140460AF0F4
:1056F00002FB0120F4E7FCF76EBDFCF73EBD10B5E0
:10570000FCF7CEFD002010BD38B54FF0FF3500246A
:10571000BFA0006800900CE003226946BA20FFF7A2
:1057200079FF45B2002D04DDBAA014F09FFA284697
:1057300038BD2046641C64B20528EDDBBFA014F020
:1057400095FA284638BD38B5C54800680090002451
:10575000651E0DE003226946BA20FFF728FF45B217
:10576000002D01DD284638BD2146BEA014F07EFA8A
:105770002046641CE4B20528ECD3284638BD70B539
:105780000024651E0BE0FFF7DEFF0546002D04DD5B
:10579000C0A014F06BFA284670BDFFF7B0FF20469A
:1057A000641CE4B20A28EED3C3A014F05FFA2846C2
:1057B00070BDFEB5002000900190029080258DF80C
:1057C000005051208DF801000A226946BA20FFF7E7
:1057D000EEFE002801DA0020FEBD9DF802009DF8D3
:1057E000031000EB012086B29DF804009DF805101F
:1057F00000EB012084B240F28D21BAA014F036FAF9
:105800008DF8005056208DF8010003226946BA2019
:10581000FFF7CDFE002801DA0020FEBD9DF8020052
:1058200000F0030322463146B5A014F01FFA012010
:10583000FEBD70B586B08A48C1688068CDE90401B4
:10584000082204A9BA20FFF7B2FE0446200005D5BD
:10585000BAA014F00BFA204606B070BD9DF81210E5
:10586000C14D352918D09DF81520002A37D09DF854
:105870001430342B4FD09DF816009DF8176002901D
:10588000CDE900269DF81320B8A014F0EFF99DF89B
:10589000120039285ED06BE09DF816209DF81700A5
:1058A0009DF81530CDE9003002929DF814309DF836
:1058B0001320BAA014F0DAF99DF81200352857D158
:1058C0009DF81300362853D19DF8140038284FD185
:1058D0009DF8150038284BD10220287048E09DF82B
:1058E00016009DF81720CDE900209DF814309DF892
:1058F0001320B6A014F0BAF99DF81200392837D158
:105900009DF81300312833D19DF8140031282FD190
:10591000012028702CE09DF816009DF81760029079
:10592000CDE900269DF81320B4A014F09FF99DF84E
:10593000120039281CD19DF81300312818D19DF888
:105940001400342814D19DF81500372810D10320F5
:1059500028700DE09DF81300312809D19DF814003E
:10596000352805D19DF81500372801D10020287071
:10597000204671E72DE9F043CBB04FF0FF3700250B
:105980004FF481701FF09CF9044680202070502055
:105990006070FCF7B8FCFFF7D6FE0646002E05DA6D
:1059A000A2A014F063F930464BB09AE6FFF741FF2E
:1059B0006D480078032805D1DFF8A49009F110099B
:1059C0004FF0B8084FF48071A01C0AF0AFF94246BE
:1059D0004946A01C0AF08FF94646424640F2D921BA
:1059E0009DA014F043F9324640F2DA21A4A014F04D
:1059F0003DF92020E07003202071E02060714FF01D
:105A000001094FE194560608E45606085056060868
:105A1000804000003C3C2D4754502D494E464F2DB0
:105A20003E3E2073656E6420636F6D6D616E642011
:105A300073756363657373210A0000003C3C2D4756
:105A400054502D4552524F522D3E3E2073656E6488
:105A500020636F6D6D616E64206661696C210A0060
:105A6000506A02083C3C2D4754502D4552524F522B
:105A70002D3E3E2047545020693263207465737474
:105A8000206661696C65642074696D652025642EEB
:105A90000A0000003C3C2D4754502D494E464F2DE6
:105AA0003E3E204754502077616B65757020736CC3
:105AB0006565702E0A0000003C3C2D4754502D4572
:105AC00052524F522D3E3E204754502077616B6515
:105AD000757020736C656570206661696C65642EF5
